S01B000073656E736F722D6163747561746F722D6E6F64652E733337DC
S113400060580020AD2B030015230300192303007F
S1134010A70A090100410000041809AC00208C0023
S1134020000000000000000000000000000000008C
S1134030000000000000000000000000000000007C
S11340400000000000000000FFFFFFFFFFFFFFFF74
S1134050FFFFFFFF00E0030000000000000000007D
S1134060FFFFFFFFFFFFFFFF10FFFFFFFFFFFFFF4B
S1134070FFFFFFFFFFFFFFFFFFFFFFFFFFFFFFFF4C
S1134080F07F002000000000EE7F0020EE7F002083
S11340906058002050710300DC320300884900207E
S10F40A0701700200000040000800020C5
S113410060580020AD2B030015230300192303007E
S1134110212303001D23030025230300A1230300FF
S1134120A1230300A1230300A1230300A12303006F
S113413029230300A1230300A1230300A1230300D7
S11341401DB3020025540200E3C701002D540200F0
S113415059540200375402003554020051540200ED
S1134160D9C3010067C601004BBC0200CB5100005B
S1134170A1230300A12303000F2B0300A1230300A9
S1134180A123030089C60100A1230300A123030086
S1134190A1230300A1230300A1230300A1230300FF
S11341A0A1230300A1230300A1230300415402001F
S11341B04954020053B10200A1230300A1230300C8
S11341C0A1230300A1230300A1230300A1230300CF
S11341D0A1230300A1230300A1230300A1230300BF
S11341E072B67C48016811F1010F1CBF491C0160C3
S11341F0006870477749086818B1401E086000D10C
S113420062B670477449754A01E021B1491E1369C9
S1134210DB07FAD401B9BEE05060012010601069D8
S113422010F0060F05D0410700D5B7E0800700D590
S1134230B7E0002070472DE9F8430D460026002D15
S1134240804637D0002ADFF89091644C374611D16C
S1134250AF422FD258F8040BE0607F1C0820206086
S1134260484601E020B3401E2169C907FAD400285A
S1134270EED11DE0FFF7B4FF0EE0206900F0190055
S1134280102808BF206020690007F6D558F8040BF1
S1134290E0607F1C10202060AF42F4D3FFF7AAFF38
S11342A0484601E020B1401E2169C907FAD408B983
S11342B06FF002063046BDE8F2832DE9F84F484F0F
S11342C00D4639680446002041F001019B463960DF
S11342D04FEA92088146AA4602E0B1440AEB860AF4
S11342E0C14517D204EB89063046FFF78BFF010066
S11342F022D1C6F30A00C0F500608608A8EB0900C5
S1134300B04238BF06465A4631465046FFF793FF3F
S11343100100E2D021682A68914209D02046FFF7C3
S113432071FF010004D15A4601212846FFF783FF9B
S11343303968490849003960BDE8F28F2849264A9E
S11343400B6843F001030B608860012048604869F2
S1134350400704D508684008400008601EE048692A
S1134360800704D5086840084000086019E002206E
S1134370486001E022B1521E4869C007FAD422B94C
S1134380086840084000086005E0086840084000EC
S11343900860002070476FF0020070474FF0FF3054
S11343A070476FF001007047002386E70C480168EE
S11343B041F00101016046F21A31C1644FF4807189
S11343C041604169C907FCD40021C16400207047E1
S11343D0000000006C700020809698000C000E40D5
S11343E008000E4010B584B002F00F0102911C4683
S11343F0C2F303110191130BC2F30321009102468E
S11344000FF24C01012000F063F80698062807DA41
S11344100FF2600151F820200BA1012000F058F8A0
S113442022460FF23C01012000F052F8079A0FF2E5
S11344303C01012000F04CF804B0BDE8104003A199
S1134440012000F04BB8000020257300000000009C
S113445025732025752E25752E25752E25750000AE
S1134460206275696C64202575000000202825737E
S1134470290000004C41030058410300604103003F
S1134480684103006C410300744103004F4A4FF636
S1134490FF718842508004D0010A04D11178084089
S11344A002D0012070470020704770B50C461546B5
S11344B01E46FFF7EBFF50B132462946012000F0BB
S11344C0E7F924B1BDE87040012000F0C5B970BD22
S11344D00CB480B50A4602AB002104E00CB480B5EC
S11344E00A4602AB0121FFF7E0FF01BC5DF80CFBBB
S11344F02DE9F84380460E4617469946FFF7C6FF56
S1134500D8B1089C002510E0325C49464046FFF7CC
S1134510DFFFE81005EB10700011A5EB0010062872
S113452004BF404600F054F86D1CBD4205DA20007B
S11345301ABF781B401E2846E6E7BDE8F18380B524
S1134540002300931CA3FFF7D3FF01BD10B5002B7C
S113455082B014BF19A31AA300240094FFF7C8FF64
S113456013BD38B500E038B500F00CF815A1FFF71D
S1134570AFFF0120009012A3688808222146FFF7AC
S1134580B7FF31BD114D04466888704700B58BB044
S11345902822694600F096FB05E000B58BB02C2379
S11345A06A4600F095FB28B1084840886A4606A18F
S11345B0FFF78EFF0BB000BD2563000025782000B7
S11345C0257800003E0000002573000024670020C9
S11345D080B5FFF75BFF20B1BDE80240012000F089
S11345E0A2BC01BD70B51346104402E0A4192C709E
S11345F05B1EDCB24CB101F00F060909451E0A2E00
S11346002846B4BF30243724F0E7104470BDF0B519
S1134610002341B1002806D501232D21B0F1004F1C
S1134620117018BF4042002100240FF2702555F884
S11346302470002601E0C01B761CB842FBD2F7B2FE
S11346400FB90F0005D0DBB206F13001D1545B1C69
S11346500121641C092CEADBDBB23030D054581C35
S1134660C0B2F0BD2DE9F24F804696B013A8019078
S1134670154603A89B4603AE002700248DF80000CE
S11346800BE0012405460198864205D300F0DCF8CE
S113469000284FD100F0CEF86D1C9DF80000297859
S11346A0301A0A000BD0252903D014B906F8011BCF
S11346B0E9E7002C14BF00246D1C29780A0000F0DF
S11346C0AF80B1F1250216D00B3A092A40F2898055
S11346D0283A7DD00A3A12D0521E41D0521E5FD0E1
S11346E0083A5DD0121F3ED0D21E3CD0921E57D045
S11346F0D21E6DD0C7E7252006F8010BC3E7DBF80F
S1134700000002904FF0000A0BF1040000F1040BCA
S1134710D0F80090CA45B6D2029810F80A100222C6
S11347203046FFF75FFF06460198864205D300F046
S11347308BF800287AD100F07DF8A9F101008245B8
S11347403CBF202006F8010B0198864205D300F0F7
S11347507BF800286AD100F06DF80AF1010AD9E764
S11347605BF8040BC8E75BF8049B00F067F80028CB
S11347705CD100F05FF84FF0000A01E00AF1010A91
S11347805FFA8AFA19F80A000028F7D19DF8580050
S113479052464946C047002848D15744FFB272E701
S11347A06C290AD16A785BF8040B752A0EBF0021C4
S11347B00121642A07D16D1C05E075295BF8040BFF
S11347C00CBF002101213246FFF721FF36185AE7BA
S11347D05BF8041B0222C9B23046FFF703FF06460A
S11347E051E76A780124782A18BF582AF8D16D1C39
S11347F00024681E322904D15BF8040B042281B220
S1134800EAE734297FF43DAF5BF8049B04224FEAC6
S113481019413046FFF7E6FE04221FFA89F1DCE76E
S113482000F00CF810B9F019C0B200E0002017B085
S1134830BDE8F08FF719FFB203AE704706469DF846
S11348405800F2B203A940479DF80000361A9DF8BB
S11348505800F2B203A9404701A111E00000000092
S11348600D0A00000CB438B5044604AA00F010F890
S113487005462046FFF7F0FF284632BC5DF80CFBE6
S11348800CB480B502AA00F003F802BC5DF80CFB7E
S113489080B500F0E9FEC0B202BD000000CA9A3B38
S11348A000E1F5058096980040420F00A0860100C3
S11348B010270000E8030000640000000A00000064
S11348C08D4938E080B5014606220FF2D0501EE033
S11348D038B504460D4606220FF2C051284600F0B2
S11348E0BBFF2146A81DBDE8344001F04EB838B5E1
S11348F004460D46FFF7E6FF28B11DB1A01D01F0E7
S11349003AF82880012032BD80B508227A4901F0A6
S11349100CF8401E8041C00F02BD00B583B000A951
S113492000F011F80822754900A800F0FEFF401EAF
S11349308041C00F0EBD10B500F00DF8207880F056
S11349400200207010BD10B500F005F8E07980F089
S11349500200E07110BD0C4601460822204601F019
S11349605AB838B5044601F0B8FB054600A92046FC
S1134970FFF7BDFF00281CBF4FF6FE70854205D02F
S1134980BDF80000854201D1012032BD002032BDB6
S113499010B5044600220F2101F02EF810B1E07B7F
S11349A0012800D0002010BD10B50C4604F1080108
S11349B0FFF78EFF14E038B504460D4601F0ACFE57
S11349C028B1294604F10800BDE834408FE732BD20
S11349D010B504460822484904F1080000F03CFFE1
S11349E02046BDE8104001F08BBE10B5044601F02E
S11349F093FE17E038B504460D4608220FF2A44191
S1134A00284600F029FF05F108012046BDE834409E
S1134A1091E780B508220FF28C4178E710B504467F
S1134A20FFF7F7FF38B104F10800FFF74BFF00F080
S1134A30010080F0010010BD10B5044601F04DFBEB
S1134A404FF6FE71884205DA01F047FB2146BDE8C6
S1134A501040A9E72046BDE81040B9E710B5044668
S1134A6002F079F818B92046BDE8104090E701201B
S1134A7010BD0178FF2904BF4178322907D181781C
S1134A8029B9C178402904BF001D01F045BE0020AA
S1134A9070470178FF2904BF4178332907D1817811
S1134AA029B9C178402904BF001D01F035BE00209A
S1134AB070470178FF2906BF40780128002070471D
S1134AC00178FF2904BF4078022801D101207047F2
S1134AD00020704738B50446094D08222146281D98
S1134AE000F0BAFE214605F11400BDE83840082262
S1134AF000F0B2BE000000007C770020907B002014
S1134B008465002010B581280B4601DB002010BD10
S1134B10802814DAC408C0F10800012200EBC400A4
S1134B20E15C02FA00F0401E21EA0000E054C4F106
S1134B300F02E01892B20021401C00F0EFFE0120A9
S1134B4010BD2DE9F84708B40646180090B0884611
S1134B50914611D001A8102102F07AF826B1102252
S1134B60314601A800F078FEB9F1000F06D001A982
S1134B704046FFF7C7FF002800F09880FF26002476
S1134B80FF2700962546A24601A800EB4A0000F044
S1134B90F2FE20B9FF2F08BF5746641C05E0FF2F23
S1134BA003D000F086F8FF2700240AF1010ABAF1C5
S1134BB0080FE9DBFF2F01D000F07BF8012D08BFBF
S1134BC00096009805AE00272C180098874201DB58
S1134BD0A7422CDB01A800EB470000F0CCFE17B184
S1134BE03A2106F8011B314600230022950000FA01
S1134BF005F52D1305F00F0C002B08BFBCF1000FB9
S1134C0001D1032A0CD10B46591CBCF10A0FB4BFC5
S1134C104FF0300E4FF0570EF44483F800C00123D8
S1134C20521C042AE2DB881BC0B2861904E0B84295
S1134C3004BF3A2006F8010B7F1C082FC5DB082CA3
S1134C4004BF3A2006F8010BB9F1000F1CD02F2045
S1134C5006F8010BB8F1640F404605DB31216438D6
S1134C6006F8011BC0B201E00A280ADB0A2190FB06
S1134C70F1F101F1300206F8012B0A2202FB1100C6
S1134C80C0B2303006F8010B002006F8010B05A96C
S1134C901A98711A884208D305A8321A109892B249
S1134CA005A900F0D9FD012000E0002012B0BDE804
S1134CB0F0870098FF2802D0E4B2A54201DA0097F9
S1134CC0E5B2704780B500920B460022002103E054
S1134CD080B5009313460122FFF733FF02BD2DE98F
S1134CE0FE4F0546080090B040D0180001D01000D7
S1134CF03CD065B910981022002100F00FFE9DF8F9
S1134D004800002802D0119900200870BDE02C2131
S1134D10284601F0A0FF04462C2C27D205A82C21FC
S1134D2001F096FFA2B2294605A800F095FD9DF872
S1134D3048000024D8B12F2105A801F097FF0500F1
S1134D401FBF0470451C287800280FD0287870B144
S1134D5015F8010B00F0D1FE0A2807DA0A2114FB2A
S1134D6001F151FA80F4A4B2812CEFDB84E001A8B4
S1134D70102101F06DFF9DF8140000253A28A94682
S1134D80AB46A8460CBF01260026AA4619E082F0CD
S1134D90010001EA0902384082F0010210426BD09E
S1134DA0012E08BF002967D029B10AF1010A4FF08A
S1134DB001098DF800504FF0000BD84600260AF187
S1134DC0010A05A81AF8000098B33A280CBF012775
S1134DD0002700F092FE05A9514449784A1E9241E9
S1134DE0D20F3A290CBF012100210FB9102843DA50
S1134DF0102D41D01EB1022EC9D0C8D3DFE7002F39
S1134E003AD1B8F1040F37D04FEA0B1353FA80FBB1
S1134E1008F101005FFA80F851EA0200CFD001A83E
S1134E201FFA8BF1281800F0B0FDAD1CEDB202267C
S1134E30C5E7B9F1000F15D0C5F110095FFA89F67D
S1134E40002E19D09DF8001001A80F186A1AD2B2CA
S1134E503946F01900F000FD32460021384600F0D2
S1134E605DFD01E0102D07D19DF8480040B101A976
S1134E70E0B2FFF747FE08B9002007E0119804707C
S1134E801022109801A900F0E7FC012013B0BDE83E
S1134E90F08F0023002222E7012320E7000000FF17
S1134EA0FE000000FE80000000000000F0B5044693
S1134EB00F46012021008BB015461E4603D1002168
S1134EC0002000F0F1FA012C0BD168460FF28C019E
S1134ED0242201F0E7FE1020ADF82400ADF82600EE
S1134EE003E0022C18BF032C11D1012E0197ADF859
S1134EF00C5008BF4FF4805003D0022E03D14FF45E
S1134F004050ADF80A006946204600F0CDFAC0B220
S1134F100BB0F0BD00F044BB80B500F04CFBC0B258
S1134F2002BD00F09ABB80B500F03CFCC0B202BDEB
S1134F300CB40A4610B5014602AB0548FFF792FBD4
S1134F40002400B90124204610BC5DF80CFB0000CD
S1134F5073570000704700F057BC00000000014088
S1134F6000C2010000000010000000000200020066
S1134F700300000000000000000000001E1E0000EE
S1134F80012100F01F029140DFF8742805E001219F
S1134F9000F01F029140DFF86C28400942F820100D
S1134FA07047012100F01F029140DFF87028F4E7F8
S1134FB03023DFF86C28584310440C30890001EB8F
S1134FC0401000F1844001210160704772B6DFF89F
S1134FD05408016811F1010F1CBF491C01600068ED
S1134FE07047DFF84018086818B1401E086000D107
S1134FF062B67047DFF83008416821F00201416071
S113500002210160704780B5DFF82008016829B1EA
S11350100168DFF81C2811600021016000F02AF803
S11350200B20FFF7ADFFDFF80C08016841F0040125
S113503001600221DFF8F0070160416841F00201DC
S1135040416001BD80B5DFF8F007042101604168CB
S113505021F00401416000F00DF80B20FFF797FFE9
S1135060DFF8CC07006810B1DFF8C0170860BDE8AE
S11350700140BFE70B2094E7DFF8C02752F8200077
S1135080426892884089401A824201DA01207047BE
S11350900020704770B50546012D0E4644D1DFF857
S11350A09C4754F825008069016890F83200E8B9FB
S11350B004208864FFF7DEFF00F037F8C16C002E8F
S11350C007D041F00401C1640B20FFF759FF05210B
S11350D006E021F00401C1640B20FFF758FF002112
S11350E000F023F8BDE8704001F056BE0420486388
S11350F0FFF7C0FF00F019F8816B002E07D041F0D4
S1135100040181630B20FFF73BFF052106E021F03A
S1135110040181630B20FFF73AFF002100F005F83A
S1135120BDE8704001F0E9BE70BD54F82500806907
S11351300068704770B50646DFF80057344655F8E6
S1135140240011290BD18069002102F0F0FD55F8EB
S11351502410002008733046BDE870402FE1132965
S113516008D18069012102F0E2FD55F824100120E4
S1135170087370BD006802881044017255F8240059
S113518001680A8800F062FA0A8001688A88521C61
S11351908A80806902F0E6FD55F82420136811899D
S11351A09B88C91A89B220B9D3898B42A8BF01212F
S11351B005DA012808D1108A814205DB00219069B3
S11351C0BDE8704002F0A5BD70BD80B5DFF8700683
S11351D00169090606D501F077FEBDE804400146E1
S11351E00120A7E701BD3EB5012804463AD81CBFFB
S11351F0022C032C36D1DFF84456FFF7E7FE00F00B
S11352001FF901AB6A4602A902F035FD55F82400E6
S113521002890099006889B200F025F8FFF7E1FEE1
S113522000F00EF902F09EFD01281BD155F8240070
S1135230026801899288891A028A914212DB806984
S113524090F83110022903D102F013FD022804DA88
S113525055F8240000F09FF904D100F0F1F8002182
S113526002F057FD37BD70B504460D461646FFF7EC
S1135270ADFEE088A8420CD22188091A491991FB95
S1135280F6F206FB12112180A1886918081AA08081
S1135290E580BDE87040A4E638B504460FF23D034E
S11352A0E089658A216802466843084400F10801E0
S11352B0A06902F0E8FDA06902F0DBFC022803DB30
S11352C0A069002102F025FD608AA18A401C90FBA0
S11352D0F1F201FB1200608231BD0000F8B500F06C
S11352E068F857F826008169A1422FD10289006825
S11352F0A9B2FFF7B8FF57F8261009680020C88044
S113530001E0FFF7C9FF204602F0B3FC03281DDAD1
S113531057F826000368C189428AB3F804C04A4397
S1135320BCF1000F92B2ECD0B3F802C01B8889180C
S11353308C45B8BF9A4205DB6345E2D28C45A8BFD1
S11353409A42DEDA0121204602F0E3FC761C042EA8
S1135350C7DBF1BD38B505460C46FFF737FEDFF86D
S1135360DC0450F8250041684A884389A21892FB5E
S1135370F3F503FB15224A8040688188091B81806C
S1135380BDE831402DE6F8B500F013F857F82600D3
S11353908169A14209D140688188A94234BF8188CA
S11353A0294689B2F0B2FFF7D5FF761C042EEDDB57
S11353B0F1BD04461D460026DFF8807470472DE9D0
S11353C0F041DFF8785484B0044655F82400017B9A
S11353D0A1BB41684A888069DFF86884114401F1FF
S11353E008066B4601AA02A902F067FC55F82400DE
S11353F041688A88009BD21A019BD71A4A88098877
S1135400914210D2418980698A1A4346314602F09A
S11354109DFD98B955F82400416840894A88381A96
S1135420171801F1080600F00BF84346FAB23146AA
S113543002F08CFD10B955F824104873BDE8FF81C3
S113544055F82400806970472DE9F0410646012E85
S11354501CBF022E032E0C46154623D1DFF8DC7345
S113546057F826C09CF80C1019B101208CF80D00D7
S113547018E09CF80D1011B1BDE8F0419FE7DFF88A
S1135480C483DCF818004346214602F05FFD48B1AE
S113549057F82600806943462A46214602F056FD05
S11354A00028F5D1BDE8F0817CB5012804460D46FD
S11354B003D800F0A9F910B976BD012076BD21000A
S11354C0DFF8780300EB81063068326A02603269E3
S11354D042600FF27C3232F8112002810FF26832FE
S11354E032F81120428103D1BDE8734002F088BD37
S11354F001291CBF0229032941D1F16C8161316B5F
S1135500EA8CA961316CE961A98C8A4204D21C211C
S113551001F09EFB022076BDC181E98C01822946FF
S1135520F06C02F0B1FAA8BBF06C017F007E01239D
S1135530022202F0B6FE287C012809D1012120466E
S1135540FFF7A8FD30688069002102F0E2FB0CE05F
S11355503068C28900214182018991FBF2F1818284
S1135560FFF79AFE3068FFF797FE01230422052116
S1135570002002F096FE05210020FFF719FD00200F
S1135580019000230120009001220121002002F05B
S11355904BFE002076BD806990F8310001287047E9
S11355A010B50446FFF71FFEDFF8900250F8240000
S11355B00068808810BD70B5012805460E460AD8DB
S11355C0FFF711FEDFF8744254F825000068808864
S11355D018B9262070BD012070BDFFF7F7FC54F800
S11355E02500006841880844007A307054F825008A
S11355F001684A8800F02AF84A8001688A88521EA5
S11356008A80FFF7C8FF02D11CE0FFF745FE54F87B
S11356102500806902F02DFB022813DA54F82500D6
S11356200368C189428A5E881B884A4392B28918FA
S11356308E42B8BF9A4205DBB342E6D28E42A8BF7F
S11356409A42E2DAFFF7CDFC002070BD0389521CB8
S113565092FBF3F603FB16227047DFF8E01151F8D2
S1135660200040688088704710B501280BD8134685
S11356700A4601460FF21500FEF7F4FF002400B9B4
S11356800124204610BD012010BD00002DE9F84F73
S1135690012881468A46164607D85FEA090006D1E2
S11356A03146504602F051FE44E0012043E0DFF869
S11356B08CB15BF8290000F04AF826E0FFF786FC7D
S11356C05BF8290000F039F801725BF8290000F05A
S11356D046F841688A88521C8A8040680088471EC0
S11356E0BF41FFF77EFCFF0F77B1681C071BFFB2B9
S11356F03A4641464846FFF7A7FE5BF82900406852
S11357003C19E4B200F108086D1CE8B2B0420CD2B6
S113571000214846FFF7B0FC0028CFD15BF82900F0
S1135720007B0028F4D0222005E0B44202DA321BC8
S113573000F009F80020BDE8F28F406802881AF8EA
S1135740011B1044704792B2414648467CE64068CB
S11357500188084400F108080024002570474168C6
S11357600A884389521C92FBF3FC03FB1C220A8027
S1135770704780B50B460128114606D8020006D1B1
S1135780184602F0E2FD002002BD012002BD0A46D7
S113579019462A4B53F820008069BDE8084002F0FE
S11357A0E3BA000038B5012822D80400234D05D1FE
S11357B055F82400406880880028F9D1012C1CBFCA
S11357C0022C032C12D155F8240041688988002941
S11357D0F9D1806902F06DFA0028F4D100F00AF8DA
S11357E08006F0D500F006F88004ECD5002032BD28
S11357F0012032BD55F82400806902F011BA00007E
S113580000E100E080E100E00C4951F8200000686C
S113581008B90120704700207047000080E200E0D2
S113582000A000406C70002024A400406C200E40B6
S1135830A86D00204C00014048000140885B002016
S11358400000014087530000800080008000800039
S11358504000800040004000814233D21044114493
S1135860401E491E10E011F8013900F80139121FD9
S113587011F8013900F8013911F8013900F801393A
S113588011F8013900F8013992B2042AEBDA93B223
S1135890002B1EBF11F8013900F80139521EF6D150
S11358A0704711F8013B00F8013B121F11F8013B4E
S11358B000F8013B11F8013B00F8013B11F8013BF2
S11358C000F8013B92B2042AEBDA93B2002B1EBF1C
S11358D011F8013B00F8013B521EF6D1704710E06D
S11358E011F8013B00F8013B121F11F8013B00F8CD
S11358F0013B11F8013B00F8013B11F8013B00F8B2
S1135900013B92B2042AEBDA93B2002B1EBF11F8CA
S1135910013B00F8013B521EF6D17047130003D03F
S11359200A46194602F052BE704710B500E0521EF6
S113593093B223B100F005F8F9D0181B10BD002074
S113594010BD10F8013B11F8014BA3427047826867
S1135950521C8260426832B10268531C03601170A9
S11359604168491E4160704741780078090251FA44
S113597080F080B270470178407800EB012080B25B
S113598070470170090A417070470A0A0270417039
S1135990704710B50023002814BF1C46C3F103044C
S11359A0E4B25B1C6254120A042BF4DB10BD30B564
S11359B00024002814BF2546C4F10505EDB2641C7B
S11359C06A54120A42EA03621B0A062CF1DB30BD58
S11359D030B54A788B78CC78097818B120461D46C2
S11359E00C4602E0154608461A4645EA002044EAF9
S11359F0022141EA004030BD10B5002300E05B1CE9
S1135A00DBB28B4205D210F8014B9442F7D0002050
S1135A1010BD012010BD10B5002304E0541EE41A8B
S1135A20645C1C545B1C9342F8DB10BD10B500246D
S1135A3080B14FF6FF7202E0944206D0641CA4B217
S1135A40235C002BF8D1944204D176210FF2CC00D0
S1135A5002F0F2FD204610BD10F8012B11F8013BB5
S1135A600AB19A42F8D0D01A40B2704730B5994280
S1135A7028BF1946002303E00833401C521C9BB284
S1135A8003F10804A14203DB04781578AC42F3D097
S1135A908B420DDA007812785040C0438024C0B2A3
S1135AA002E05B1C64089BB28B4201DA0442F8D129
S1135AB0184630BDF8B555052D0E02F0070704460B
S1135AC00E462A46FFF7C8FE47B1FF20295DAA5DAE
S1135AD0F840014022EA000008432855F1BD0021A6
S1135AE00FF24C02002805E000F00F039B5C5918EC
S1135AF0C9B20009F8D1084670476128A8BF5721E8
S1135B0007DA4128A8BF372103DA3A28B4BF302185
S1135B100021401AC0B27047000000006279746529
S1135B202D7574696C69746965732E6300000000D7
S1135B300001010201020203010202030203030441
S1135B4080B50FF2341002F0D2FE03F0A5FC0FF280
S1135B50341002F0CCFE03F087FE0FF2381002F08E
S1135B60C6FE04F03FF90FF2381002F0C0FE04F054
S1135B706DFAB9A002F0BBFE04F076FE0FF2341009
S1135B8002F0B5FEDFF8D80802F000FF0FF234107F
S1135B9002F0ADFE05F010F80FF2301002F0A7FE8F
S1135BA005F09FF80FF2301002F0A1FEDFF8B40800
S1135BB002F0ECFE0FF2341002F099FEDFF8A808B0
S1135BC002F0E4FE0FF2341002F091FEDFF89C08BC
S1135BD002F0DCFE0FF23C1002F089FEDFF89008C0
S1135BE002F0D4FE0FF2441002F081FEDFF88408C4
S1135BF002F0CCFE0FF24C1002F079FE05F048F9E9
S1135C000FF2541002F073FEDFF86C0802F0BEFECF
S1135C100FF2581002F06BFEDFF8600805F00AFA84
S1135C200FF25C1002F063FE05F0D6FD0FF258107F
S1135C3002F05DFE06F053F90FF2541002F057FE25
S1135C4006F031FA0FF2581002F051FEDFF868093D
S1135C5002F09CFE0FF2581002F049FEDFF85C09D6
S1135C6002F094FE0FF2681002F041FE06F04AFAC8
S1135C70BDE8014002F03FBE4D41432061726269BC
S1135C80746572004D414320696E64697265637482
S1135C90000000007265747279207461626C6500A2
S1135CA0364C6F5750414E20667261676D656E7455
S1135CB0730000006D756C746963617374207461A2
S1135CC0626C650077616B65757000006170706C63
S1135CD069636174696F6E00666F726D2D656E65C0
S1135CE07267792D7363616E000000006E657477CE
S1135CF06F726B206461746100000000736C6565F1
S1135D0070792062726F6164636173742068656185
S1135D1064657200676C6F62616C206164647265B3
S1135D207373207461626C650000000065787465AB
S1135D30726E616C20726F757465207461626C653B
S1135D40000000004448435020616464726573732A
S1135D50207461626C6500006368696C642061642E
S1135D606472657373207461626C6500737461633B
S1135D706B206576656E742071756575650000002D
S1135D80436F4150000000004A50616B6500000001
S1135D904D61726B2046756E6374696F6E7300009B
S1135DA0436F6D6D697373696F6E696E6700000090
S1135DB07363616E20726573756C747320666F72A1
S1135DC020636F6D6D697373696F6E657200000097
S1135DD044544C53204A6F696E00000070B5DFF8DC
S1135DE07C460546E0882A0601D4062D04D140F0FD
S1135DF0040005F07F0503E011B94FF6FB7108407C
S1135E002E46022E1CBF032E042EE08008D0052E41
S1135E100DD0062E18BF072E02D0EA2100F052F949
S1135E20A570A07804280CBF0120002001E0032500
S1135E30F6E706F059FDE0884FF6F4710840062EA7
S1135E4008BF40F0020004D0022E14BF032E40F01D
S1135E500800E08070BD00005544500010B5F2B059
S1135E6006F06AFD04F01EF807F0C7F909F015FA08
S1135E7009F075FC09F084FE09F0C2FE0AF091FBFA
S1135E8000F05BFC00F062FC0AF07AFE0BF096FD79
S1135E9001200CF036FD0DF01DF803F003FC0DF0AD
S1135EA034F8DFF8CC470020A0704FF6FE700CF0F9
S1135EB0F0FD0020E0800DF02FF90DF061FB0FF0F4
S1135EC00EF910F003FA05F093FEBC237F2208219B
S1135ED042A811F06DF800F012F901A80FF069FF63
S1135EE0BDF854014FF6FF71884236D0BDF8040066
S1135EF098BB082342AA0E210DF106000DF0EEFB1B
S1135F00102344AA03210DF0E9FB082348AA022127
S1135F100DF0E4FB08234AAA07210DF0DFFB102350
S1135F204CAA05210DF0DAFB0FF046F9BDF8542117
S1135F3001210DF0AFFBDFF8402700210FF02BF912
S1135F40032357AA00210DF0C9FB0DF10601401AE5
S1135F50ADF8040001A80FF0A1FFBDF8040000286B
S1135F601EBF9DF8020000280120002100F0D6F891
S1135F7072B010BD38B5DFF804170020088002F0B5
S1135F8051FC02F03DF8DFF8F8060FF22074416886
S1135F90C90703D5006810F0300F10D10FF218753F
S1135FA029460020FEF7C4FF29460120FEF7C0FF62
S1135FB02046BDE834404FF4D47102F03DBB10F0EC
S1135FC0D5FF20B140F2AD11204602F035FB02F0BE
S1135FD0C3F9DFF89C460FF2FC6011F0F3F860702F
S1135FE004F1080004F063FFDFF89816002008604D
S1135FF0DFF89416086011F066F904F071FEFFF7FB
S11360002DFF0020BDE8324004F056BE38B50446EA
S1136010DFF85C560CF0FAFB20B1A888002814BF06
S113602001200220207003F007FB10B903F029FBC4
S113603058B103F016F940B100F009F828B105F1A0
S11360400800BDE8324004F0BBBF002032BDDFF8D9
S11360503C0611F057B910B5DFF83406007818B1D2
S11360600FF22C0002F0CFFC11F054FB11F0BDFB39
S113607011F05CFD03F075FDDFF8F44504F1080050
S113608004F0AAFF6078BDE8104011F0C2B8000027
S1136090415B000000000000DFF8D405407811F0F7
S11360A0B8B880B503F0C8FA18B940F22B2100F053
S11360B009F80CF0D1FA00200CF0A0FEBDE8014074
S11360C003F0D5B80FF2E45002F0B6BA80B50CF084
S11360D0C8FBBDE802400CF014BC0CF0D2BCDFF8E5
S11360E090158979890758BF0CF0BFBC70470CF034
S11360F0CCBC0CF0CEBC12F045BD0068009004236B
S11361007F220C2100A810F053BF12F02ABDDFF843
S113611084057047DFF858050078704770B5044669
S1136120DFF84C05067804700D46C188032C05D1B0
S113613041F40041C1800BF0FFFB06E04904490C27
S1136140C18014B9012006F0CFFB2A46314620460F
S1136150BDE8704012F05CBDF8B506464E22002141
S1136160FFF7DCFBDFF8F4522878012806F1280455
S113617021D0DFF824751022B91C3046FFF76CFBE0
S113618006F1100000F0BCFA06F1180000F0D2FA93
S1136190082207F1120106F12000FFF75DFB0CF065
S11361A074FC308512F0DDFCA070A878E07012F069
S11361B0DBFC2071F1BD0EF05DFF0746102207F1F4
S11361C014013046FFF748FB082207F1240106F1C9
S11361D02000FFF741FB082207F12C0106F1100013
S11361E0FFF73AFBB7F858003085042397F86200AC
S11361F0A0707F220FF2E44000680090FFF781FF57
S11362009DF8030020719DF80200E070A87803282F
S113621004D1A87900075CBF0520E070F1BD2DE929
S1136220F04104000D4604D12846BDE8F041FEF7D4
S1136230CFBB012804D1DFF85C04FEF7DBFB20E0D0
S1136240022820DBDFF8288202260021404611F0D4
S11362506FF804E0761C3946404611F096F80700C2
S113626011D002F024FE00281CBF41680029F1D09F
S1136270F6B2A642EED100F10D0110222846FFF736
S1136280EBFA012000E00020BDE8F0812DE9F042A6
S113629004460D46764E0021304611F049F81EE0C2
S11362A002F005FE070016D0B87A800613D5002C3C
S11362B018BF002D08D02B462246294607F10D00B1
S11362C0FFF7D4FBA84206D1BB7A7A68396807F194
S11362D00D0012F03AFE4946304611F056F85FEAD6
S11362E00009DDD1BDE8F0823EB5614C00212046B5
S11362F011F01EF816E002F0DAFD78B1817AC907D0
S11363000CD54168029100F10D0201680191002150
S11363100091437F017BC07A13F060FF2946204639
S113632011F033F80500E6D137BDAA210170BB2175
S113633000F8011FCC2100F8011FDD2100F8011F26
S1136340704710B5044614F0F8F820B92046BDE8AB
S1136350104009F053BF10BD00B5F7B04FF481727F
S1136360002135A8FFF7DAFA35A80FF097FD35A814
S11363700FF096FDBC22002106A8FFF7CFFA4FF6D6
S1136380FF70ADF86400BC2306AA7F21082010F03A
S11363901FFE0422002100A8FFF7C0FA00F02BF82A
S11363A00822002104A8FFF7B9FA082304AA7F21D0
S11363B0052010F00DFE0822002102A8FFF7AEFA16
S11363C0082302AA7F21072010F002FE08F0BAFF7A
S11363D000208DF80400042301AA7F21032010F07B
S11363E0F7FD264804F070FDFFF738FD002013F098
S11363F092F877B000BD042300AA7F210C2010F08E
S1136400E7BD0021DFF8940204F029BE38B5DFF8B7
S11364108C52284604F073FEDFF88402DFF88442CD
S113642000780C2810D02068142804D1012013F01F
S113643072F8002006E04FF4FA71284604F00FFECB
S11364402068401C206031BD002020600320BDE88E
S1136450324003F0CDB814F0A2BE000080740020D6
S11364601A7F002088750020A4770020287F002050
S1136470A6740020107F0020127F00208874002062
S113648030B57B4C2078032887B065D0012803BF42
S1136490834800780C28702078D108237F220521B6
S11364A005A810F085FD05A8FEF70AFA08237F2247
S11364B0072103A810F07CFD082203A96D48FFF70B
S11364C0CBF908237F22062101A810F071FD01A851
S11364D00CF01CFD0EF028FE0EF0CCFD054695F8E0
S11364E0620003F04FF8B5F858000CF0D2FA05F149
S11364F01400FFF79BFAC1B205F114000BF044FA43
S113650005F124000BF010FA05F12C0000F072FBE9
S11365100FF2CC10FFF7F1FDBDF80000FFF7DFFD2F
S11365209DF9030012F02EFB9DF8020000F032F8F2
S11365300AF081F808F010FF0AF0F3FDA0780628AD
S11365400BD100210320FFF7E9FD0AF0EFFD012242
S11365500021002008F0D9F917E00CF092FA800528
S113656002D10BF0F2FE10E0A078032818BF042833
S113657004D0022805D1A079C00702D40BF02AFF69
S113658003E040F20151FFF79DFD002012F05BFC97
S113659007B030BD0021FFF721BC80B50FF02EFFFE
S11365A00CF0EEFF3248807806281CBFBDE801409D
S11365B006F03CBA01BD0000EC7400200475002014
S11365C000B59BB007A8502100F042FB07A8FFF7D5
S11365D0C3FD0FF21010006800909DF848008DF87C
S11365E003000CF04EFAADF8000000AA20488078B1
S11365F0062818BF9DF847008DF8020004237F2168
S11366000C2010F0E5FC0FF2E00005A9D0E900230E
S1136610CDE905232448FEF796F9082305AA7F212E
S1136620052010F0D5FC0FF2C8001249D0E9002370
S1136630CDE9032303A80822FFF70EF9082303AAD0
S11366407F21072010F0C4FC0FF2AC001149D0E9FF
S11366500023CDE9012301A80822FFF7FDF8082350
S113666001AA7F21062010F0B3FC1BB000BD00007E
S1136670807400209875002000F8FF074E740020F5
S1136680E881E00F787B0020387400203A7F0020F6
S113669054670020907B0020247B0020FC640020B1
S11366A070650020987400207C77002069702D7339
S11366B07461636B2E630000537461636B2F4861D4
S11366C0726477617265204D69736D617463680DDE
S11366D00A000000000000000000000000000000AC
S11366E000000000000000000000000000000000A6
S11366F00000000000000000000000000000000096
S113670080B5DFF820150A7A22B10822FFF7A4F831
S1136710012002BD002002BD80B5DFF808150A7A09
S113672032B10822FFF701F9401E8041C00F02BDBB
S1136730002002BD704700207047DFF8E804002104
S11367400172418108220C30FFF7E8B8DFF8D41455
S11367500020488170471FB5DFF8CC04007800079B
S113676010D4DFF8C844207801280BD100A9DFF841
S1136770C004FEF73FF9012100A808F02AFA08B185
S1136780002020701FBDDFF8A414012008706421CC
S1136790DFF8A00404F063BC2DE9F84B08B4044608
S11367A08B46DFF8808416460127002108F10A0091
S11367B010F0BEFD09E0A87A3040B04221D07F1C21
S11367C0494608F10A0010F0E0FD5FEA00091AD01A
S11367D002F06DFB002E0546EDD11CB9BFB25F453A
S11367E0EDD10EE05B4605F10D02594600F022F8AA
S11367F05845E4D19DF8000000281CBF687F8345FC
S1136800DDD1284600E00020BDE8F68BF8B500F0A5
S11368102CF801E000F024F8070006D002F047FB52
S113682000F004F8A842F5D128E0F1BD00F10D0212
S11368302B4629462046FFF719B9F8B500F015F89C
S113684001E000F00DF8070009D002F030FB817A76
S1136850C907F6D5FFF7EAFFA842F2D10EE0F1BD71
S1136860394606F10A0010F090BD04460D46DFF8E3
S1136870B463002106F10A0010F05ABD394606F14E
S11368800A00BDE8F840002210F0A8BD134601221A
S113689082E780B5FFF7FAFF18B1C07A400800F02C
S11368A0010002BD1346002276E780B50022FFF7FF
S11368B0F9FF30B1807A00F00300032801D10120F0
S11368C002BD002002BD38B504460D462846FEF739
S11368D0A0F8D0B92846FFF71FFF70B10021284661
S11368E0FEF769F828B1FFF7F8FB2146FEF75CF8DC
S11368F032E02046FEF76CF82EE02878FF2813D10A
S11369006878032801DB322805D12146DFF8280303
S1136910FEF770F820E0062801DB332814D1204666
S1136920BDE83240FEF754B8002240212846FFF764
S1136930B9FF10B1817A890608D4002100232022EE
S11369400846FFF729FF08B9002032BD00F10D0108
S113695010222046FEF780FF012032BD2DE9F843C6
S113696015461E4680460C4601230022FFF714FFFD
S1136970070023D1AB4F07F10A0010F0C8FC082828
S113698006DA0021282002F097FB5FEA000901D112
S1136990002035E00022494607F10A0010F0CFFC40
S11369A0484602F084FA074628220021FEF7B6FF83
S11369B0BD777C77802C04BF402078771022414635
S11369C007F10D00FEF748FF002038810A9CBC72D5
S11369D00B98F8720C983873099921B1082207F1C1
S11369E01F00FEF739FFA00609D53E602346089A2A
S11369F07A603146404614F0F9FCFFF7C4FE38468D
S1136A00BDE8F28370B50D4686B000F031F806009B
S1136A1003D12A462146012025E0802D05DA0421F0
S1136A2006F1150012F03AF805E01022214606F1AD
S1136A300D00FEF711FF0120049040210020039077
S1136A4030200290002001904FF4E1600090034652
S1136A50B27F06F10D00FFF781FF00B101202A4645
S1136A60214680F0010006B0BDE8704014F007BD77
S1136A7004460022402115E72DE9F043174689B06A
S1136A8004460D4698460122FFF70CFF06460122F4
S1136A90294620460FF06CFE8146380900F00107B4
S1136AA00822214605A8FEF7D7FEE6B94FF6FE7088
S1136AB081450FD0FFF711FB81450BD000F037F86B
S1136AC0082000F02CF838B301222946204614F09F
S1136AD025FD21E007B300F02AF8102000F01FF88C
S1136AE0D0B1012214E0FFF74EFEB07A00F030007E
S1136AF0302808BF002F0FD1002030607060B072C2
S1136B0002460146002306F10D0014F06FFC00223A
S1136B102946204614F096FC09B0BDE8F0830290A3
S1136B20019100910B464246294605A816E707A89D
S1136B300021002206C0012004900391704780B513
S1136B40002300228021FFF727FE18B1807A400934
S1136B5000F0010002BD30B5044685B004F108051B
S1136B60FDF757FF18B12846FDF7D7FE40E0204651
S1136B70FFF7D2FD002838D02846FDF7C5FEC8B976
S1136B802846FDF7EEFEA8B900A92846FDF7AFFE9A
S1136B9048B32A48007820B1BDF80000B0F57C4F16
S1136BA008D00DF09BFF38B1BDF800004FF630411E
S1136BB0884201D101201BE0BDF800004FF6F071BE
S1136BC00840B0F57C4F0ED1BDF8000001A900F0DB
S1136BD00F0014F041FD402805DB0022402101A8EC
S1136BE0FFF763FE04E0002002E02046FFF7A7FF62
S1136BF005B030BD10B50B4C38B9FD20207005220E
S1136C000020E080601C0E4902E001460822204674
S1136C10FEF722FE012020722046BDE81040FDF759
S1136C2059BF00009C74002086740020D07F00208F
S1136C309875002008650020907B0020A177002033
S1136C40367B002070470268531C03601170704744
S1136C50002214F06FBD002200E0521C8A4203D2CD
S1136C6010F8013B002BF8D110467047C9B200223E
S1136C7003788B4208BF024610F8013B002BF7D182
S1136C801046704762B38B0708D0521E11F8013BBF
S1136C9000F8013B00F024808B07F6D1830740F015
S1136CA0208000BF103A07D330B4B1E83810103A4E
S1136CB0A0E83810F9D230BC530724BFB1E808105B
S1136CC0A0E8081044BF51F8043B40F8043BD20745
S1136CD024BF31F8022B20F8022B44BF0B78037039
S1136CE07047083A07D3B1E80810083A40F8043B63
S1136CF040F804CBF7D25307E4E7000000F18063C7
S1136D0000F1C06019600260704770B50446080065
S1136D1015461E4604BF644814F0F2FD310006D047
S1136D20202E18D0402E18D0602E18D070BD1021FF
S1136D30226822F0600222606943226832432260A2
S1136D404A0802EB4010B0FBF1F02038574901EA41
S1136D50C000606170BD0821EAE70621E8E704216C
S1136D60E6E738B505460800144604BF4E4814F05B
S1136D70C7FD410EC00100F00BF880384C4901EA10
S1136D80000205F11400BDE838404849B6E7002187
S1136D902246002315F074B9CA43520002F00A02D5
S1136DA0C260C160704738B504460D4600F059F81A
S1136DB0A87C18B1206840F080402060E87C18B1BD
S1136DC0287D40F08000A065687BB5F91010084369
S1136DD0B5F90E10084360602B7BAA6869682046E9
S1136DE0FFF793FF2AE038B504460D4600F039F862
S1136DF0A87B08B14FF480602168B5F910201043D6
S1136E0040F0010008432060287D08B14FF0005095
S1136E10216808432060A87C18B1E87C40F0800019
S1136E20A065287B40F480506060AA6869682046A9
S1136E30FFF797FF687B08B11020E060A87DE97D2B
S1136E400007090500F0E04001F4E0010843206672
S1136E50687D18B1206840F4803020602878E060B4
S1136E6031BD40F6AA61C1600021016041F2050113
S1136E704160002181604161C1640E498164002147
S1136E8041678167C1670C49884202D10B4A0021DE
S1136E901160002181650A49884202D10949002014
S1136EA0086070470000000040410500F8FF7F00C3
S1136EB000FF7F00F9FF0100000001405000014085
S1136EC0000401405C04014001690906FCD5FFE7A8
S1136ED0C069C0B2704702695206FCD5416370476D
S1136EE002695206FCD5C16370470000026CD207E8
S1136EF002D4426C0A42FCD1704738B500F007F85E
S1136F00E843400000F00A002843606031BD0D46AC
S1136F1004460221EAE70000890001EB401000F179
S1136F2084400260704710B53024DFF8D4396043E0
S1136F30BDE810401844002208E010B53024DFF802
S1136F40C0396043BDE81040184401220C30E3E727
S1136F501CB500931346049C01940A4601F064F99D
S1136F6013BD72B6DFF89C09016811F1010F1CBF53
S1136F70491C016000687047DFF88819086818B177
S1136F80401E086000D162B670471930017E0229A4
S1136F900FD10278DFF86819007930235A4311447D
S1136FA01C31800000EB411000F184400068C0B245
S1136FB070470020704738B50022DFF84C1901EB08
S1136FC0820149684B7F834203D0521C042AF4D3C4
S1136FD031BD19B301F12E04E07802281ED10D1D34
S1136FE00846FFF7D2FF2874687C022816D100F007
S1136FF002FE15F0BAF988B99DF8000070B1207846
S113700060B9287C08B1607828B1002060702868D5
S113701015F07AF931BD286815F068F931BD10B55D
S1137020044604F1140082B0417F022910D1417852
S11370300A0003D0012906D0017821B9817A807928
S1137040FFF771FF18E0817A8079FFF776FF13E08C
S1137050012911D1007800280CBF112013208DF8CC
S11370600000204600F0F5FE01226946204600F0AB
S11370707BFE204600F03BFF002016BDF8B5044619
S11370800E461546FFF76DFFA088E188884206D3B7
S113709000202860FFF770FFDFF87808F2BD208831
S11370A0142778432044142231460830FFF7EAFDC0
S11370B020887843204408302860208800F01FF896
S11370C02080A088401CA080FFF756FF0020F2BD5E
S11370D038B504460D46FFF744FFA08808B9286078
S11370E027E06088142148432044083028606088E1
S11370F000F005F86080A088401EA08015E0E188BB
S1137100401C90FBF1F201FB1200704738B50546B4
S11371100C46FFF726FFA88808B9206009E06888B4
S113712014214843284408302060FFF725FF00203D
S113713032BDFFF721FFDFF8440932BD90F8321069
S11371400A000BD102680121D16000680169C907F6
S1137150FCD5416F41F0010141677047012909D114
S11371600268516000688168C907FCD5416D41F02F
S113717001014165704790F832100A0008D1016896
S11371804A6F520852004A6702210068C160704782
S1137190012908D10168496D02684908490051650F
S11371A0022100684160704710B500F12C0286B0DE
S11371B00123137093791C0013D10268049002F127
S11371C01C030FF271020392002202924A68019298
S11371D0012200920A680169806815F06CF806B013
S11371E010BD012BE9D000201070F8E710B500F1B4
S11371F02D0286B00123137053791C0012D102684A
S113720034320FF20D1303930490002302934B685E
S11372100193012300930B68C168406815F045F899
S113722006B010BD012B02D102682832E9E7002024
S11372301070F5E770B5144682B0606A00F0EDFC9A
S113724004F12C05DFF83818A879020008D1226867
S1137250126C920504D500F054F84FF4007015E058
S11372600246012A07D12368DB6A1B0603D500F016
S113727048F8802016E0DFF80C1850B92068006C3C
S1137280C00506D500F03DF84FF48070216888648D
S11372900DE0012A09D12068C06A400605D500F036
S11372A030F840202168486301E000F059F8FFF706
S11372B058FE0098C668300009D0009800994068CC
S11372C08968431A0098026801692046B047606AD9
S11372D06946FFF7FDFE606A818821B100F09DFCDC
S11372E000F0F2FD0CE0012020752046FFF797FE28
S11372F000202870687903281CBF2046FFF73BFF55
S11373002AE000980161002000998860704700001D
S113731070B5144604F1280582B0286800F07DFC9D
S113732000F01EF8FFF71DFE0098C668300005D077
S113733000984368026800212046B04728686946DF
S1137340FFF7C6FE2868818821B100F066FC00F0D2
S113735020FE01E000206871FFF70EFE012076BDDB
S113736000990020086100998860704710B9DFF81F
S113737074087047002918BF002A02D0B2F5006FC4
S113738002D9DFF8640870470020704710B503681D
S1137390DFF85848FF22A34240F060810B7A1C00BA
S11373A018BF012B07D0022B18BF032B03D0042BCB
S11373B018BF052B01D100233AE0062B18BF072B79
S11373C004D0082B1CBF092B0A2B01D101232FE069
S11373D00B2B18BF0C2B07D00D2B18BF0E2B03D073
S11373E00F2B18BF102B01D1022321E0112B18BF42
S11373F0122B08D0132B18BF142B04D0152B1CBF31
S1137400162B172B01D1032312E0182B18BF192BAD
S11374100BD01A2B18BF1B2B07D01C2B18BF1D2BEE
S113742003D01E2B18BF1F2B01D1052300E0FF231F
S1137430C3754B7A1C0018BF012B40D0022B1CBF14
S1137440032B042B3BD0052B18BF062B04D0072B92
S11374501CBF082B092B01D1012333E00A2B18BFD1
S11374600B2B07D00C2B18BF0D2B03D00E2B18BFE2
S11374700F2B01D1022325E0102B18BF112B08D0AC
S1137480122B18BF132B04D0142B1CBF152B162B37
S113749001D1032316E0172B18BF182B0BD0192B7F
S11374A018BF1A2B07D01B2B18BF1C2B03D01D2B66
S11374B018BF1E2B01D1052304E01F2B01D100238B
S11374C000E0FF2303760B7A1C003ED0012B18BF8B
S11374D0022B59D0032B1CBF042B052B54D0062B95
S11374E01FD0072B21D0082B23D0092B25D00A2B02
S11374F027D00B2B41D00C2B43D00D2B08BF0823D6
S113750042D00E2B05D00F2B07D0102B09D0112BF6
S113751001D1092338E0122B01D10A2334E0132BC3
S113752001D10B2330E0142B01D10C232CE0152BBB
S113753001D10D2328E0162B01D10E2324E0172BB3
S113754001D10F2320E0182B01D100231CE0192BBB
S113755008BF012318D01A2B08BF022314D01B2BF9
S113756008BF032310D01C2B08BF04230CD01D2BF1
S113757008BF052308D01E2B01D1062304E01F2BCE
S113758001D1072300E0FF23C3764B7A1C003FD0D0
S1137590012B41D0022B43D0032B45D0042B47D0E1
S11375A0052B1FD0062B21D0072B23D0082B25D049
S11375B0092B27D00A2B3FD00B2B41D00C2B08BF13
S11375C0082242D00D2B05D00E2B07D00F2B09D04B
S11375D0102B01D1092238E0112B01D10A2234E009
S11375E0122B01D10B2230E0132B01D10C222CE001
S11375F0142B01D10D2228E0152B01D10E2224E0F9
S1137600162B01D10F2220E0172B1DD0182B01D1EE
S113761001221AE0192B01D1022216E01A2B01D102
S1137620032212E01B2B01D104220EE01C2B01D1FA
S113763005220AE01D2B01D1062206E01E2B01D1F2
S1137640072202E01F2B00D1002202774A7C4276F7
S11376508A7C4277CA7C8276097D5DE1DFF8004747
S1137660A34240F04B810B7A1C0018BF012B07D0BA
S1137670022B18BF032B03D0042B18BF052B01D1F9
S113768000233AE0062B18BF072B04D0082B1CBF9D
S1137690092B0A2B01D101232FE00B2B18BF0C2B34
S11376A007D00D2B18BF0E2B03D00F2B18BF102B98
S11376B001D1022321E0112B18BF122B08D0132B68
S11376C018BF142B04D0152B1CBF162B172B01D15C
S11376D0032312E0182B18BF192B0BD01A2B18BF39
S11376E01B2B07D01C2B18BF1D2B03D01E2B18BF20
S11376F01F2B01D1052300E0FF23C3754B7A1C0027
S113770018BF012B40D0022B1CBF032B042B3BD0F2
S1137710052B18BF062B04D0072B1CBF082B092BE5
S113772001D1012333E00A2B18BF0B2B07D00C2BFC
S113773018BF0D2B03D00E2B18BF0F2B01D1022322
S113774025E0102B18BF112B08D0122B18BF132BB8
S113775004D0142B1CBF152B162B01D1032316E0C8
S1137760172B18BF182B0BD0192B18BF1A2B07D0A7
S11377701B2B18BF1C2B03D01D2B18BF1E2B01D194
S1137780052304E01F2B01D1002300E0FF2303762F
S11377900B7A1C003ED0012B18BF022B59D0032BAF
S11377A01CBF042B052B54D0062B1FD0072B21D034
S11377B0082B23D0092B25D00A2B27D00B2B41D003
S11377C00C2B43D00D2B08BF082342D00E2B05D021
S11377D00F2B07D0102B09D0112B01D1092338E02E
S11377E0122B01D10A2334E0132B01D10B2330E0F7
S11377F0142B01D10C232CE0152B01D10D2328E0EF
S1137800162B01D10E2324E0172B01D10F2320E0E6
S1137810182B01D100231CE0192B08BF012318D019
S11378201A2B08BF022314D01B2B08BF032310D02C
S11378301C2B08BF04230CD01D2B08BF052308D024
S11378401E2B01D1062304E01F2B01D1072300E0E6
S1137850FF23C3764B7A1C0038D0012B39D0022B7E
S11378603AD0032B3BD0042B3CD0052B1DD0062B48
S11378701ED0072B1FD0082B20D0092B21D00A2B78
S113788033D00B2B34D00C2B08BF08223FF4DDAED1
S11378900D2B04D00E2B05D00F2B06D0102B3FF44C
S11378A099AE112B3FF49AAE122B3FF49BAE132BDF
S11378B03FF49CAE142B3FF49DAE152B3FF49EAECB
S11378C0162B3FF49FAE172B17D0182B3FF4A0AE06
S11378D0192B3FF4A1AE1A2B3FF4A2AE1B2B3FF49D
S11378E0A3AE1C2B3FF4A4AE1D2B3FF4A5AE1E2B60
S11378F03FF4A6AE1F2B7FF4A8AEA5E606E0000079
S113790000A000406C700020AC720020DFF8A006DC
S113791010BD00000A7000F08177002010BD10B582
S113792000F1170482B00A00217920781DD00123C8
S1137930042200F0B6FC617960780123022200F091
S1137940B0FCA07E022809D100F034F8E179E07897
S11379500023042200F0A5FC012017E0032827D10E
S113796000F028F8002304221EE0002300F099FC14
S11379706179607800F026F8A07E02280ED100F02C
S11379801FF8E179E07800F01DF800200090012351
S11379900122A179A078FFF7DBFA09E0032807D1D7
S11379A000F00EF800230022E179E07800F079FC81
S11379B0002016BDA179A0780023012200F071BC3B
S11379C0A179A0780023002200F06BBC10B5DFF889
S11379D0E4150A7842B9002301EB8204521C042AFC
S11379E06360F9D301220A70002201EB82035C6810
S11379F0002C18BF844202D15860002010BD521CD4
S1137A00042AF2D3DFF8B00510BD40F8241F00218A
S1137A100368198003685980036899800172426081
S1137A20118042685180426891804172C1727047EE
S1137A3010B5044614F0DFFD607FDFF8801514F004
S1137A40E8FD0020A0752075022060752046BDE881
S1137A501040FFF7E4BA38B5044614F0FDFB0021EA
S1137A60201D14F099FBDFF8585528B9002104F1C2
S1137A70080014F091FB00B1284632BD0B7000F0F1
S1137A800D7000F00C7000F070B50D4686B0040067
S1137A900FF25451684691EC060B80EC060B08BFBC
S1137AA0504852D0002D5ED034212046FFF7D0F844
S1137AB02046FFF78BFF060047D104F13100297CF3
S1137AC00170296821600021417028684749884273
S1137AD03CD1DFF8F0042062DFF8EC04E0604FF4FE
S1137AE040202061EA69A9692046FFF78EFF686893
S1137AF0029001216889ADF81000A889ADF80E0044
S1137B00A87B8DF80C00E87B8DF8120005208DF819
S1137B100D00DFF8B80413F0C3FE00F079F8206A12
S1137B20012113F0BDFE00F066F8FFF73CF9286868
S1137B30DFF89C2403214167816F00F062F88167BC
S1137B4020462946FFF722FC80B148E0DFF81012F6
S1137B50884208D1DFF87C042062DFF87C04E0600E
S1137B604FF45020BDE7DFF8480438E000F040F857
S1137B70A8BBFFF7F6F9287C032810D12868416FC9
S1137B8041F030014167416E41F00401416695F8CE
S1137B90212095F8201041EA0221C16704E002285F
S1137BA004BF2046FFF744FF28684FF0FF3181648B
S1137BB0297C03290CBF05210421FFF7EDF829686E
S1137BC04FF44060C86014F047FB2046FFF743FFC2
S1137BD00646FFF7D1F9002E14BF3046002006B048
S1137BE070BD0000027000F0037000F0000001405E
S1137BF00121204693E600208DF80000694628689C
S1137C00704711402A7A41EA02216A7A1143704787
S1137C100121DFF8C80313F043BE6946FFF776BAC3
S1137C2090F832200021130002D1006801691EE09F
S1137C30012A1CD100688068820748BF0221C2075C
S1137C4048BF41F00101420748BF41F00801020763
S1137C5048BF41F02001C20648BF41F040018206FE
S1137C6048BF41F08001400648BF41F40051084636
S1137C707047406A1EE02DE9FC4104460020009054
S1137C800D46606A818816461F4671B1FFF7C5FF2D
S1137C908046A06801A914F08BFB009828B1B8F1C4
S1137CA0000F02D100F02CF802E0002038603060B0
S1137CB020E0806A8088C0B270472DE9FC41044608
S1137CC0002000900D46A06A818816461F4671B1B7
S1137CD0FFF7A3FF8046606801A914F069FB0098D0
S1137CE028B1B8F1000F02D100F00AF802E0002038
S1137CF03860306028602046FFF792FFBDE8F681C7
S1137D0040680199401A3060019838600098006812
S1137D10704700F11402537F032B02D1DFF8C00235
S1137D2070475170022918BF1170FFF778B910B568
S1137D3000F11602D37E012B01D1022902D1DFF812
S1137D40A00210BD14788C4208D0117011B900F053
S1137D50CEF803E0012908BF00F07BF8002010BD35
S1137D6000040140007D704770B500F0B6F80028AB
S1137D706ED1A16A898804F12E0011B1017800291D
S1137D80F7D00279110002D12168096905E0012ABE
S1137D9018BF00211FD12168896811F002011AD18E
S1137DA013000BD123680422DA60226813699B074D
S1137DB0FCD5536F43F0020353670CE0012A0AD148
S1137DC0236804225A60226893689B07FCD5536D8C
S1137DD043F002035365012282700279130008D034
S1137DE0012A1DD114E013695B06FCD515F8013B8B
S1137DF0536333465E1E2268002BF4D113699B063D
S1137E00FCD50DE09368DB06FCD515F8013B9362C5
S1137E1033465E1E2268002BF4D193681B07FCD501
S1137E20A9B90079010008D12068416F21F002014D
S1137E30416708202168C86009E0012807D120684B
S1137E40416D21F00201416508202168486000204D
S1137E5070BD10B5040082B000D16FE000F067F887
S1137E6080B99DF8000068B194F82E0030B920461E
S1137E70FFF78BF810B9606814F038FA94F82E0004
S1137E80401C5FE05CE0F0B587B000F086F8A0B974
S1137E9000F07BF800F01CF8049700F010F860B9CB
S1137EA0287E48B92046FFF749F900F00DF8687FAD
S1137EB0032801D000F016F8002007B0F0BD6A4690
S1137EC0286901A9FFF7DAB800992046FFF76CB9D1
S1137ED004F1140543480590704704460D461646C0
S1137EE0FFF744BA002028702046FFF798B810B571
S1137EF0040082B000D121E000F019F8B0B994F880
S1137F002E0000281CBF9DF8000000280ED094F815
S1137F102E00012806D12046FFF737F810B9606813
S1137F2014F0F2F994F82E00401E0BE008E0002053
S1137F308DF800006946606814F017BA1E4816BD33
S1137F40274816BD84F82E00002016BDF0B587B072
S1137F5000F023F8B8B900F018F800F024F80497FA
S1137F606A462868FFF7ADFF68B9687950B9FEF72B
S1137F70F8FF2868808818B100F00BF801202872F7
S1137F80FEF7FAFF002007B0F0BD019502960396B4
S1137F90704700992046FFF729B904460D46164656
S1137FA01F46FFF7E3B904F128050E480590704712
S1137FB0037000F0AC720020027000F0B76F000094
S1137FC00E7000F00022040001000C004041050086
S1137FD0E0E0FFFF0032040001000D00002508006E
S1137FE0057000F0017000F00500000000000000C2
S1137FF000C20100000500000010000000000000A5
S113800038B514F052FB604D0446287860B95F48D7
S1138010002141708170A5210170012000F0C3F995
S113802000F0E0F901202870204614F039FB01210A
S1138030574813F035FC574901200860002000F030
S1138040F2F8012304220221052000F02AF901227A
S11380500121042013F094FE012000F0A4F900F0A3
S113806004F800F0BFF9002032BD10B54D484B4C68
S1138070016841F0010101600022C16841F0807192
S1138080C160002348494948086049480260424A9F
S11380901360022323601523464C236000230364EA
S11380A0454B0B65454911604FF480713C4A1160A2
S11380B0016841F48071016010BD3A48006800B164
S11380C00120C0B27047D12202704170090A817048
S11380D03B490A78C270501C0870042070472DE98F
S11380E0F84F80464D1D002714F0F2FA82464FF6F1
S11380F0FF7B344C15E007EB0800594610F8026C7E
S1138100304614F053FB83464F4623480068C007AB
S113811007D527480068C00503D520680028FCD08F
S11381202670FFF7CAFF28B3FFB2EDB2AF4221D2E7
S113813014F0CEFAA0EB0A0080B2B0F5FA7F1FDC8F
S113814017B95B260127E0E7012F07F1010908BFF2
S11381506E1FD9D0E81E874208BF5E46D4D0A81E41
S1138160874208BF4FEA1B26CED0681E8742C2D181
S11381705D26C9E7F8B2EDB2A84208BF002000D0DE
S11381800120BDE8F28F0000D27F0020F07F0020A4
S11381900025080010881442800E00E0F00004E07E
S11381A0040304E0F0ED00E0B00F00E055CEACC5F0
S11381B0000E00E0100004E0FF0300400D00010089
S11381C0D37F0020200000E010B50C460246217841
S11381D000200529A4BF1046FFF781FF0421217068
S11381E010BD0000890001EB401000F184400260E2
S11381F0704700F1806300F1C0601960026070474D
S113820010B53024424B6043BDE8104018440022AE
S113821007E010B530243E4B6043BDE810401844DD
S113822001220C30DEE7704770B50C460F21082C94
S113823015461E4604D2A30000F02FF8354804E08A
S1138240A4F1080200F028F83348FFF7D2FF032115
S1138250082D04F0030004D2AB0000F01EF82F48F0
S113826004E0A5F1080200F017F82D482D4DFFF7A2
S1138270C0FF324621462C48FFF7B4FF049A21463A
S11382802846FFF7AFFF0120A04028612146059A48
S11382902648BDE87040A5E7930000FA03F2994030
S11382A07047F8B50446164630000D461F4607D001
S11382B0002F204602D0FFF7ACFF01E0FFF7A0FF3C
S11382C030210F22124811FB04F1082D084405D275
S11382D0AB00416800F015F8416006E0A5F1080321
S11382E09B00816800F00DF881604EB9002F29468B
S11382F0204602D0BDE8F4408BE7BDE8F4407FE7B8
S1138300F1BD9A4021EA020206FA03F111437047D3
S113831000A0004000A4004004A4004008A40040C1
S11383200CA4004014A4004010A4004028A4004061
S113833003460A4699A10420FFE70CB480B502AABB
S113834000F05CF801BC5DF80CFB21B103460A4661
S113835093A11120F1E7704700B589B012F046FFF0
S113836000210791069105910491039102910191D5
S113837002468C49009100230FF23C210120FFF7B3
S1138380DCFF8948C17843780278039181680291BF
S1138390818801918178009143200FF22821FFF711
S11383A0CCFF09B000BD8149087070470EB410B508
S11383B004467E480078A1B080B1FFF77EFE68B124
S11383C0802200A9022000F0B0F823AB224600214D
S11383D00FF26D10FCF746F900F0D5F821B010BC8F
S11383E05DF810FB0C2200217148FDF797BA704923
S11383F031F81020521C21F8102070472DE9F0416B
S113840007466A480078A2B00C469046002690B908
S1138410002F18BF012F0ED0042F18BF052F0AD02C
S1138420312F18BF332F06D0372F1EBF3B2F4FF6E7
S1138430FF718F4276D1FFF740FE002872D0802270
S113844002A9384600F071F8002C69D007E08DF8D5
S11384500400012201A9002000F072F8641C2078B5
S113846000285DD0A0F130020A2A05D20A2101FBBE
S11384700600A0F13006F1E7422818BF44280CD0CA
S1138480462827D0572808D0622836D0662821D01D
S11384906C281CD070281DD0D9E7422807D158F881
S11384A0042B00A90120FDF774FA01220DE05728DE
S11384B058F8042B00A904D10120FDF76AFA02221E
S11384C003E00120FDF765FA042200A9C3E758F888
S11384D0046BC3E758F8041B462807D10026705CD8
S11384E000281EBF761CF6B2FF2EF8D1F2B200208F
S11384F000F026F8A0B90026B0E758F8047BBFB214
S1138500002FABD0384600F0E9FC0546384600F0B1
S1138510CEFC0146EAB2002000F012F800289DD0FB
S113852000F031F822B0BDE8F08110B5214C616053
S1138530227001466068FFF7C6FD607010BD000040
S1138540F8B515000C461B4E1BD070783178736853
S11385500F1AFFB2BD42B8BF2F463A462146C01893
S1138560FDF77AF970783818ED1B70703C19EDB28C
S11385703DB17068711CFFF727FE0028E5D001208B
S1138580F2BD0020F2BD10B50A4C6068611CFFF713
S11385901BFE08B1012010BD607010BD57460000DD
S11385A06C700000907B002080410300D17F00208C
S11385B0B4740020C07400204242387042424242E7
S11385C057424200424242574442000062F30F22A3
S11385D062F31F42401810F0030308D0C91A1FD3D6
S11385E0DB0748BF00F8012D28BF20F8022D130037
S11385F030B414461546103928BF20E93C00FAD897
S1138600490728BF20E90C0048BF40F8042D890021
S113861028BF20F8022D48BF00F8012D30BC704758
S1138620C91818BF00F8012DCB0728BF00F8012D89
S11386307047000042DE704738B504460D460AF024
S11386400BF814F0F1F814F030F829462046FFF73F
S11386506FFE2B4622460FF2B8110120FCF768FC8E
S113866029462046BDE83440E4E761482DE9F04757
S1138670604D01682E1D4FF420687165016AB16573
S11386805D490A68F26549683166416A7166816AC2
S1138690B166C16AF166016B3167806B706796F8E9
S11386A0340040074CBFF46BB46B14F0BAF90022E9
S11386B0F2648442514A014624BFA2F1200AA24531
S11386C02746316505F19003DFF834C1DFF834E162
S11386D018D3A0693064E4697464746DC4F3080445
S11386E0062C13D1704511D360450FD200884DF686
S11386F04264A0420AD13068586040F20178706840
S1138700986003E000273764776407463E48814257
S113871002D2014600E0091D0846904203D20C68CB
S1138720B4F1CD3FF7D03949081AB06400210020D4
S113873005EB8004401C0628E167F9DB002003E018
S1138740C0B205EB8004E167974223D252F8041DBE
S11387507145F9D36145F7D2CC07F5D5002405EB73
S11387608409D9F87C90894502D0641C062CF6DB78
S1138770062CE9D1002814BF401E0520E0E7B16FA4
S1138780002405EB8402641CD2F88070D767052CA2
S1138790F7DB19600146481EC9B20029EFD1706D9C
S11387A0C0F30800032808D0042809D005280AD0FB
S11387B006280BD00C280FD011E040F6012813E056
S11387C040F6022810E040F603280DE0B8F5206FCB
S11387D00AD140F6042807E040F6052804E018B161
S11387E0312838BF40F607284046BDE8F08700002E
S11387F004ED00E00000002000E300E060580020E9
S1138800DC320300E44300009C0000206058002098
S11388100D0A5B4153534552543A25703A25645D21
S11388200D0A000010B5DFF8504A14F001F9606138
S113883014F0FAF8A0616069E06118B100F007F87B
S1138840652803DABDE8104095219BE010BD10B502
S1138850DFF8244AA069E169884202D2A72100F026
S1138860D4FBA069E169401A4FF6FE71084010BDBF
S1138870DFF8041A4A69904203D3C969884200F0B8
S1138880F3BC00207047002818BFFFF7F1BF012098
S1138890704730B1DFF8E0194969401A4010401CB4
S11388A080B2704728B1DFF8D019496901EB400064
S11388B0801E70474088C004C00CC01C0004800C9B
S11388C04000001D80B2704710B50446FFF7F2FF68
S11388D004EB4000DFF8A0194FF6FF7300E0801CA2
S11388E0CA69904202D202889A42F8D010BDDFF8D9
S11388F08C1908607047DFF884190FF67C30086023
S113890070472DE9F843DFF8705904462889B8B355
S11389106088000434D4DFF864790FF66838386866
S11389200FF6543114F0AAF820B940F26911404608
S1138930FFF782FE002601E0701C86B22889864279
S113894004DB40F26B114046FFF776FED5F8209029
S1138950396859F8360010B949F8361003E014F0B4
S11389608DF80028E8D109EBC605A888401CA8802A
S11389702046FFF79FFFE988400010FA81F0E88065
S1138980BDE8F1830FF6FC20FFF756BE70B5044630
S1138990DFF8E408807801281AD12088FFF782FFE5
S11389A004002FD0022526463046FFF7AAFF708820
S11389B040F40040708036F81500FFF773FF06009E
S11389C002D070880004EFD56D1C042D1ADAEAE792
S11389D0022817D113F069FE05462088FFF762FFCD
S11389E006000AD07088800403D54FF40B7100F0A0
S11389F00CFB30884004400C20802846BDE87040C1
S1138A0013F04EBE70BD00B5ADF2B44D4FF4966296
S1138A1000A900F071F80DF2B44D00BD2DE9F84342
S1138A2007468846FFF746FF450078888004800C97
S1138A307880800422D513F038FE04463846FFF7C8
S1138A4028FF81464046FFF724FF0646AAB239466E
S1138A504046FCF701FF0020DFF81C1806E001EB9C
S1138A60400293894B4508BF9681401C0A78904286
S1138A70F5DB2046BDE8F24313F012BEAAB2394634
S1138A804046BDE8F843FCF7E7BE10B50C4601E0EC
S1138A90FFF71AFFA04202D241880904F8D510BD9D
S1138AA070B5DFF8D4570446A878012804BF686A73
S1138AB000281CD120460EF02AFC022817DB0021D6
S1138AC020460EF035FC0DE0012100F08EFA70B95D
S1138AD03046FFF7E7FE0088C00B08D13146204638
S1138AE00EF053FC0600EFD16C62012070BD2046ED
S1138AF0FFF74CFF002070BD2DE9F74FDFF87847F2
S1138B00002092B0E080606213F0CFFD0121A170DB
S1138B10A188ADF802100021A180E169019113F050
S1138B20BFFD00212089C200206A92B2FCF7F6FE44
S1138B300DF10200FFF72AFF13F0B7FD21786278E8
S1138B405518EDB213F0ACFD4FF0000A06E004EB4B
S1138B5046000C30FFF71AFF06F1010A5FFA8AF6A5
S1138B60AE42F4DB129848B1002501E080476D1C49
S1138B701298EDB250F825000100F7D1D4F8149002
S1138B804FF0000B01250DF1080A0198814502D32D
S1138B90BBF1000F37D0BBF1000F06D0ABF10100E1
S1138BA05FFA80FB5AF82B8004E0C8464846FFF77A
S1138BB08BFE8146B8F8020000F44041B1F5004F45
S1138BC0E3D140F48040A8F80200022638F81600E9
S1138BD0FFF768FE070012D0788801040FD440F430
S1138BE0004078803846FFF78CFEBBF1100FBDBF04
S1138BF04AF82B700BF101005FFA80FB0025761C0C
S1138C00042EE3DBC1E7002DB8D0656A55B128888E
S1138C10FFF748FE4088000447BF002060622846F2
S1138C20FFF7B4FE0020ADF800008246606A00251C
S1138C3090B30088002100F0D8F9ADF8000029466F
S1138C4000F0D3F90646BDF8000000F047F90546E8
S1138C50304600F043F98246BDF85000504518DB19
S1138C60304600F03BF90746304600F020F9014653
S1138C7013983A46FCF7F0FD3046FFF713FE41889F
S1138C808904890C41800022606A31460EF0A6FBFB
S1138C9002E00020ADF800006669B346B0460BE080
S1138CA03088C00B1EBFD6F80E00002811F088FAD9
S1138CB03046FFF709FE06460198864223D2304625
S1138CC0FFF7F8FD81463046FFF7E3FDBDF80010DD
S1138CD0884206D10AEB0500C01C8010400000F158
S1138CE0040970880004DBD55846FFF7D2FD3188AB
S1138CF001F40041084330801FFA89F00BEB400B6C
S1138D0006EB4008D4E70220A0700DF10200FFF743
S1138D103DFE00A8FFF73AFE129860B14FF000093B
S1138D2002E0804709F1010912985FFA89F950F8C5
S1138D3029000100F5D16769B94611E0022639F826
S1138D401600FFF7AFFD20B100884004400C29F85D
S1138D501600761C042EF2DB4846FFF7B5FD81466B
S1138D60C145EBD30BE00746FFF7AEFD4146FFF7E5
S1138D708CFE4845F7D30198814529D137464745AC
S1138D8045D23846FFF7A0FD064678880004F5D59D
S1138D9000F083F8B84204D178888004800C78808D
S1138DA0ECE704D201463846FFF738FEE6E70197C0
S1138DB007E037463046FFF787FD4146FFF765FE7B
S1138DC00646464504D2308800F068F88642F0D35F
S1138DD000F063F801463846FFF720FE0198B946D3
S1138DE0C7E73846FFF766FD06465846FFF751FDCC
S1138DF08146720092B239465846FCF72DFD002296
S1138E0049460DF102000EF09AFA0BEB460B13F0F3
S1138E104CFC064616E021784018401EC0B204EB14
S1138E2040000021878981813846FFF73BFD00F02F
S1138E3004FA002239460DF102000EF080FA60783F
S1138E40401E607060780028E5D10021201D0EF0DE
S1138E50A6FAFFF727FD070006D1BDF80200A0809F
S1138E60C4F81CB00020A070304613F019FC002F89
S1138E70B7D1BDF8000068B10446FFF713FD0AEB53
S1138E8005014180204600F012F813995246281833
S1138E90FCF7E2FC15B0BDE8F08F38884004400CC4
S1138EA000E580B5FFF7FEFCBDE80240EBE410B539
S1138EB0040001D1002010BDFFF7F3FF18B940F200
S1138EC0124100F0A2F82046FFF7ECFC0188C90B20
S1138ED002D0D0F80A0010BD083010BD00B97047A8
S1138EE010B5FFF7DFFC0446FFF7CDFC18B94FF4CB
S1138EF0856100F08AF82088C00B01D0208910BD5C
S1138F006088C004C00C10BD2DE9F04104460D4634
S1138F10FFF7C8FC00F097F818B940F2364100F0AA
S1138F2097F82046FFF7DAFF80463046FFF7CCFC7F
S1138F30454504462DD0454503DB40F23E4100F053
S1138F4087F83088C00B18BF358122D17580304630
S1138F50FFF7B0FC06EB4005661B13F0A6FBC64901
S1138F60CA69944204BFCD61002613F099FBB6B2DE
S1138F70082E06DA32462846BDE8F041FF21FCF708
S1138F80CDBC082200212846FCF7C8FCA6F1080045
S1138F906880BDE8F081F8B507460C46FFF782FC0F
S1138FA006463846FFF79AFF051B8442ADB21BD034
S1138FB0844203DB40F2674100F027F83088C00B9D
S1138FC006D0D6F80A002818C6F80A003481F1BD84
S1138FD03846FFF76CFF22462918FCF73DFC214672
S1138FE03846BDE8F4408FE7F1BD38B50C46FFF7CD
S1138FF059FC0546FFF747FC18B940F2774100F0E9
S113900004F805EB4400808832BD0FF27840FFF786
S113901013BBF8B50C461546FFF744FC00F013F8F3
S113902018B940F27E4100F013F82846FFF73AFCE5
S1139030FFF729FC18B940F27F4100F009F806EB6C
S113904044008580F1BD06460FF23847FFF71BBC8C
S11390503846FFF7F1BA70B5044600260D46002CD9
S113906009E02046FFF73AFF8619B6B229462046A2
S1139070FFF7BBFF0400F4D1304670BD38B5C01C07
S113908080107D4C4500A06AADB218B140F2944105
S1139090FFF7BBFFA069E269821AD203B5EB124F56
S11390A004D2A0EB4500A062012032BD002032BDF5
S11390B071490020886270472DE9F84F0446E01C8E
S11390C0801040006C4D001D0027AE690FF2B43AC9
S11390D0B4F5005F88461FFA80F904DB40F2AB4127
S11390E05046FFF7A9FA13F0E0FA8346E869A96A43
S11390F009B9301A03E0B8F1000F02D0081A46107B
S113910008E0701AC003060C04D140F2D141504665
S1139110FFF792FAB0B2484515D3EF6907EB49005F
S1139120E861A86A28B1B8F1000F04BF00EB490058
S1139130A8627C800020B880F880388004F108019F
S1139140688908186881584613F0AAFA1FB90121E2
S11391501F2011F03DF83846BDE8F24FFFF799BBE8
S1139160F8B504460D46164600210A20FFF7A4FF71
S11391700746FFF797FB0681C0F80A40018841F4CF
S113918000410180C0F80E503846F2BD70B5044667
S11391900D4611462846FFF78FFF0646002C18BFE0
S11391A0002E05D0FFF783FE2A462146FCF754FB28
S11391B0304670BD2DE9F84381460E46144613F03F
S11391C074FA2D4D8046287858B3401E2870C0B2DA
S11391D005EB4000A9788789F9B981813846FFF702
S11391E061FB00F02AF83846FFF761FE3246494633
S11391F0FCF732FB3846FFF75AFE224600213018AE
S1139200FCF78CFB00223946281D0EF098F84046E6
S113921013F046FA0120BDE8F2836878401C6870B8
S1139220E1E7A019012180B2FFF746FF0700DAD178
S1139230404613F035FA0020EDE741884DF6FF7201
S113924011404180704738B513F02FFA04460021CD
S11392500B480EF0A4F80546204613F021FA2846E0
S113926032BD05488188481E8041C00F70470249BD
S1139270002088807047000048740020F0640020BB
S11392804C7400202DE9F0410446884616461F46DA
S11392904046FFF70CFE35184046FFF71FFE56FA0E
S11392A087F1884203DA40F25C51FFF7AEFE97B1D2
S11392B0069818B93A462946204604E001283A4659
S11392C02146284603D1BDE8F041FCF7C5BABDE804
S11392D0F041FCF704BBBDE8F08110B50C46FFF784
S11392E0E6FD205C10BD38B50C461546FFF7DFFDE2
S11392F0255431BD38B50446FFF7F0FD0546204638
S1139300FFF7D5FD2946BDE8384000223EE770B599
S11393100D46691C0446C9B2FFF7DFFF0602294661
S11393202046FFF7DAFF56FA80F080B270BD00B530
S113933083B002238DF80420120A8DF8052001223F
S113934000920A46014601A8FFF79CFF07BD10B52D
S11393500446FFF78DFA10B1A4F1080008E010BD2F
S113936010B5FFF79FFA0446FFF7A4FA04EB400098
S1139370BDE81040FFF78DBAF8B504460D46FFF777
S113938091FA06467088C704FF0C2846FFF78AFA4C
S113939007F00101CF19FFF78DFA07EB40072046CC
S11393A0FFF7DEFFA84203D040F21761FFF72DFE5E
S11393B07780F1BD2DE9F0410C46FFF773FA0546BD
S11393C004F001016888C604F60C06F00100801957
S11393D0001B471AE01C20F00300401900F10808A4
S11393E0BFB22846FFF74FFA08B1A64203D240F2B3
S11393F03161FFF70AFEB44201D0092F01DA0020DF
S11394000EE06C80082200214046FCF787FAA7F1A1
S11394100800A8F802004046BDE8F041FFF739BA59
S1139420BDE8F08170B5044682B02068FFF78FFF75
S1139430ADF80000F0B1FFF735FA00880FF24405EB
S1139440C00B04D040F24A612846FFF7F5F800A8A3
S1139450FFF79CFABDF80000FFF724FA0646FFF771
S113946012FA20B94FF4CA612846FFF7E5F806F16D
S11394700800206073BD0000756E636C61696D65E2
S1139480640000006275666665722D6D616E6167C9
S1139490656D656E742E630010B5DFF89443A01DEE
S11394A0FFF774FA04F10800FFF770FA04F10A00F8
S11394B0FFF76CFA04F10C00FFF768FABDE81040FE
S11394C0DFF87003FFF762BA10B5DFF86423DFF842
S11394D0683314781B78234306D1DFF860331B7894
S11394E00C2B03D0022906D0002010BD012908BF8F
S11394F002F10A0301D002F10803014600221846D2
S11395000DF01DFF03F000F9012010BDDFF820036A
S1139510017919B90121017103F0F6B87047DFF838
S11395201803007800B1704710B500F047FADFF86F
S11395300043E08028B9002104F108000DF02FFF5A
S1139540E080E08828B9002104F10A000DF027FF2B
S1139550E080E088002804BF207800280ED120791C
S1139560022803D013F0CBFAE08038B9207928B16F
S113957013F065FCE08008B10020207110BDAC48F8
S11395804079704780B5A0F10B01102901D3002068
S113959002BDA7494871042000F02AF8012002BD49
S11395A080B5A348017800220129027006D01ED399
S11395B003290BD006D304290CD001BDBDE801401A
S11395C013F028BDBDE8014013F075BDBDE80140AE
S11395D0FCF7C2BE40790FF094FA20B1F5210FF2E6
S11395E07820FFF729F8BDE8014003F08DB801BDEC
S11395F038B5044600F0B1FA8D4D287940B1002009
S11396002871FCF787FD032804BF402010F0EBFD10
S1139610287808B1002032BD89480078052808BFA1
S113962003F022F92C7000F007F818B1FFF7B8FF27
S1139630012032BD022032BD38B513F036F804469D
S11396407B4D05F108000DF05DFEA0B105F10A00A7
S11396500DF058FE78B17A482979007808430AD188
S113966000F006F938B9774801F048FC00F0010031
S113967080F0010500E00025204613F011F828468B
S113968032BD10B513F011F86C490978012902BFF5
S11396906B49097804290CBF0124002413F000F855
S11396A0204610BD10B56649614C00200870E0806A
S11396B0207020816081A081FFF7D9FD13F0B9FEED
S11396C0607013F0B6FEA0705E4801F018FD5E48AD
S11396D001F015FD5D484FF4A0510DF0FFFC002092
S11396E02071BDE8104000F0CAB82DE9F041504D9A
S11396F00446E88828B94FF4C8710FF25C10FEF7ED
S11397009BFF534EDFF83C8130784D4F811F012978
S11397100AD805213970214613F02CFE08B900F04F
S113972010F80020E88002E0EC7000F00AF83078CD
S1139730042804D02879012804BF02202871BDE838
S1139740F081032038700021404601F088BC38B510
S1139750374DE978044600F084F928B9E9782046C1
S1139760BDE834400EF0A2BF31BD2DE9F8430446F4
S1139770FFF79DFB471D05212046FFF7C8FD054661
S113978005F44C48384613F065FEC65D280701D53C
S1139790042E4AD12F4806704FF4406005424FF61C
S11397A0FF7906D0F81CFCF7DFF8484508BF48F0FD
S11397B0400805F44060B0F5006F06D1781DFCF751
S11397C0D3F8484508BF48F01008012E4CF6500065
S11397D015D0022E16D0032E0ED0042E08D0062E3D
S11397E021D0072E08D0082E15D07C2E0ED01CE0D8
S11397F0204600F0A8F8C0B90020BDE8F283B8F50F
S1139800484FF9D0B8F54C4F0FD1F5E7B8F54C4FA8
S1139810F2D08045F8E74CF64040804505D1074832
S113982000780728F0E78045E6D00120E5E700004E
S11398302E7F00207476002094760020706500202E
S1139840E57F00209C66002074650020307A0020AB
S113985059670020E17F00206D61632D61726269A8
S11398607465722E63000000DFF85805FFF78EB8A8
S1139870DFF85405006800B10120C0B2704780B51C
S1139880DFF8480501F03BFCDFF844150020488070
S113989001BD2DE9F041044612F021FF0546DFF831
S11398A034050688204600F028F808B9932022E001
S11398B0DFF81C7500222146B81C0DF040FDDFF8CE
S11398C00C85404601F01EFB10F1010F03D03988CE
S11398D0A819461A04E03D803146404601F0BFFB1A
S11398E0B2B201212046FFF722FD2046FFF7DFFA3E
S11398F00321C1700020BDE8F08110B5044613F0C7
S113990000FEB0F5006F03D0B0F5406F12D018E040
S1139910204613F00CFE13F083FF0821FF2810D01B
S1139920DFF8B424126832F81030194322F810100A
S1139930012010BD204613F0EBFD13F08DFF102124
S1139940ECE7002010BD70B5054613F0C3FD4009D7
S113995000F00104284613F08BFE0646284613F057
S113996080FEB0F5004F03D0B0F5404F06D00BE0B9
S11399703046FBF7F9FF13F053FF02E0304613F0D3
S11399806BFF0146FF2901D1002070BDDFF8383498
S11399901D680122824015431D605CB1DFF8384424
S11399A0246834F811104FF45674214202D05968D7
S11399B01143596006F082FA012070BD70B500F0C1
S11399C0A1F901E000F013F805000ED0FFF76FFADB
S11399D0C6787006F6D52846FFF769FA06F0BF0187
S11399E041F08001C170284670BD002070BD294639
S11399F0A01C0DF0CABC70B5044613F089FD0546E1
S1139A00204613F07EFDB0F5006F03D0B0F5406F33
S1139A1002D024E0012600E0002600222946304638
S1139A2000F019F9C8B9002E284604D0FBF79CFFB2
S1139A3013F0F6FE01E013F00FFF0546FF2D0ED0E4
S1139A40204600F0CAFE40B9DFF88C03006830F805
S1139A5015004FF45071084201D0012070BD002060
S1139A6070BD2DE9F84F81460D46D94E0021B01C3A
S1139A700DF05EFC03E05946B01C0DF086FC5FEA75
S1139A80000B4CD0D945F6D105214846FFF73FFCE1
S1139A9000F00700012804D1484600F09EFE8046ED
S1139AA001E04FF00008002D16BF312D01240024E1
S1139AB012F0FBFD824603215846FFF70EFC14EA20
S1139AC0080F04D00327484600F0A5FE02E000F08A
S1139AD07F00471EFAB203215846FFF704FC88F0C2
S1139AE00100044201D1F8B2A0B912F0DEFD04462F
S1139AF000225946B01C0DF071FC00F0F1F820462C
S1139B0012F0CEFD504612F0CBFD294658460EF019
S1139B10CDFD02E0504612F0C3FD012000E000201C
S1139B20BDE8F28F10B582B012F0D9FDA8490A88B9
S1139B300880821A4FF6FF74ADF8004000A990B275
S1139B4000F0E5F8BDF80010A048A14202D101F0F0
S1139B50D6FA13BD01F083FA13BD00214FF6FF704E
S1139B60D5E02DE9F84F984C2068002871D00025E5
S1139B700126DFF86892DFF868820027BB4612F0FE
S1139B8094FD21680E4209D0F2431140216001275F
S1139B9061680E4202D01140BB46616012F080FD44
S1139BA0002F4ED08C48016831F81520D00748D5D5
S1139BB0D8F8003033F81570BBF1000F07D002F469
S1139BC04673B3F5807F08BF4FF0010A01D04FF010
S1139BD0000ABBF1000F0CD013070AD5380A8DF820
S1139BE001008DF80070012200A9012000F033F873
S1139BF018E0BBF1000F0AD0D00608D5D9F8000050
S1139C0000EBC5010122002000F025F80AE08AF0EB
S1139C1001031BEA030F05D042F4806021F815000C
S1139C2002F072FD284613F032FFCDF800A03B4647
S1139C301A2263A10320FEF780FB5146384610F038
S1139C40C0FA6D1CEDB27600202D02DA20680028DF
S1139C5093D1BDE8F18F2DE9F0470026002889460D
S1139C6019BF02274FF4006808274FF44068584C86
S1139C7015460021A01C0DF05BFB03E06DBB5146B3
S1139C80FFF7B6FE5FEA000A1AD013F03AFC40452B
S1139C90F5D1504613F03CFC01463A464846FBF7E2
S1139CA044FE0028EBD103215046FFF716FB0006C3
S1139CB0E4D40DB9012011E0002EE0D15646DEE7D0
S1139CC0002E18BF002D08D03046FFF7F0F8C178F9
S1139CD041F04001C17002F017FD0020BDE8F0879B
S1139CE038B500F00FF805460021182005F0D1FF23
S1139CF0002D05E02846FFF700FEFFF778FE05007B
S1139D00F8D131BD324C0021A01C0DF011BB2DE95E
S1139D10F04182B0044600200D46ADF8000012F078
S1139D20C4FC80462A4F08E00021B81C0DF037FB24
S1139D300022314600A80DF002FBB81C0DF0E2FA37
