S00D0000636C69656E742E73333768
S113400068610020C1FB020001F7020005F702000D
S1134010A70A090100410000041809AC00208C0023
S1134020000000000000000000000000000000008C
S1134030000000000000000000000000000000007C
S11340400000000000000000FFFFFFFFFFFFFFFF74
S1134050FFFFFFFF00E0030000000000000000007D
S1134060FFFFFFFFFFFFFFFF10FFFFFFFFFFFFFF4B
S1134070FFFFFFFFFFFFFFFFFFFFFFFFFFFFFFFF4C
S1134080F07F002000000000EF7F0020EF7F002081
S113409068610020F0310300F00203009052002018
S10F40A0701700200000040000800020C5
S113410068610020C1FB020001F7020005F702000C
S11341100DF7020009F7020011F702008DF7020003
S11341208DF702008DF702008DF702008DF7020073
S113413015F702008DF702008DF702008DF70200DB
S1134140D3730200894502000FB6010091450200B5
S1134150BD4502009B45020099450200B545020099
S11341601FB2010097B4010061910200DB5100000D
S11341708DF702008DF7020023FB02008DF7020089
S11341808DF70200B9B401008DF702008DF702002B
S11341908DF702008DF702008DF702008DF7020003
S11341A08DF702008DF702008DF70200A54502008D
S11341B0AD450200438902008DF702008DF702002D
S11341C08DF702008DF702008DF702008DF70200D3
S11341D08DF702008DF702008DF702008DF70200C3
S11341E072B67B48016811F1010F1CBF491C0160C4
S11341F0006870477649086818B1401E086000D10D
S113420062B670477349744A01E021B1491E1369CB
S1134210DB07FAD401B9BCE05060012010601069DA
S113422010F0060F05D0410700D5B5E0800700D592
S1134230B5E0002070472DE9F8430D460026002D17
S1134240804637D0002ADFF88C91634C374611D171
S1134250AF422FD258F8040BE0607F1C0820206086
S1134260484601E020B3401E2169C907FAD400285A
S1134270EED11DE0FFF7B4FF0EE0206900F0190055
S1134280102808BF206020690007F6D558F8040BF1
S1134290E0607F1C10202060AF42F4D3FFF7AAFF38
S11342A0484601E020B1401E2169C907FAD408B983
S11342B06FF002063046BDE8F2832DE9F84F474F10
S11342C00D4639680446002041F001019B463960DF
S11342D04FEA92088146AA4602E0B1440AEB860AF4
S11342E0C14516D204EB89063046FFF78BFF08BBA5
S11342F07005400DC0F500608608A8EB0900B042C7
S113430038BF06465A4631465046FFF794FF002808
S1134310E3D021682A68914208D02046FFF772FF53
S113432020B95A4601212846FFF785FF3968490814
S113433049003960BDE8F28F2849264A0B6843F0EA
S113434001030B608860012048604869400704D578
S113435008684008400008601EE04869800704D5EA
S1134360086840084000086019E00220486001E045
S113437022B1521E4869C007FAD422B9086840081D
S11343804000086005E0086840084000086000201C
S113439070476FF0020070474FF0FF3070476FF0C6
S11343A001007047002388E70C48016841F00101CF
S11343B0016046F21A31C1644FF480714160416971
S11343C0C907FCD40021C16400207047000000002C
S11343D0F0700020809698000C000E4008000E40FB
S11343E010B584B002F00F0102911C46C2F3031110
S11343F00191130BC2F30321009102460FF24C0109
S1134400012000F063F80698062807DA0FF260012D
S113441051F820200BA1012000F058F822460FF299
S11344203C01012000F052F8079A0FF23C010120F0
S113443000F04CF804B0BDE8104003A1012000F0E6
S11344404BB80000202573000000000025732025D0
S1134450752E25752E25752E25750000206275692B
S11344606C642025750000002028257329000000B5
S11344704C1103005811030060110300681103007C
S11344806C110300741103004F4948804FF6FF720A
S1134490904204D0020A04D10978084002D00120D5
S11344A070470020704770B50C4615461E46FFF74E
S11344B0EBFF50B132462946012000F0E7F924B160
S11344C0BDE87040012000F0C7B970BD0CB480B5E0
S11344D00A4602AB002104E00CB480B50A4602ABE4
S11344E00121FFF7E0FF01BC5DF80CFB2DE9F84367
S11344F080460E4617469946FFF7C6FFD8B1089C7A
S1134500002510E0825D49464046FFF7DFFFE810D2
S113451005EB10700011A5EB0010062804BF4046FF
S113452000F054F86D1CBD4205DA002C1ABF781B4C
S1134530401E2846E6E7BDE8F18380B500230093DA
S11345401CA3FFF7D3FF01BD10B5002B82B014BF2D
S113455019A31AA300240094FFF7C8FF13BD38B5AC
S113456000E038B500F00CF815A1FFF7AFFF01200B
S1134570009012A3688808222146FFF7B7FF31BDD7
S1134580114D04466888704700B58BB0282200A9F5
S113459000F096FB05E000B58BB02C2300AA00F0D8
S11345A095FB28B10848408800AA06A1FFF78EFFB2
S11345B00BB000BD2563000025782000257800009D
S11345C03E00000025730000E065002080B5FFF781
S11345D05BFF20B1BDE80240012000F0A1BC01BD99
S11345E070B51346101802E0A4192C705B1EDBB2E0
S11345F04BB101F00F060909451E0A2E2846B4BF27
S113460030243724F0E7101870BDF0B5002341B111
S1134610002806D52D210123B0F1004F117018BFD9
S11346204042002100240FF2702555F82470002622
S113463001E0C01B761CB842FBD2F6B2002E08BFC4
S1134640002905D0DBB206F1300199545B1C01212D
S1134650641C092CE9DBDBB230309854581CC0B21E
S1134660F0BD2DE9F24F96B0804613A8019015468F
S113467003A89B4603AE002700248DF800000BE03E
S113468001246D1E0198864205D300F0DDF8002850
S11346905FD100F0D5F86D1C9DF800002978301A20
S11346A000290BD0252903D014B906F8011BE9E72A
S11346B0002C14BF00246D1C29780A0000F0B2807D
S11346C0B1F1250216D00B3A092A40F28D80283A1E
S11346D00ED00A3A12D0521E41D0521E63D0083A6C
S11346E061D0121F3ED0D21E3CD0921E5BD0D21E8F
S11346F071D0C7E7252006F8010BC3E7DBF80000FB
S113470002904FF0000A0BF1040000F1040BD0F802
S11347100090CA45B6D202981AF800100222304618
S1134720FFF75EFF06460198864205D300F08CF839
S113473000280ED100F084F8A9F1010082453CBFA5
S1134740202006F8010B0198864205D300F07CF87E
S1134750002871D100F074F80AF1010AD9E75BF876
S1134760040BC8E706465BF8049B9DF85800F2B2B8
S113477003A9C04700285FD100F062F84FF0000A97
S113478001E00AF1010A5FFA8AFA1AF8090000281E
S1134790F7D19DF8580052464946C04700284BD1EE
S11347A05744FFB26EE76C290AD16A785BF8040BB0
S11347B0752A0EBF00210121642A07D16D1C05E072
S11347C075295BF8040B0CBF002101213246FFF769
S11347D01CFF861956E75BF8041B0222C9B2304657
S11347E0FFF7FEFE06464DE76A780124782A18BFD3
S11347F0582AF8D16D1C0024322904D15BF8041B1B
S1134800042289B2EBE734297FF43AAF5BF8049BC6
S113481004224FEA19413046FFF7E2FE04221FFA50
S113482089F1DDE705469DF85800EAB203A9C047BF
S113483010B9E819C0B200E0002017B0BDE8F08F4D
S1134840F719FFB203AE70479DF80000361A9DF8C1
S11348505800F2B203A9404700A10FE00D0A00007E
S11348600CB438B5044604AA00F010F805462046F6
S1134870FFF7F2FF284632BC5DF80CFB0CB480B5A0
S113488002AA00F003F802BC5DF80CFB80B500F04E
S113489005FFC0B202BD000000CA9A3B00E1F50565
S11348A08096980040420F00A08601001027000067
S11348B0E8030000640000000A0000008D4938E0AD
S11348C080B5014606220FF2D0501EE038B50446EA
S11348D00D4606220FF2C051284600F0C7FF2146BC
S11348E0A81DBDE8344001F04EB838B504460D4665
S11348F0FFF7E6FF28B11DB1A01D01F03AF82880AA
S1134900012032BD80B508227A4901F018F8401E12
S11349108041C00F02BD00B583B000A900F011F8BA
S11349200822754900A801F00AF8401E8041C00F12
S11349300EBD10B500F00DF8207880F00200207054
S113494010BD10B500F005F8E07980F00200E071C8
S113495010BD0C4601460822204601F05AB838B56D
S1134960044601F0B8FB054600A92046FFF7BDFF49
S113497000281CBF4FF6FE70854205D0BDF800002C
S1134980854201D1012032BD002032BD10B504465C
S113499000220F2101F02EF810B1E07B012800D095
S11349A0002010BD10B50C4604F10801FFF78EFF7E
S11349B014E038B504460D4601F0ACFE28B1294692
S11349C004F10800BDE834408FE732BD10B5044659
S11349D00822484904F1080000F048FF2046BDE8D9
S11349E0104001F08BBE10B5044601F093FE17E0B1
S11349F038B504460D4608220FF2A441284600F0BB
S1134A0035FF05F108012046BDE8344091E780B543
S1134A1008220FF28C4178E710B50446FFF7F7FF40
S1134A2038B104F10800FFF74BFF00F0010080F0FB
S1134A30010010BD10B5044601F04DFB4FF6FE71A8
S1134A40884205DA01F047FB2146BDE81040A9E79A
S1134A502046BDE81040B9E710B5044602F079F8E5
S1134A6018B92046BDE8104090E7012010BD017838
S1134A70FF2904BF4178322907D1817829B9C17847
S1134A80402904BF001D01F045BE00207047017895
S1134A90FF2904BF4178332907D1817829B9C17826
S1134AA0402904BF001D01F035BE00207047017885
S1134AB0FF2906BF40780128002070470178FF29AC
S1134AC004BF4078022801D10120704700207047BC
S1134AD038B50446094D08222146281D00F0C6FEBB
S1134AE0214605F11400BDE83840082200F0BEBE9E
S1134AF00000000080770020947B0020A86600203E
S1134B0010B581280B4601DB002010BD802814DA83
S1134B10C408C0F10800012200EBC400E15C02FA01
S1134B2000F0401E21EA0000E054C4F10F02E01836
S1134B3092B20021401C00F0FBFE012010BD2DE9C3
S1134B40F84708B40646180090B08846914611D03C
S1134B5001A8102102F076F826B11022314601A8EE
S1134B6000F084FEB9F1000F06D001A94046FFF71A
S1134B70C7FF002800F09880FF260024FF27009636
S1134B802546A24601A800EB4A0000F0F2FE20B937
S1134B90FF2F08BF5746641C05E0FF2F03D000F029
S1134BA086F8FF2700240AF1010ABAF1080FE9DBAD
S1134BB0FF2F01D000F07BF8012D08BF009600986C
S1134BC005AE00272C180098874201DBA7422CDB96
S1134BD001A800EB470000F0CCFE17B13A2106F81B
S1134BE0011B314600230022950000FA05F52D1320
S1134BF005F00F0C002B08BFBCF1000F01D1032AF4
S1134C000CD10B46591CBCF10A0FB4BF4FF0300E47
S1134C104FF0570EF44483F800C00123521C042AB9
S1134C20E2DB881BC0B2861904E0B84204BF3A2014
S1134C3006F8010B7F1C082FC5DB082C04BF3A20A3
S1134C4006F8010BB9F1000F1CD02F2006F8010B58
S1134C50B8F1640F404605DB3121643806F8011BC6
S1134C60C0B201E00A280ADB0A2190FBF1F101F14C
S1134C70300206F8012B0A2202FB1100C0B23030C8
S1134C8006F8010B002006F8010B05A91A98711A01
S1134C90884208D305A8321A109892B205A900F0E8
S1134CA0E5FD012000E0002012B0BDE8F087009887
S1134CB0FF2802D0E4B2A54201DA0097E5B27047BA
S1134CC080B500920B460022002103E080B50093DA
S1134CD013460122FFF733FF02BD2DE9FE4F0546BF
S1134CE0080090B040D0180001D010003CD065B945
S1134CF010981022002100F01BFE9DF848000028A7
S1134D0002D0119900200870BDE02C21284601F042
S1134D109CFF04462C2C27D205A82C2101F092FFDD
S1134D20A2B2294605A800F0A1FD9DF84800002480
S1134D30D8B12F2105A801F093FF05001FBF04700F
S1134D40451C287800280FD0287870B115F8010B7D
S1134D5000F0D1FE0A2807DA0A2114FB01F151FA06
S1134D6080F4A4B2812CEFDB84E001A8102101F0CF
S1134D7069FF9DF8140000253A28A946AB46A846C9
S1134D800CBF01260026AA4619E082F0010001EAC0
S1134D900902384082F0010210426BD0012E08BF94
S1134DA0002967D029B10AF1010A4FF001098DF8F1
S1134DB000504FF0000BD84600260AF1010A05A85E
S1134DC01AF8000098B33A280CBF0127002700F016
S1134DD092FE05A9514449784A1E9241D20F3A29BC
S1134DE00CBF012100210FB9102843DA102D41D046
S1134DF01EB1022EC9D0C8D3DFE7002F3AD1B8F1D3
S1134E00040F37D04FEA0B1353FA80FB08F101006B
S1134E105FFA80F851EA0200CFD001A81FFA8BF1A3
S1134E20281800F0B0FDAD1CEDB20226C5E7B9F1BB
S1134E30000F15D0C5F110095FFA89F6002E19D0BC
S1134E409DF8001001A80F186A1AD2B23946F01959
S1134E5000F00CFD32460021384600F069FD01E007
S1134E60102D07D19DF8480040B101A9E0B2FFF729
S1134E7047FE08B9002007E011980470102210982A
S1134E8001A900F0F3FC012013B0BDE8F08F00236A
S1134E90002222E7012320E7000000FFFE000000BB
S1134EA0FE80000000000000F0B504468BB00F4601
S1134EB015461E4601201CB90021002000F001FB0C
S1134EC0012C0BD100A80FF29001242201F0E4FE82
S1134ED01020ADF82400ADF8260003E0022C18BF22
S1134EE0032C11D1012E0197ADF80C5008BF4FF4DB
S1134EF0805003D0022E03D14FF44050ADF80A0085
S1134F0000A9204600F0DDFAC0B20BB0F0BD00F0FD
S1134F105BBB80B500F063FBC0B202BD00F0B1BB67
S1134F2080B500F04DFCC0B202BD0CB410B50A4609
S1134F300146002402AB0548FFF793FB00B90124A6
S1134F40204610BC5DF80CFB0000000093570000E5
S1134F50704700F067BC00000000014000C201007F
S1134F600000001000000000020002000300000026
S1134F7000000000000000001E1E0000012100F0DF
S1134F801F029140DFF8982805E0012100F01F027C
S1134F909140DFF87C28400942F820107047012135
S1134FA000F01F029140DFF89028F4E7DFF88C2826
S1134FB0302313FB00200C30890001EB401000F17A
S1134FC0844001210160704781647047C26C22EA09
S1134FD00101C1647047C26C1143C164704772B669
S1134FE0DFF85C08016811F1010F1CBF491C016066
S1134FF000687047DFF84818086818B1401E086058
S113500000D162B67047DFF83C08416821F0020124
S1135010416002210160704780B5DFF82C08016807
S113502029B10168DFF8242811600021016000F033
S11350302BF80B20FFF7A2FF0421DFF81408FFF779
S1135040CAFFDFF8000802210160416841F0020153
S1135050416001BD10B5DFF8F84704212046FFF791
S1135060B3FF04212046FFF7B1FF00F00DF80B2039
S1135070FFF78BFFDFF8D407006810B1DFF8C8171B
S11350800860BDE81040BEE70B2088E7DFF8C427BE
S113509052F82000426892884089401A824201DA1C
S11350A0012070470020704770B50546012D0E465B
S11350B043D1DFF8A04754F825008169086891F8C6
S11350C03210E1B90421FFF77FFFFFF7DDFF00F0A5
S11350D035F83EB10421FFF77EFF0B20FFF74EFFAA
S11350E0052106E00421FFF771FF0B20FFF74DFFB8
S11350F0002100F023F8BDE8704001F025BE042132
S11351004163FFF7C1FF00F019F8816B002E07D04F
S113511041F0040181630B20FFF730FF052106E015
S113512021F0040181630B20FFF72FFF002100F021
S113513005F8BDE8704001F080BE70BD54F825004C
S113514080690068704770B50646DFF80857344632
S113515055F8240011290BD18069002102F028FDA3
S113516055F82410002008733046BDE8704031E142
S1135170132908D18069012102F01AFD55F8241081
S11351800120087370BD006800F084FA55F824000B
S113519001680A8800F06EFA0A8001688A88521C45
S11351A08A80806902F01EFD55F824201368118955
S11351B09B88C91A89B220B9D3898B42A8BF01211F
S11351C005DA012808D1108A814205DB0021BDE8F7
S11351D07040906902F0DEBC70BD80B5DFF87006E7
S11351E00169090606D501F019FEBDE8044001462F
S11351F00120A8E701BD3EB5012804463AD81CBFEA
S1135200022C032C36D1FFF7EAFEDFF8485600F0F3
S113521022F901AB00AA02A902F06EFC55F82400A1
S113522002890099006889B200F025F8FFF7E2FED0
S113523000F011F902F0D6FC01281BD155F8240026
S1135240026801899288891A028A914212DB806974
S113525090F83110022903D102F04CFC022804DA40
S113526055F8240000F0ABF904D100F0F4F8002163
S113527002F090FC37BD70B504460D461646FFF7A4
S1135280AEFEE088A8420DD22188091A11FA85F1F0
S113529091FBF6F206FB12112180A1886918081A05
S11352A0A080E580BDE87040A4E638B504460FF25E
S11352B04103E0892168658A024600FB051000F17C
S11352C00801A06902F025FDA06902F013FC022880
S11352D003DBA069002102F05DFC608AA18A401C06
S11352E090FBF1F201FB1200608231BD000000006E
S11352F0F8B500F069F857F826008169A1422FD16A
S113530002890068A9B2FFF7B6FF57F826100968AA
S11353100020C88001E0FFF7C8FF204602F0EAFB46
S113532003281DDA57F826000368C189428AB3F8B6
S113533004C04A43BCF1000F92B2ECD0B3F802C0EF
S11353401B8889188C45B8BF9A4205DB6345E2D2B5
S11353508C45A8BF9A42DEDA0121204602F01AFCED
S1135360761C042EC7DBF1BD38B505460C46FFF7A5
S113537036FEDFF8E00450F8250041684A88438986
S113538014FA82F292FBF3F503FB15224A8040687B
S11353908188091B8180BDE831402BE6F8B500F017
S11353A013F857F826008169A14209D14068818821
S11353B0A94234BF8188294689B2F0B2FFF7D4FFED
S11353C0761C042EEDDBF1BD04461D460026DFF8F5
S11353D0847470472DE9F041DFF8785484B00446B2
S11353E055F82400017BA1BB41684A8880695118A3
S11353F001F1080600AB01AA02A902F09FFB55F8CF
S11354002400DFF8548441688A88009BD21A019BE7
S1135410D71A4A880988914210D2418980698A1A28
S11354204346314602F0D0FC98B955F8240041684F
S113543040894A88381A171801F1080600F00BF859
S11354404346FAB2314602F0BFFC10B955F82410B5
S11354504873BDE8FF8155F82400806970472DE941
S1135460F0410646012E1CBF022E032E0C461546A3
S113547025D1DFF8E07357F826C09CF80C1019B159
S113548001208CF80D001AE09CF80D1000291CBFB7
S1135490BDE8F041FFF79EBFDFF8BC83DCF81800DD
S11354A04346214602F090FC48B157F82600806933
S11354B043462A46214602F087FC0028F5D1BDE880
S11354C0F0812DE9FC41012807460E4603D800F07F
S11354D0A9F910B971E001206FE03C46DFF874834C
S11354E058F8240008EB8405002F296A0160296913
S11354F041600FF2703131F8141001810FF25C3108
S113550031F81410418104BFBDE8F34102F0B6BC88
S1135510012C1CBF022C032C44D1E96C8161296B42
S1135520B161296CF161F28CB18C8A4204D21C21E4
S113553001F088FB022040E0C181F18C01823146F8
S1135540E86C02F0E1F9C0BBE86C017F007E012346
S1135550022202F0E5FD307C01280AD101213846FF
S1135560FFF7A2FD58F824008069002102F012FB25
S11355700EE058F8240000214182C289018991FB80
S1135580F2F18182FFF791FE58F82400FFF78DFEB7
S1135590012304220521002002F0C2FD0521002080
S11355A0FFF704FD00200190002301200090014634
S11355B00122184602F077FD0020BDE8F6818069DB
S11355C090F831000128704710B50446FFF713FE28
S11355D0DFF8800250F824000068808810BD70B5A0
S11355E0012805460E460AD8FFF705FEDFF8644297
S11355F054F825000068808818B9262070BD012061
S113560070BDFFF7ECFC54F82500006841880818C9
S1135610007A307054F8250001684A8800F02AF8AE
S11356204A8001688A88521E8A80FFF7C8FF02D127
S11356301CE0FFF73AFE54F82500806902F05AFA9C
S1135640022813DA54F825000368C189428A5E8867
S11356501B884A4392B289188E42B8BF9A4205DB2E
S1135660B342E6D28E42A8BF9A42E2DAFFF7C2FC06
S1135670002070BD0389521C92FBF3F603FB162233
S11356807047744951F8200040688088704740682A
S113569019F8011B028810180172704710B501280F
S11356A00BD813460A46014600240FF21500FEF7F4
S11356B0D8FF00B90124204610BD012010BD000010
S11356C02DE9F84F012804468946924605D834B995
S11356D05146484602F077FD42E0012041E0DFF800
S11356E074B15BF8240000F03EF823E0FFF777FC88
S11356F05BF82400FFF7CBFF5BF8240000F03FF8D1
S113570041688A88521C8A8040680088471EBF41CD
S1135710FF0FFFF76FFC67B1701C401BC7B23A461E
S113572000F02AF85BF8240040687D19EDB200F11E
S11357300808761CF6B256450CD200212046FFF725
S1135740A5FC0028D2D15BF82400007B0028F4D00B
S1135750222006E0554503DAAAEB050200F00BF817
S11357600020BDE8F28F40680188081800F108089D
S113577000250026704792B2414620466FE64168F4
S11357800A884389521C92FBF3FC03FB1C220A8007
S1135790704780B50B460128114605D830B9184624
S11357A002F011FD002002BD012002BD1946294B63
S11357B053F820008069BDE8084002F015BA0000E3
S11357C038B5012822D80400224D05D155F824000B
S11357D0406880880028F9D1012C1CBF022C032CBE
S11357E012D155F82400416889880029F9D18069CB
S11357F002F0A0F90028F4D100F00CF88006F0D5EE
S113580000F008F88004ECD5002032BD012032BD40
S113581080E100E055F82400806902F043B90000FB
S113582000E100E00B4951F82000006808B90120AC
S1135830704700207047000080E200E000A00040B4
S1135840F070002024A400406C200E40A06E0020C4
S113585000000140A06400209D53000080008000EF
S1135860800080004000800040004000814233D22C
S113587010185118401E491E10E011F8013900F8A3
S11358800139121F11F8013900F8013911F80139F1
S113589000F8013911F8013900F8013992B2042AEB
S11358A0EBDA92B2002A1EBF11F8013900F801396F
S11358B0521EF6D1704711F8013B00F8013B121F4C
S11358C011F8013B00F8013B11F8013B00F8013BE2
S11358D011F8013B00F8013B92B2042AEBDA92B2D0
S11358E0002A1EBF11F8013B00F8013B521EF6D1FD
S11358F0704710E011F8013B00F8013B121F11F84A
S1135900013B00F8013B11F8013B00F8013B11F8A1
S1135910013B00F8013B92B2042AEBDA92B2002A6E
S11359201EBF11F8013B00F8013B521EF6D170472F
S1135930130003D00A46194602F086BD704710B51D
S113594000E0521E92B222B100F005F8F9D0181B03
S113595010BD002010BD10F8013B11F8014BA3420B
S11359607047000041780078090251FA80F080B253
S113597070470178407800EB012080B270470170D5
S1135980090A417070470A0A02704170704710B5E5
S11359900023002814BF1C46C3F10304E4B25B1CBB
S11359A06254120A042BF4DB10BD30B50024002825
S11359B014BF2546C4F10505EDB2641C6A54120AED
S11359C042EA03621B0A062CF1DB30BD30B54A788B
S11359D08B78CC78097818B120461D460C4602E035
S11359E0154608461A4645EA002044EA022141EADF
S11359F0004030BD10B5002300E05B1CDBB28B42DD
S1135A0005D210F8014B9442F7D0002010BD0120BC
S1135A1010BD10B5002304E0541EE41A645C1C5449
S1135A205B1C9342F8DB10BD10B5002480B14FF627
S1135A30FF7202E0944206D0641CA4B2235C002BE3
S1135A40F8D1944204D176210FF2CC0002F032FD59
S1135A50204610BD10F8012B11F8013B0AB19A42FF
S1135A60F8D0D01A40B2704730B5994228BF1946D1
S1135A70002303E00833401C521C9BB203F10804CA
S1135A80A14203DB04781578AC42F3D08B420DDAE3
S1135A90007812785040C0438024C0B202E05B1CFE
S1135AA064089BB28B4201DA0442F8D1184630BD37
S1135AB0F8B555052D0E02F0070704460E462A4692
S1135AC0FFF7D4FE47B1FF20295DAA5DF8400140ED
S1135AD022EA000008432855F1BD00210FF24C02D0
S1135AE0002805E000F00F039B5C5918C9B20009B7
S1135AF0F8D1084670476128A8BF572107DA412822
S1135B00A8BF372103DA3A28B4BF30210021401A54
S1135B10C0B2704700000000627974652D75746925
S1135B206C69746965732E63000000000001010252
S1135B3001020203010202030203030480B50FF20F
S1135B40341002F00EFE03F0E1FB0FF2341002F009
S1135B5008FE03F0C3FD0FF2381002F002FE04F059
S1135B607BF80FF2381002F0FCFD04F0A9F9B9A09B
S1135B7002F0F7FD04F0B2FD0FF2341002F0F1FD73
S1135B80DFF8D80802F03CFE0FF2341002F0E9FD11
S1135B9004F04CFF0FF2301002F0E3FD05F006F8BC
S1135BA00FF2301002F0DDFDDFF8B40802F028FE39
S1135BB00FF2341002F0D5FDDFF8A80802F020FE41
S1135BC00FF2341002F0CDFDDFF89C0802F018FE4D
S1135BD00FF23C1002F0C5FDDFF8900802F010FE51
S1135BE00FF2441002F0BDFDDFF8840802F008FE55
S1135BF00FF24C1002F0B5FD05F0DCF80FF2541072
S1135C0002F0AFFDDFF86C0802F0FAFD0FF2581055
S1135C1002F0A7FDDFF8600805F09EF90FF25C10B2
S1135C2002F09FFD05F06AFD0FF2581002F099FD95
S1135C3006F0E7F80FF2541002F093FD06F0C5F9F0
S1135C400FF2581002F08DFDDFF8680902F0D8FD5C
S1135C500FF2581002F085FDDFF85C0902F0D0FD68
S1135C600FF2681002F07DFD06F0DEF9BDE8014098
S1135C7002F07BBD4D41432061726269746572001C
S1135C804D414320696E64697265637400000000CD
S1135C907265747279207461626C6500364C6F575A
S1135CA050414E20667261676D656E74730000002A
S1135CB06D756C746963617374207461626C6500E2
S1135CC077616B65757000006170706C69636174F5
S1135CD0696F6E00666F726D2D656E657267792DE2
S1135CE07363616E000000006E6574776F726B20E1
S1135CF06461746100000000736C656570792062F2
S1135D00726F6164636173742068656164657200B5
S1135D10676C6F62616C2061646472657373207474
S1135D2061626C650000000065787465726E616C78
S1135D3020726F757465207461626C6500000000E8
S1135D4044484350206164647265737320746162D3
S1135D506C6500006368696C6420616464726573D7
S1135D6073207461626C6500737461636B20657683
S1135D70656E74207175657565000000436F415050
S1135D80000000004A50616B650000004D61726BB9
S1135D902046756E6374696F6E730000436F6D6D9A
S1135DA0697373696F6E696E670000007363616E77
S1135DB020726573756C747320666F7220636F6DE7
S1135DC06D697373696F6E657200000044544C53BF
S1135DD0204A6F696E00000070B5DFF87C46054606
S1135DE0E0882A0601D4062D04D140F0040005F011
S1135DF07F0503E011B94FF6FB7108402E46022ED1
S1135E001CBF032E042EE08008D0052E0DD0062ED4
S1135E1018BF072E02D0EA2100F052F9A570A0782D
S1135E2004280CBF0120002001E00325F6E706F05A
S1135E30EDFCE0884FF6F4710840062E08BF40F0F0
S1135E40020004D0022E14BF032E40F00800E080AC
S1135E5070BD00005544500010B5F2B006F0FEFCD1
S1135E6003F05AFF07F05BF909F0A9F909F009FCFE
S1135E7009F018FE09F056FE0AF025FB00F05BFC61
S1135E8000F062FC0AF00EFE0BF02AFD01200CF07B
S1135E90CAFC0CF0B1FF03F03FFB0CF0C8FFDFF8C5
S1135EA0CC470020A0704FF6FE700CF084FD00205B
S1135EB0E0800DF0C3F80DF0F5FA0FF0A2F810F041
S1135EC097F905F027FEBC237F22082142A811F090
S1135ED001F800F012F901A80FF0FDFEBDF854011D
S1135EE04FF6FF71884236D0BDF8040098BB0823F2
S1135EF042AA0E210DF106000DF082FB102344AAE4
S1135F0003210DF07DFB082348AA02210DF078FB44
S1135F1008234AAA07210DF073FB10234CAA05217C
S1135F200DF06EFB0FF0DAF8BDF8542101210DF0ED
S1135F3043FBDFF8402700210FF0BFF8032357AAE3
S1135F4000210DF05DFB0DF10601401AADF80400CF
S1135F5001A80FF035FFBDF8040000281EBF9DF80E
S1135F60020000280120002100F0D6F872B010BD14
S1135F7038B5DFF804170020088002F08DFB01F02B
S1135F807DFFDFF8F8060FF220744168C90703D5D6
S1135F90006810F0300F10D10FF218752946002058
S1135FA0FEF7C3FF29460120FEF7BFFF2046BDE8E8
S1135FB034404FF4D47102F07DBA10F069FF20B17F
S1135FC040F2AD11204602F075FA02F003F9DFF851
S1135FD09C460FF2FC6011F087F8607004F1080031
S1135FE004F0F7FEDFF8981600200860DFF8941636
S1135FF0086011F0FAF804F0D8FDFFF72DFF002037
S1136000BDE8324004F0BBBD38B50446DFF85C5649
S11360100CF08EFB20B1A888002814BF01200220B8
S1136020207003F043FA10B903F065FA58B103F095
S113603052F840B100F009F828B105F10800BDE8B4
S1136040324004F04FBF002032BDDFF83C0611F0AF
S1136050EBB810B5DFF83406007818B10FF22C0055
S113606002F00BFC11F0E8FA11F051FB11F0F0FC16
S113607003F0B1FCDFF8F44504F1080004F03EFF3E
S11360806078BDE8104011F056B800003D5B000098
S113609000000000DFF8D405407811F04CB880B55A
S11360A003F004FA18B940F22B2100F009F80CF0BF
S11360B065FA00200CF034FEBDE8014003F011B88D
S11360C00FF2E45002F0F6B980B50CF05CFBBDE8C9
S11360D002400CF0A8BB0CF066BCDFF8901589797F
S11360E0890758BF0CF053BC70470CF060BC0CF02F
S11360F062BC12F0D9BC0068009004237F220C21FA
S113610000A810F0E7BE12F0BEBCDFF884057047AB
S1136110DFF858050078704770B50446DFF84C0581
S1136120067804700D46C188032C05D141F4004162
S1136130C1800BF093FB06E04904490CC18014B9FB
S1136140012006F063FB2A4631462046BDE8704034
S113615012F0F0BCF8B506464E220021FFF7E8FB2A
S1136160DFF8F4522878012806F1280421D0DFF85A
S113617024751022B91C3046FFF778FB06F1100095
S113618000F0BCFA06F1180000F0D2FA082207F178
S1136190120106F12000FFF769FB0CF008FC3085C2
S11361A012F071FCA070A878E07012F06FFC2071FE
S11361B0F1BD0EF0F1FE0746102207F1140130463E
S11361C0FFF754FB082207F1240106F12000FFF732
S11361D04DFB082207F12C0106F11000FFF746FBE6
S11361E0B7F858003085042397F86200A0707F2226
S11361F00FF2E44000680090FFF781FF9DF8030070
S113620020719DF80200E070A878032804D1A879D1
S113621000075CBF0520E070F1BD2DE9F0410400EA
S11362200D4604D12846BDE8F041FEF7CFBB012856
S113623004D1DFF85C04FEF7DBFB20E0022820DB5E
S1136240DFF8288202260021404611F003F804E01A
S1136250761C3946404611F02AF8070011D002F0A6
S113626060FD00281CBF41680029F1D0F6B2A642A7
S1136270EED100F10D0110222846FFF7F7FA0120B4
S113628000E00020BDE8F0812DE9F04204460D460F
S1136290764E0021304610F0DDFF1EE002F041FD95
S11362A0070016D0B87A800613D5002C18BF002D2D
S11362B008D02B462246294607F10D00FFF7D4FBF0
S11362C0A84206D1BB7A7A68396807F10D0012F04A
S11362D033FC4946304610F0EAFF5FEA0009DDD19D
S11362E0BDE8F0823EB5614C0021204610F0B2FFBB
S11362F016E002F016FD78B1817AC9070CD5416821
S1136300029100F10D020168019100210091437F87
S1136310017BC07A12F021FC2946204610F0C7FF09
S11363200500E6D137BDAA210170BB2100F8011F89
S1136330CC2100F8011FDD2100F8011F704710B5C2
S1136340044612F0BEFD20B92046BDE8104009F015
S1136350E7BE10BD00B5F7B04FF48172002135A837
S1136360FFF7E6FA35A80FF02BFD35A80FF02AFD4C
S1136370BC22002106A8FFF7DBFA4FF6FF70ADF848
S11363806400BC2306AA7F21082010F0B3FD042278
S1136390002100A8FFF7CCFA00F02BF80822002116
S11363A004A8FFF7C5FA082304AA7F21052010F0EA
S11363B0A1FD0822002102A8FFF7BAFA082302AAC5
S11363C07F21072010F096FD08F04EFF00208DF885
S11363D00400042301AA7F21032010F08BFD26482A
S11363E004F004FDFFF738FD002013F0F3FC77B050
S11363F000BD042300AA7F210C2010F07BBD0021E6
S1136400DFF8940204F0BDBD38B5DFF88C5228469D
S113641004F007FEDFF88402DFF8844200780C28D9
S113642010D02068142804D1012013F0D3FC0020DC
S113643006E04FF4FA71284604F0A3FD2068401CDE
S1136440206031BD002020600320BDE8324003F00D
S113645009B813F037BF0000907400201C7F00209F
S113646098750020A87700202A7F0020B6740020A9
S1136470127F0020147F00209874002030B57B4CDC
S11364802078032887B065D0012803BF83480078AB
S11364900C28702078D108237F22052105A810F04C
S11364A019FD05A8FEF70AFA08237F22072103A88D
S11364B010F010FD082203A96D48FFF7D7F908234F
S11364C07F22062101A810F005FD01A80CF0B0FC04
S11364D00EF0BCFD0EF060FD054695F8620002F07A
S11364E08BFFB5F858000CF066FA05F11400FFF7BD
S11364F09BFAC1B205F114000BF0D8F905F12400A0
S11365000BF0A4F905F12C0000F072FB0FF2CC1093
S1136510FFF7F1FDBDF80000FFF7DFFD9DF9030073
S113652012F0C2FA9DF8020000F032F80AF015F8F1
S113653008F0A4FE0AF087FDA07806280BD10021FC
S11365400320FFF7E9FD0AF083FD0122002100206A
S113655008F06DF917E00CF026FA800502D10BF073
S113656086FE10E0A078032818BF042804D002286F
S113657005D1A079C00702D40BF0BEFE03E040F2BF
S11365800151FFF79DFD002013F08FFA07B030BDD5
S11365900021FFF721BC80B50FF0C2FE0CF082FF92
S11365A03248807806281CBFBDE8014006F0D0B907
S11365B001BD0000FC7400201475002000B59BB0E0
S11365C007A8502100F03EFB07A8FFF7C3FD0FF218
S11365D01010006800909DF848008DF803000CF03E
S11365E0E2F9ADF8000000AA20488078062818BF18
S11365F09DF847008DF8020004237F210C2010F041
S113660079FC0FF2E00005A9D0E90023CDE90523C8
S11366102448FEF796F9082305AA7F21052010F0E7
S113662069FC0FF2C8001249D0E90023CDE9032325
S113663003A80822FFF71AF9082303AA7F210720D9
S113664010F058FC0FF2AC001149D0E90023CDE959
S1136650012301A80822FFF709F9082301AA7F21D1
S1136660062010F047FC1BB000BD00009074002011
S1136670A875002000F8FF075E740020E881E00F91
S11366807C7B0020487400203C7F0020F0650020C3
S1136690947B0020287B0020FC6500207C66002081
S11366A0A87400208077002069702D737461636B77
S11366B02E630000537461636B2F486172647761C9
S11366C07265204D69736D617463680D0A00000082
S11366D000000000000000000000000000000000B6
S11366E000000000000000000000000000000000A6
S11366F000000000000000000000000080B5DFF88A
S113670020150A7A22B10822FFF7B0F8012002BD51
S1136710002002BD80B5DFF808150A7A32B10822DC
S1136720FFF70DF9401E8041C00F02BD002002BDDD
S1136730704700207047DFF8E804002101724181AE
S113674008220C30FFF7F4B8DFF8D4140020488195
S113675070471FB5DFF8CC040078000710D4DFF8C9
S1136760C844207801280BD100A9DFF8C004FEF743
S11367703FF9012100A808F0BEF908B100202070FB
S11367801FBDDFF8A414012008706421DFF8A00401
S113679004F0F7BB2DE9F84B08B404468B46DFF848
S11367A0808416460127002108F10A0010F052FDEA
S11367B009E0A87A3040B04221D07F1C494608F154
S11367C00A0010F074FD5FEA00091AD002F0A9FA79
S11367D0002E0546EDD11CB9BFB25F45EDD10EE0E8
S11367E05B4605F10D02594600F022F85845E4D104
S11367F09DF8000000281CBF687F8345DDD1284632
S113680000E00020BDE8F68BF8B500F02CF801E0BC
S113681000F024F8070006D002F083FA00F004F830
S1136820A842F5D128E0F1BD00F10D022B4629461E
S11368302046FFF719B9F8B500F015F801E000F0AB
S11368400DF8070009D002F06CFA817AC907F6D571
S1136850FFF7EAFFA842F2D10EE0F1BD394606F196
S11368600A0010F024BD04460D46DFF8B46300218D
S113687006F10A0010F0EEBC394606F10A00BDE844
S1136880F840002210F03CBD1346012282E780B597
S1136890FFF7FAFF18B1C07A400800F0010002BD0A
S11368A01346002276E780B50022FFF7F9FF30B1E6
S11368B0807A00F00300032801D1012002BD0020EA
S11368C002BD38B504460D462846FEF7A0F8D0B9F7
S11368D02846FFF71FFF70B100212846FEF769F82C
S11368E028B1FFF7F8FB2146FEF75CF832E02046BA
S11368F0FEF76CF82EE02878FF2813D16878032877
S113690001DB322805D12146DFF82803FEF770F8B1
S113691020E0062801DB332814D12046BDE83240AC
S1136920FEF754B8002240212846FFF7B9FF10B102
S1136930817A890608D40021002320220846FFF723
S113694029FF08B9002032BD00F10D0110222046B4
S1136950FEF78CFF012032BD2DE9F84315461E4693
S113696080460C4601230022FFF714FF070023D1C1
S1136970AB4F07F10A0010F05CFC082806DA00218E
S1136980282002F0D3FA5FEA000901D1002035E0A3
S11369900022494607F10A0010F063FC484602F061
S11369A0C0F9074628220021FEF7C2FFBD777C7795
S11369B0802C04BF402078771022414607F10D0057
S11369C0FEF754FF002038810A9CBC720B98F872C1
S11369D00C983873099921B1082207F11F00FEF7BA
S11369E045FFA00609D53E602346089A7A603146E1
S11369F0404613F08BFDFFF7C4FE3846BDE8F28332
S1136A0070B50D4686B000F031F8060003D12A4671
S1136A102146012025E0802D05DA042106F1150028
S1136A2011F0CEFF05E01022214606F10D00FEF71D
S1136A301DFF01200490402100200390302002908B
S1136A40002001904FF4E16000900346B27F06F10C
S1136A500D00FFF781FF00B101202A46214680F096
S1136A60010006B0BDE8704013F099BD0446002251
S1136A70402115E72DE9F043174689B004460D4639
S1136A8098460122FFF70CFF0646012229462046BC
S1136A900FF000FE8146380900F001070822214664
S1136AA005A8FEF7E3FEE6B94FF6FE7081450FD068
S1136AB0FFF711FB81450BD000F037F8082000F0F8
S1136AC02CF838B301222946204613F0B5FD21E005
S1136AD007B300F02AF8102000F01FF8D0B101220B
S1136AE014E0FFF74EFEB07A00F03000302808BF03
S1136AF0002F0FD1002030607060B0720246014652
S1136B00002306F10D0013F001FD00222946204662
S1136B1013F028FD09B0BDE8F083029001910091C3
S1136B200B464246294605A816E707A8002100227D
S1136B3006C0012004900391704780B50023002211
S1136B408021FFF727FE18B1807A400900F0010088
S1136B5002BD30B5044685B004F10805FDF757FFC2
S1136B6018B12846FDF7D7FE40E02046FFF7D2FDD6
S1136B70002838D02846FDF7C5FEC8B92846FDF7D9
S1136B80EEFEA8B900A92846FDF7AFFE48B32A488F
S1136B90007820B1BDF80000B0F57C4F08D00DF0AE
S1136BA02FFF38B1BDF800004FF63041884201D1C3
S1136BB001201BE0BDF800004FF6F0710840B0F56D
S1136BC07C4F0ED1BDF8000001A900F00F0013F0B6
S1136BD0CFFD402805DB0022402101A8FFF763FE1A
S1136BE004E0002002E02046FFF7A7FF05B030BD17
S1136BF010B50B4C38B9FD20207005220020E08030
S1136C00601C0E4902E0014608222046FEF72EFED3
S1136C10012020722046BDE81040FDF759BF000056
S1136C20AC74002096740020D17F0020A875002049
S1136C3008660020947B0020A57700203A7B002082
S1136C4070470000002213F0FDBD002200E0521C3A
S1136C508A4203D210F8013B002BF8D1104670474A
S1136C60C9B2002203788B4208BF024610F8013BE8
S1136C70002BF7D11046704762B38B0708D0521E21
S1136C8011F8013B00F8013B00F024808B07F6D19A
S1136C90830740F0208000BF103A07D330B4B1E836
S1136CA03810103AA0E83810F9D230BC530724BF8A
S1136CB0B1E80810A0E8081044BF51F8043B40F8BC
S1136CC0043BD20724BF31F8022B20F8022B44BF27
S1136CD00B7803707047083A07D3B1E80810083AF4
S1136CE040F8043B40F804CBF7D25307E4E7000034
S1136CF070B50446080015461E4604BF404813F00C
S1136D0082FE310006D0202E18D0402E18D0602EDE
S1136D1018D070BD1021226822F0600222606943FD
S1136D202268324322604A0802EB4010B0FBF1F0C3
S1136D302038344901EAC000606170BD0821EAE7E7
S1136D400621E8E70421E6E7CA4302F005025200FF
S1136D50C260C160704738B504460D4600F02EF895
S1136D60A87C18B1206840F080402060E87C18B10D
S1136D70287D40F08000A065687BB5F910100843B9
S1136D80B5F90E10084360602B7BAA686968204639
S1136D90FFF7AEFFFFE7A87DE97D0007090500F0D6
S1136DA0E04001F4E00108432066687D18B12068E2
S1136DB040F4803020602878E06031BD40F6AA615C
S1136DC0C1600021016041F2050141600021816040
S1136DD04161C1640C498164002141678167C167D5
S1136DE00A49884202D10A4A0021116000218165C2
S1136DF00849884202D10849002008607047000011
S1136E0040410500F8FF7F00F9FF01000000014048
S1136E1050000140000401405C040140016909067E
S1136E20FCD5FFE7C069C0B270470000026CD2070E
S1136E3002D4426C0A42FCD1704738B500F007F81E
S1136E40E84300F0050045EA4000606031BD0D46AE
S1136E5004460221EAE70000890001EB401000F13A
S1136E6084400260704710B500F00CF8BDE8104093
S1136E70002205E010B500F005F8BDE8104001223D
S1136E800C30E9E7DFF80439302414FB0030704794
S1136E901CB500931346049C01940A4601F003F9BF
S1136EA013BD72B6DFF8E808016811F1010F1CBFC9
S1136EB0491C016000687047DFF8D418086818B1ED
S1136EC0401E086000D162B6704700F119010A7EC5
S1136ED0022A0FD1407EDFF8B4280979302313FB4E
S1136EE000201C30890001EB401000F18440006850
S1136EF0C0B270470020704770B582B00021DFF83F
S1136F00942802EB81025468627F824203D0491CB8
S1136F100429F4D373BD14B304F12E05E8780228D0
S1136F201DD1261D2046FFF7D0FF3074707C022847
S1136F3015D100F0E7FE90B99DF8000078B194F8FF
S1136F402E0060B9307C08B1687828B100206870E0
S1136F50606814F00BF973BD606814F0F9F873BD40
S1136F6010B5044604F1140082B0417F02290FD108
S1136F70417819B1012906D0217D21B9817A80791E
S1136F80FFF771FF18E0817A8079FFF773FF13E050
S1136F90012911D1207D00280CBF112013208DF868
S1136FA00000204600F094FE012200A9204600F0D3
S1136FB01BFE204600F0DEFE002016BDF8B5044698
S1136FC00E461546FFF76DFFA088E188884206D378
S1136FD000202860FFF770FFDFF82409F2BD208845
S1136FE0142707FB0040142231460830FFF744FE03
S1136FF0208807FB004008302860208800F01AF839
S11370002080A088401CA080FFF756FF0020F2BD1E
S113701038B504460D46FFF744FFA08800B925E0C3
S113702000F01DF8608800F005F86080A088401E1C
S1137030A08010E0E188401C90FBF1F201FB1200FB
S1137040704738B504460D46FFF72BFFA08800B9FA
S11370500CE000F004F8FFF72FFF002032BD608839
S1137060142101FB00400830286070472860FFF7B6
S113707023FFDFF8900832BD90F8321059B9026846
S11370800121D16000680169C907FCD5416F41F055
S1137090010141677047012909D102685160006804
S11370A08168C907FCD5416D41F001014165704714
S11370B090F8321041B901684A6F520852004A6789
S11370C002210068C1607047012908D10168496D37
S11370D0026849084900516502210068416070470F
S11370E000B585B0012280F82C2090F832209AB99E
S11370F00268049002F11C030FF271020392002251
S113710002924A680192012200920A680169806829
S113711014F002F805B000BD012AE9D0002180F87E
S11371202C10F7E700B585B0012280F82D2090F8E7
S1137130322092B9026834320FF21113039304908F
S1137140002302934B680193012300930B68C168E9
S1137150406813F0D5FF05B000BD012A02D10268D2
S11371602832E9E7002180F82D10F4E770B51446C1
S113717004F1140582B0286900F091FCA87FDFF8BF
S1137180E01840B92268126C920504D500F057F853
S11371904FF4007015E00246012A07D12368DB6A28
S11371A01B0603D500F04BF8802016E0DFF8B41876
S11371B050B92068006CC00506D500F040F84FF4C3
S11371C08070216888640DE0012A09D12068C06AB2
S11371D0400605D500F033F840202168486301E0FB
S11371E000F05BF8FFF75DFE0098C668300009D038
S11371F00098009940688968431A009802680169F8
S11372002046B047286900A9FFF702FF2869818852
S113721021B100F044FC00F096FD0CE00120207543
S11372202046FFF79DFE00202876687F03281CBFB8
S11372302046FFF73DFFFFF73FFE012076BD009893
S113724001610020009988607047000038B5144639
S113725000A9A06AFFF7F5FE00F01FF8FFF721FE72
S11372600098C568280005D000984368026800218A
S11372702046A847A06A00A9FFF7CAFEA06A818831
S113728021B100F00CFC00F0C0FD02E0002084F805
S11372902D00FFF711FE012032BD00990020086186
S11372A000998860704710B9DFF8D4077047002947
S11372B018BF002A02D0B2F5006F00D963E20020A3
S11372C0704710B50368DFF8A847FF22A34240F0D7
S11372D063810B7A002B45D0012B18BF022B04D0FD
S11372E0032B1CBF042B052B01D100233AE0062BF2
S11372F018BF072B04D0082B1CBF092B0A2B01D164
S113730001232FE00B2B18BF0C2B07D00D2B18BF1C
S11373100E2B03D00F2B18BF102B01D1022321E019
S1137320112B18BF122B08D0132B18BF142B04D009
S1137330152B1CBF162B172B01D1032312E0182B7E
S113734018BF192B0BD01A2B18BF1B2B07D01C2BC3
S113735018BF1D2B03D01E2B18BF1F2B01D10523D3
S113736000E0FF23C3754B7A002B46D0012B18BFD6
S1137370022B3FD0032B18BF042B3BD0052B18BF87
S1137380062B04D0072B1CBF082B092B01D101238A
S113739033E00A2B18BF0B2B07D00C2B18BF0D2B77
S11373A003D00E2B18BF0F2B01D1022325E0102B85
S11373B018BF112B08D0122B18BF132B04D0142B79
S11373C01CBF152B162B01D1032316E0172B18BF56
S11373D0182B0BD0192B18BF1A2B07D01B2B18BF37
S11373E01C2B03D01D2B18BF1E2B01D1052304E039
S11373F01F2B01D1002300E0FF2303760B7A002B1F
S113740018BF012B5CD0022B18BF032B58D0042BC0
S113741018BF052B54D0062B1FD0072B21D0082BC7
S113742023D0092B25D00A2B27D00B2B41D00C2B92
S113743043D00D2B08BF082342D00E2B05D00F2BB1
S113744007D0102B09D0112B01D1092338E0122BBE
S113745001D10A2334E0132B01D10B2330E0142B88
S113746001D10C232CE0152B01D10D2328E0162B80
S113747001D10E2324E0172B01D10F2320E0182B78
S113748008BF00231CD0192B08BF012318D01A2BC6
S113749008BF022314D01B2B08BF032310D01C2BBE
S11374A008BF04230CD01D2B08BF052308D01E2BB6
S11374B001D1062304E01F2B01D1072300E0FF23A1
S11374C0C3764B7A002B3FD0012B41D0022B43D003
S11374D0032B45D0042B47D0052B1FD0062B21D0DE
S11374E0072B23D0082B25D0092B27D00A2B3FD0DC
S11374F00B2B41D00C2B08BF082242D00D2B05D0FA
S11375000E2B07D00F2B09D0102B01D1092238E004
S1137510112B01D10A2234E0122B01D10B2230E0CD
S1137520132B01D10C222CE0142B01D10D2228E0C5
S1137530152B01D10E2224E0162B01D10F2220E0BD
S1137540172B1DD0182B01D101221AE0192B01D1C0
S1137550022216E01A2B01D1032212E01B2B01D1C7
S113756004220EE01C2B01D105220AE01D2B01D1BF
S1137570062206E01E2B01D1072202E01F2B00D1B8
S1137580002202774A7C42768A7C4277CA7C8276E1
S1137590097D8177002010BDDFF84446A34240F006
S11375A0EF800B7A002B45D0012B18BF022B04D09F
S11375B0032B1CBF042B052B01D100233AE0062B1F
S11375C018BF072B04D0082B1CBF092B0A2B01D191
S11375D001232FE00B2B18BF0C2B07D00D2B18BF4A
S11375E00E2B03D00F2B18BF102B01D1022321E047
S11375F0112B18BF122B08D0132B18BF142B04D037
S1137600152B1CBF162B172B01D1032312E0182BAB
S113761018BF192B0BD01A2B18BF1B2B07D01C2BF0
S113762018BF1D2B03D01E2B18BF1F2B01D1052300
S113763000E0FF23C3754B7A002B46D0012B18BF03
S1137640022B3FD0032B18BF042B3BD0052B18BFB4
S1137650062B04D0072B1CBF082B092B01D10123B7
S113766033E00A2B18BF0B2B07D00C2B18BF0D2BA4
S113767003D00E2B18BF0F2B01D1022325E0102BB2
S113768018BF112B08D0122B18BF132B04D0142BA6
S11376901CBF152B162B01D1032316E0172B18BF83
S11376A0182B0BD0192B18BF1A2B07D01B2B18BF64
S11376B01C2B03D01D2B18BF1E2B01D1052304E066
S11376C01F2B01D1002300E0FF2303760B7A002B4C
S11376D018BF012B4BD0022B18BF032B47D0042B10
S11376E018BF052B43D0062B1CD0072B1DD0082B0D
S11376F01ED0092B1FD00A2B20D00B2B3AD00C2BD9
S11377003DD00D2B08BF082331D00E2B04D00F2BF6
S113771005D0102B06D0112B3FF497AE122B3FF45B
S113772098AE132B3FF499AE142B3FF49AAE152B5D
S11377303FF49BAE162B3FF49CAE172B3FF49DAE4B
S1137740182B08BF002312D0192B08BF01230ED019
S11377501A2B08BF02230AD01B2B08BF032306D011
S11377601C2B08BF042302D01D2B08BF05233FF4A4
S1137770A7AE1E2B3FF49DAE1F2B7FF4A0AE9CE65C
S1137780DFF8340610BDDFF83006704700A0004073
S1137790F07000203073002010B500F1170482B09F
S11377A00A002179C07D20D00123042200F0B8FC16
S11377B0617960780123022200F0B2FCA07E0228E5
S11377C00CD100F039F8E179E0780023042200F0CC
S11377D0A7FC01200090012302461CE0032829D1C4
S11377E000F02AF80023042220E0002300F098FC93
S11377F06179607800F028F8A07E022810D100F0AA
S113780021F80023E179E0781A4600F089FC002091
S1137810012300901A46A179A078FFF739FB09E00B
S1137820032807D100F00EF800231A46E179E07826
S113783000F076FC002016BDA179A0780023012277
S113784000F06EBCA179A0780023002200F068BC8F
S113785010B5DFF8DC150A7842B9002301EB820485
S1137860521C042A6360F9D301220A70002201EB3E
S113787082035C68002C18BF844202D15860002047
S113788010BD521C042AF2D3DFF8A80510BD4162D2
S11378900021436A1980436A5980436A99802430DD
S11378A00172426011804268518042689180417245
S11378B0C172704710B5044613F0B5FD607FDFF860
S11378C0781513F0BEFD0020A075207502206075A8
S11378D02046BDE81040FFF743BB38B5044613F01B
S11378E0E6FBDFF858550021201D13F0B9FB28B939
S11378F0002104F1080013F0B3FB00B1284632BDA7
S11379000A7000F00B7000F070B586B004460D46A6
S113791000A80FF250511822FFF7BEF90CB95848CD
S11379209BE0002D5DD034212046FFF78BF92046E3
S1137930FFF78EFF0600F3D1287C4D4984F831000F
S113794028682060002084F83200286888423BD1EF
S1137950DFF8EC042062DFF8EC04E0604FF4402030
S11379602061EA69A9692046FFF791FF68680290DF
S113797001216889ADF81000A889ADF80E00A87B34
S11379808DF80C00E87B8DF8120005208DF80D00B1
S1137990DFF8B40413F003F800F06CF8206A00F088
S11379A06BF800F076F8FFF7D6F92868DFF89C2426
S11379B003214167816F00F065F8816720462946FD
S11379C0FFF77FFC80B148E0DFF81412884208D149
S11379D0DFF87C042062DFF87C04E0604FF4502080
S11379E0BEE7DFF8D40338E000F03EF8A8BBFFF7A9
S11379F058FA287C032810D12868416F41F03001DF
S1137A004167416E41F00401416695F8212095F8E3
S1137A10201041EA0221C16704E0022804BF204685
S1137A20FFF748FF28684FF0FF318164297C032960
S1137A300CBF05210421FFF787F929684FF4406042
S1137A40C86013F034FB2046FFF747FF0646FFF7F4
S1137A5033FA002E14BF3046002006B070BD00007B
S1137A600D7000F00C7000F00121204694E6000037
S1137A7000000140DFF8E003012112F090BF000094
S1137A80027000F011402A7A41EA02216A7A114315
S1137A90704700208DF8000000A92868704700A9ED
S1137AA0FFF7CFBA90F83220002112B900680169BB
S1137AB01EE0012A1CD100688068820748BF0221A9
S1137AC0C20748BF41F00101420748BF41F0080125
S1137AD0020748BF41F02001C20648BF41F04001FF
S1137AE0820648BF41F08001400648BF41F400517E
S1137AF008467047406A1EE02DE9FC410446002018
S1137B0000900D46606A818816461F4671B1FFF7E2
S1137B10C6FF8046A06801A913F06DFB009828B148
S1137B20B8F1000F02D100F02CF802E00020386018
S1137B30306020E0806A8088C0B270472DE9FC4143
S1137B400446002000900D46A06A818816461F4610
S1137B5071B1FFF7A4FF8046606801A913F04BFBE5
S1137B60009828B1B8F1000F02D100F00AF802E041
S1137B7000203860306028602046FFF793FFBDE89E
S1137B80F68140680199401A306001983860009885
S1137B900068704700F11402537F032B02D1DFF811
S1137BA0BC0270475170022918BF0175FFF7D8B99C
S1137BB080B590F83120012A01D1022902D1DFF8E1
S1137BC09C0202BD837D8B4208D0817511B900F0FF
S1137BD0D1F803E0012908BF00F07AF8002002BDC3
S1137BE000040140007D704770B500F0B9F800282A
S1137BF06DD1A06A808818B194F82E000028F8D0BE
S1137C0094F8321011B92068006905E0012918BF01
S1137C1000201ED12068806810F0020019D159B9E3
S1137C2022680421D16021680A699207FCD54A6F51
S1137C3042F002024A670CE001290AD122680421B9
S1137C40516021688A689207FCD54A6D42F00202AD
S1137C504A65012184F8301094F8321041B10129A9
S1137C601DD114E00A695206FCD515F8012B4A63AC
S1137C703246561E2168002AF4D10A699206FCD5C0
S1137C800DE08A68D206FCD515F8012B8A623246CB
S1137C90561E2168002AF4D18A681207FCD5A8B9B7
S1137CA094F8320040B92068416F21F00201416725
S1137CB008202168C86009E0012807D12068416DC7
S1137CC021F002014165082021684860002070BD50
S1137CD010B5040082B000D16CE000F013F880B954
S1137CE09DF8000068B194F82E0030B92046FFF7E3
S1137CF0ECF810B9606813F02BFA94F82E00401CCD
S1137D005EE05BE000208DF8000000A9606813F0DD
S1137D104EBAF0B587B000F07CF890B900F071F875
S1137D20049700F014F860B9287E48B92046FFF79C
S1137D30A3F900F008F8687F032801D000F015F8D3
S1137D40002007B0F0BD00992046FFF7C9B904F13F
S1137D5014054348059000AA286901A9FFF72EB924
S1137D6004460D461646FFF79EBA002020752046AD
S1137D70FFF7F6B810B5040082B000D11AE0FFF79F
S1137D80C1FFB0B994F82E0000281CBF9DF8000074
S1137D9000280ED094F82E00012806D12046FFF7C3
S1137DA094F810B9606813F0E1F994F82E00401EBD
S1137DB006E003E01F4816BD037000F0274816BD17
S1137DC084F82E00002016BDF0B587B000F021F82D
S1137DD0A8B900F016F8049700F021F878B904F176
S1137DE02805687950B9FFF75CF8A06A808818B153
S1137DF000F00BF801202872FFF75EF8002007B0AE
S1137E00F0BD019502960396704700992046FFF74E
S1137E1089B904460D4616461F46FFF744BA00AA20
S1137E200F48059001A9A06AFFF7C8B80000000038
S1137E3030730020027000F0F96E00000E7000F044
S1137E400022040001000C0040410500E0E0FFFFB7
S1137E500032040001000D0000250800057000F048
S1137E60017000F0050000000000000000C20100E5
S1137E7000050000001000000000000038B513F0F9
S1137E802CFB604D0446287860B95F48002141709E
S1137E908170A5210170012000F0C3F900F0E0F920
S1137EA001202870204613F013FB0121574812F0DB
S1137EB076FD574901200860002000F0F3F8012303
S1137EC004220221052000F02BF9012201210420C3
S1137ED012F052FF012000F0A4F900F004F800F0C1
S1137EE0BFF9002032BD10B54D484B4C016841F03C
S1137EF0010101600022C16841F08071C16000236A
S1137F0048494948086049480260424A13600223CC
S1137F1023601523464C236000230364454B0B6503
S1137F20454911604FF480713C4A1160016841F485
S1137F308071016010BD3A48006800B10120C0B2F0
S1137F407047D12202704170090A81703B490A7856
S1137F50C270501C0870042070472DE9F84F804609
S1137F604D1D002713F0CCFA82464FF6FF7B344CAC
S1137F7015E007EB0800594610F8026C304613F080
S1137F802DFB83464F4623480068C00707D5274882
S1137F900068C00503D520680028FCD02670FFF7D0
S1137FA0CAFF28B3FFB2EDB2AF4221D213F0A8FA50
S1137FB0A0EB0A0080B2B0F5FA7F1FDC17B95B268C
S1137FC00127E0E7012F07F1010908BF6E1FD9D08F
S1137FD0E81E874208BF5E46D4D0A81E874208BF69
S1137FE04FEA1B26CED0681E8742C2D15D26C9E760
S1137FF0F8B2EDB2A84208BF002000D00120BDE8CD
S1138000F28F0000D37F0020F07F002000250800BD
S113801010881442800E00E0F00004E0040304E041
S1138020F0ED00E0B00F00E055CEACC5000E00E06E
S1138030100004E0FF0300400D000100D47F002085
S1138040200000E010B50C460246217800200529E6
S1138050A4BF1046FFF781FF0421217010BD00006A
S1138060890001EB401000F184400260704700F188
S1138070806300F1C06019600260704710B500F0C1
S11380800CF8BDE81040002205E010B500F005F83A
S1138090BDE8104001220C30E2E73C4B302414FBD5
S11380A000307047704770B50C460F21082C1546F8
S11380B01E4604D2A30000F02FF8354804E0A4F1D2
S11380C0080200F028F83348FFF7D1FF0321082DF8
S11380D004F0030004D2AB0000F01EF82E4804E0C4
S11380E0A5F1080200F017F82C48FFF7C0FF2C4850
S11380F032462146FFF7B4FF2A4D049A214628460A
S1138100FFF7AEFF0120A04028612146059A2648CA
S1138110BDE87040A4E7930000FA03F29940704769
S1138120F8B5160004460D461F4605D017B1FFF7F3
S1138130ACFF01E0FFF7A2FF30210F221348082D06
S113814011FB040009D2AB0041689A4021EA020203
S113815006FA03F1114341600AE0A5F108039B000C
S113816081689A4021EA020206FA03F11143816010
S113817056B9002F294620461CBFBDE8F440FFF73E
S113818084BFBDE8F44079E7F1BD000000A00040E1
S113819000A4004004A4004008A400400CA4004033
S11381A010A4004014A4004028A4004003460A463A
S11381B099A10420FFE70CB480B502AA00F05CF892
S11381C001BC5DF80CFB21B103460A4693A11120C2
S11381D0F1E7704700B589B012F09AF800210791D1
S11381E006910591049103910291019102468C49F3
S11381F0009100230FF23C210120FFF7DCFF8948A6
S1138200C178437802780391816802918188019151
S11382108178009143200FF22821FFF7CCFF09B0A9
S113822000BD8149087070470EB410B504467E48FD
S11382300078A1B080B1FFF77EFE68B1802200A96A
S1138240022000F0B0F823AB224600210FF26D109B
S1138250FCF707FA00F0D5F821B010BC5DF810FB6C
S11382600C2200217148FDF763BB704931F81020DE
S1138270521C21F8102070472DE9F04107466A4846
S11382800078A2B00C469046002690B9002F18BF83
S1138290012F0ED0042F18BF052F0AD0312F18BF7D
S11382A0332F06D0372F1EBF3B2F4FF6FF718F425F
S11382B076D1FFF740FE002872D0802202A938460A
S11382C000F071F8002C69D007E08DF80400012259
S11382D001A9002000F072F8641C207800285DD009
S11382E0A0F130020A2A05D20A2101FB0600A0F1FE
S11382F03006F1E7422818BF44280CD0462827D07E
S1138300572808D0622836D0662821D06C281CD083
S113831070281DD0D9E7422807D158F8042B00A9AA
S11383200120FDF734FB01220DE0572858F8042BF7
S113833000A904D10120FDF72AFB022203E0012059
S1138340FDF725FB042200A9C3E758F8046BC3E733
S113835058F8041B462807D10026705C00281EBF6D
S1138360761CF6B2FF2EF8D1F2B2002000F026F807
S1138370A0B90026B0E758F8047BBFB2002FABD0F9
S1138380384600F0E5FC0546384600F0CAFC0146D4
S1138390EAB2002000F012F800289DD000F031F875
S11383A022B0BDE8F08110B5214C61602270014615
S11383B06068FFF7C6FD607010BD0000F8B51500D9
S11383C00C461B4E1BD07078317873680F1AFFB2BD
S11383D0BD42B8BF2F463A462146C018FDF746FABB
S11383E070783818ED1B70703C19EDB23DB17068AF
S11383F0711CFFF727FE0028E5D00120F2BD002004
S1138400F2BD10B50A4C6068611CFFF71BFE08B191
S1138410012010BD607010BD574600006C70000054
S1138420947B002080110300D27F0020C4740020BC
S1138430D0740020424238704242424257424200C5
S1138440424242574442000062F30F2262F31F4249
S1138450401810F0030308D0C91A1FD3DB0748BF24
S113846000F8012D28BF20F8022D130030B4144663
S11384701546103928BF20E93C00FAD8490728BF1F
S113848020E90C0048BF40F8042D890028BF20F8DB
S1138490022D48BF00F8012D30BC7047C91818BF21
S11384A000F8012DCB0728BF00F8012D704700000C
S11384B042DE704738B504460D460AF05FF813F003
S11384C0C9F813F00AF829462046FFF76FFE2B4639
S11384D022460FF2B0110120FCF727FD2946204661
S11384E0BDE83440E4E72DE9F84F5F485F4D01688B
S11384F02E1D4FF4206A7165016AB1655C490A68F2
S1138500F26549683166416A7166816AB166C16A19
S1138510F166016B3167806B706796F83400400731
S11385204CBFF76BB76BBB4613F093F90022514C69
S1138530DFF84481DFF84491F2648742014624BFA6
S1138540A4F12003BB4231651DD357F8180F3064E2
S113855057F8040F7064706DC005C00D062815D15E
S1138560306C484512D3404510D200884DF6426223
S113857090420BD105F190006A68426040F2017AA2
S11385807268826002E03264726483463C488142CD
S113859002D2014600E0091DA14203D20B68B3F1E7
S11385A0CD3FF8D0601AB064182105F17C00FEF7C5
S11385B049FB002003E0C0B205EB8002D167A3456C
S11385C024D254F8041D4945F9D34145F7D2CA07CA
S11385D0F5D5002205EB8203DB6F8B4203D0521CDE
S11385E0D2B2062AF6DB062AE9D1002814BF401EBF
S11385F00520E0E7B16F002205EB8203521CD3F89B
S11386008070DF67052AF7DBC5F890100146481E25
S1138610C9B20029EED1706DC005C00D032808D081
S1138620042809D005280AD006280BD00C280FD01E
S113863011E040F6012A13E040F6022A10E040F669
S1138640032A0DE0BAF5206F0AD140F6042A07E0A8
S113865040F6052A04E018B1312838BF40F6072A4D
S11386605046BDE8F28F000004ED00E00000002059
S113867000E300E068610020F0020300E043000032
S11386809C0000200D0A5B4153534552543A257017
S11386903A25645D0D0A000010B5DFF8504A13F066
S11386A0DFF8606113F0D8F8A0616069E06118B187
S11386B000F007F8652803DABDE8104095219BE037
S11386C010BD10B5DFF8244AA069E169884202D2DE
S11386D0A72100F0D4FBA069E169401A4FF6FE71AE
S11386E0084010BDDFF8041A4A69904203D3C969EF
S11386F0884200F0F3BC00207047002818BFFFF741
S1138700F1BF0120704730B1DFF8E0194969401A20
S11387104010401C80B2704728B1DFF8D019496975
S113872001EB4000801E70474088C004C00CC01C90
S11387300004800C4000001D80B2704710B5044650
S1138740FFF7F2FF04EB4000DFF8A0194FF6FF73C8
S113875000E0801CCA69904202D202889A42F8D092
S113876010BDDFF88C1908607047DFF884190FF624
S11387707C30086070472DE9F843DFF870590446EF
S11387802889B8B36088000434D4DFF864790FF61C
S1138790683838680FF6543113F088F820B940F27D
S11387A069114046FFF786FE002601E0701C86B280
S11387B02889864204DB40F26B114046FFF77AFEBB
S11387C0D5F82090396859F8360010B949F83610B0
S11387D003E013F06BF80028E8D109EBC605A8887C
S11387E0401CA8802046FFF79FFFE988400010FA4C
S11387F081F0E880BDE8F1830FF6FC20FFF75ABE54
S113880070B50446DFF8E408807801281AD120887E
S1138810FFF782FF04002FD0022526463046FFF7DB
S1138820AAFF708840F40040708036F81500FFF706
S113883073FF060002D070880004EFD56D1C042D70
S11388401ADAEAE7022817D112F047FE0546208813
S1138850FFF762FF06000AD07088800403D54FF446
S11388600B7100F00CFB30884004400C208028463B
S1138870BDE8704012F02CBE70BD00B5ADF2B44D31
S11388804FF4966200A900F071F80DF2B44D00BDEA
S11388902DE9F84307468846FFF746FF45007888E8
S11388A08004800C7880800422D512F016FE0446E1
S11388B03846FFF728FF81464046FFF724FF064667
S11388C0AAB239464046FCF7D1FF0020DFF81C1855
S11388D006E001EB400293894B4508BF9681401C9A
S11388E00A789042F5DB2046BDE8F24312F0F0BD71
S11388F0AAB239464046BDE8F843FCF7B7BF10B505
S11389000C4601E0FFF71AFFA04202D24188090495
S1138910F8D510BD70B5DFF8D4570446A8780128FF
S113892004BF686A00281CD120460EF082FC02288D
S113893017DB002120460EF08DFC0DE0012100F034
S11389408EFA70B93046FFF7E7FE0088C00B08D1F5
S1138950314620460EF0ABFC0600EFD16C620120DC
S113896070BD2046FFF74CFF002070BD2DE9F74F86
S1138970DFF87847002092B0E080606212F0ADFD2D
S11389800121A170A188ADF802100021A180E16944
S1138990019112F09DFD00212089C200206A92B24B
S11389A0FCF7C6FF0DF10200FFF72AFF12F095FD58
S11389B0217862785518EDB212F08AFD4FF0000A62
S11389C006E004EB46000C30FFF71AFF06F1010A3B
S11389D05FFA8AF6AE42F4DB129848B1002501E052
S11389E080476D1C1298EDB250F825000100F7D1B4
S11389F0D4F814904FF0000B01250DF1080A0198EA
S1138A00814502D3BBF1000F37D0BBF1000F06D074
S1138A10ABF101005FFA80FB5AF82B8004E0C846F2
S1138A204846FFF78BFE8146B8F8020000F4404147
S1138A30B1F5004FE3D140F48040A8F802000226CB
S1138A4038F81600FFF768FE070012D07888010492
S1138A500FD440F4004078803846FFF78CFEBBF119
S1138A60100FBDBF4AF82B700BF101005FFA80FBB9
S1138A700025761C042EE3DBC1E7002DB8D0656A1F
S1138A8055B12888FFF748FE4088000447BF0020FE
S1138A9060622846FFF7B4FE0020ADF8000082466D
S1138AA0606A002590B30088002100F0D8F9ADF881
S1138AB00000294600F0D3F90646BDF8000000F096
S1138AC047F90546304600F043F98246BDF85000A8
S1138AD0504518DB304600F03BF90746304600F0BD
S1138AE020F9014613983A46FCF7C0FE3046FFF7DA
S1138AF013FE41888904890C41800022606A314652
S1138B000EF0FEFB02E00020ADF800006669B346FB
S1138B10B0460BE03088C00B1EBFD6F80E0000280C
S1138B2012F03AFF3046FFF709FE064601988642E6
S1138B3023D23046FFF7F8FD81463046FFF7E3FDC8
S1138B40BDF80010884206D10AEB0500C01C801055
S1138B50400000F1040970880004DBD55846FFF793
S1138B60D2FD318801F40041084330801FFA89F0B6
S1138B700BEB400B06EB4008D4E70220A0700DF18C
S1138B800200FFF73DFE00A8FFF73AFE129860B11D
S1138B904FF0000902E0804709F1010912985FFAD9
S1138BA089F950F829000100F5D16769B94611E047
S1138BB0022639F81600FFF7AFFD20B10088400403
S1138BC0400C29F81600761C042EF2DB4846FFF709
S1138BD0B5FD8146C145EBD30BE00746FFF7AEFD7B
S1138BE04146FFF78CFE4845F7D30198814529D1CA
S1138BF03746474545D23846FFF7A0FD06467888F4
S1138C000004F5D500F083F8B84204D178888004D4
S1138C10800C7880ECE704D201463846FFF738FE32
S1138C20E6E7019707E037463046FFF787FD414600
S1138C30FFF765FE0646464504D2308800F068F822
S1138C408642F0D300F063F801463846FFF720FE71
S1138C500198B946C7E73846FFF766FD0646584609
S1138C60FFF751FD8146720092B239465846FCF72F
S1138C70FDFD002249460DF102000EF0F2FA0BEB65
S1138C80460B12F02AFC064616E021784018401ED6
S1138C90C0B204EB40000021878981813846FFF788
S1138CA03BFD00F004FA002239460DF102000EF0FB
S1138CB0D8FA6078401E607060780028E5D1002101
S1138CC0201D0EF0FEFAFFF727FD070006D1BDF8C0
S1138CD00200A080C4F81CB00020A070304612F03E
S1138CE0F7FB002FB7D1BDF8000068B10446FFF7C9
S1138CF013FD0AEB05014180204600F012F8139998
S1138D0052462818FCF7B2FD15B0BDE8F08F38883C
S1138D104004400C00E580B5FFF7FEFCBDE80240CE
S1138D20EBE410B5040001D1002010BDFFF7F3FF00
S1138D3018B940F2124100F0A2F82046FFF7ECFC0B
S1138D400188C90B02D0D0F80A0010BD083010BD4C
S1138D5000B9704710B5FFF7DFFC0446FFF7CDFC00
S1138D6018B94FF4856100F08AF82088C00B01D04F
S1138D70208910BD6088C004C00C10BD2DE9F041ED
S1138D8004460D46FFF7C8FC00F097F818B940F206
S1138D90364100F097F82046FFF7DAFF8046304668
S1138DA0FFF7CCFC454504462DD0454503DB40F296
S1138DB03E4100F087F83088C00B18BF358122D1BE
S1138DC075803046FFF7B0FC06EB4005661B12F0D9
S1138DD084FBC649CA69944204BFCD61002612F0DF
S1138DE077FBB6B2082E06DA32462846BDE8F041D3
S1138DF0FF21FCF79DBD082200212846FCF798FDC1
S1138E00A6F108006880BDE8F081F8B507460C4675
S1138E10FFF782FC06463846FFF79AFF051B84429B
S1138E20ADB21BD0844203DB40F2674100F027F867
S1138E303088C00B06D0D6F80A002818C6F80A00F5
S1138E403481F1BD3846FFF76CFF22462918FCF740
S1138E500DFD21463846BDE8F4408FE7F1BD38B535
S1138E600C46FFF759FC0546FFF747FC18B940F2DA
S1138E70774100F004F805EB4400808832BD0FF21E
S1138E807840FFF717BBF8B50C461546FFF744FCCE
S1138E9000F013F818B940F27E4100F013F82846A8
S1138EA0FFF73AFCFFF729FC18B940F27F4100F0C4
S1138EB009F806EB44008580F1BD06460FF23847F9
S1138EC0FFF71BBC3846FFF7F5BA70B50446002619
S1138ED00D46002C09E02046FFF73AFF8619B6B28A
S1138EE029462046FFF7BBFF0400F4D1304670BD8D
S1138EF038B5C01C80107D4C4500A06AADB218B1D5
S1138F0040F29441FFF7BBFFA069E269821AD203E1
S1138F10B5EB124F04D2A0EB4500A062012032BD94
S1138F20002032BD71490020886270472DE9F84F56
S1138F300446E01C801040006C4D001D0027AE6903
S1138F400FF2B43AB4F5005F88461FFA80F904DBE7
S1138F5040F2AB415046FFF7ADFA12F0BEFA834639
S1138F60E869A96A09B9301A03E0B8F1000F02D020
S1138F70081A461008E0701AC003060C04D140F227
S1138F80D1415046FFF796FAB0B2484515D3EF6980
S1138F9007EB4900E861A86A28B1B8F1000F04BFE3
S1138FA000EB4900A8627C800020B880F8803880FB
S1138FB004F10801688908186881584612F088FA93
S1138FC01FB901211F2012F0F0FC3846BDE8F24F12
S1138FD0FFF799BBF8B504460D46164600210A2052
S1138FE0FFF7A4FF0746FFF797FB0681C0F80A4086
S1138FF0018841F400410180C0F80E503846F2BDAA
S113900070B504460D4611462846FFF78FFF064605
S1139010002C18BF002E05D0FFF783FE2A462146F8
S1139020FCF724FC304670BD2DE9F84381460E461A
S1139030144612F052FA2D4D8046287858B3401E3B
S11390402870C0B205EB4000A9788789F9B98181FD
S11390503846FFF761FB00F02AF83846FFF761FE57
S113906032464946FCF702FC3846FFF75AFE2246D0
S113907000213018FCF75CFC00223946281D0EF054
S1139080F0F8404612F024FA0120BDE8F283687833
S1139090401C6870E1E7A019012180B2FFF746FF88
S11390A00700DAD1404612F013FA0020EDE74188B8
S11390B04DF6FF7211404180704738B512F00DFA39
S11390C0044600210B480EF0FCF80546204612F039
S11390D0FFF9284632BD05488188481E8041C00FEB
S11390E070470249002088807047000058740020AF
S11390F0EC6500205C7400202DE9F04104468846AC
S113910016461F464046FFF70CFE35184046FFF74B
S11391101FFE56FA87F1884203DA40F25C51FFF7EA
S1139120AEFE97B1069818B93A462946204604E09F
S113913001283A462146284603D1BDE8F041FCF710
S113914095BBBDE8F041FCF7D4BBBDE8F08110B598
S11391500C46FFF7E6FD205C10BD38B50C461546FD
S1139160FFF7DFFD255431BD38B50446FFF7F0FDA8
S113917005462046FFF7D5FD2946BDE838400022C4
S11391803EE770B50D46691C0446C9B2FFF7DFFF20
S1139190060229462046FFF7DAFF56FA80F080B22D
S11391A070BD00B583B002238DF80420120A8DF837
S11391B00520012200920A46014601A8FFF79CFF00
S11391C007BD10B50446FFF78DFA10B1A4F10800ED
S11391D008E010BD10B5FFF79FFA0446FFF7A4FAA4
S11391E004EB4000BDE81040FFF78DBAF8B5044623
S11391F00D46FFF791FA06467088C704FF0C28460F
S1139200FFF78AFA07F00101CF19FFF78DFA07EB90
S113921040072046FFF7DEFFA84203D040F2176163
S1139220FFF72DFE7780F1BD2DE9F0410C46FFF7E5
S113923073FA054604F001016888C604F60C06F0CA
S113924001008019001B471AE01C20F0030040199C
S113925000F10808BFB22846FFF74FFA08B1A6424A
S113926003D240F23161FFF70AFEB44201D0092F64
S113927001DA00200EE06C80082200214046FCF751
S113928057FBA7F10800A8F802004046BDE8F041EA
S1139290FFF739BABDE8F08170B5044682B02068A2
S11392A0FFF78FFFADF80000F0B1FFF735FA008843
S11392B00FF24405C00B04D040F24A612846FFF780
S11392C0F9F800A8FFF79CFABDF80000FFF724FAAC
S11392D00646FFF712FA20B94FF4CA612846FFF791
S11392E0E9F806F10800206073BD0000756E636C38
S11392F061696D65640000006275666665722D6D56
S1139300616E6167656D656E742E630010B5DFF87C
S11393109443A01DFFF774FA04F10800FFF770FAF4
S113932004F10A00FFF76CFA04F10C00FFF768FA85
S1139330BDE81040DFF87003FFF762BA10B5DFF83C
S11393406423DFF8683314781B78234306D1DFF8ED
S113935060331B780C2B03D0022906D0002010BDEB
S1139360012908BF02F10A0301D002F108030146F2
S1139370002218460DF075FF03F058F9012010BDC6
S1139380DFF82003017919B90121017103F04EB905
S11393907047DFF81803007800B1704710B500F08B
S11393A047FADFF80043E08028B9002104F10800FF
S11393B00DF087FFE080E08828B9002104F10A005D
S11393C00DF07FFFE080E088002804BF20780028AB
S11393D00ED12079022803D012F031FBE08038B995
S11393E0207928B112F0CBFCE08008B10020207174
S11393F010BDAC484079704780B5A0F10B0110292D
S113940001D3002002BDA7494871042000F02AF8C6
S1139410012002BD80B5A348017800220129027011
S113942006D01ED303290BD006D304290CD001BDCA
S1139430BDE8014012F08EBDBDE8014012F0DBBD75
S1139440BDE80140FCF786BF40790FF0ECFA20B18B
S1139450F5210FF27820FFF72DF8BDE8014003F065
S1139460E5B801BD38B5044600F0B1FA8D4D287950
S113947040B100202871FCF74BFE032804BF4020B4
S113948012F09DFA287808B1002032BD894800788E
S1139490052808BF03F07AF92C7000F007F818B11A
S11394A0FFF7B8FF012032BD022032BD38B512F0FB
S11394B014F804467B4D05F108000DF0B5FEA0B18B
S11394C005F10A000DF0B0FE78B17A4829790078E8
S11394D008430AD100F006F938B9774801F0A0FC36
S11394E000F0010080F0010500E00025204611F0A5
S11394F0EFFF284632BD10B511F0EFFF6C49097833
S1139500012902BF6B49097804290CBF01240024F6
S113951011F0DEFF204610BD10B56649614C0020F5
S11395200870E080207020816081A081FFF7D9FD60
S113953012F01EFF607012F01BFFA0705E4801F075
S113954070FD5E4801F06DFD5D484FF4A0510DF0D3
S113955057FD00202071BDE8104000F0CAB82DE985
S1139560F041504D0446E88828B94FF4C8710FF211
S11395705C10FEF79FFF534EDFF83C8130784D4F6F
S1139580811F01290AD805213970214612F092FE63
S113959008B900F010F80020E88002E0EC7000F058
S11395A00AF83078042804D02879012804BF02205E
S11395B02871BDE8F081032038700021404601F095
S11395C0E0BC38B5374DE978044600F084F928B991
S11395D0E9782046BDE834400EF0FABF31BD2DE9EC
S11395E0F8430446FFF79DFB471D05212046FFF77E
S11395F0C8FD054605F44C48384612F0C9FEC65D60
S1139600280701D5042E4AD12F4806704FF4406034
S113961005424FF6FF7906D0F81CFCF7A3F948453C
S113962008BF48F0400805F44060B0F5006F06D16B
S1139630781DFCF797F9484508BF48F01008012E3B
S11396404CF6500015D0022E16D0032E0ED0042E48
S113965008D0062E21D0072E08D0082E15D07C2E37
S11396600ED01CE0204600F0A8F8C0B90020BDE8E8
S1139670F283B8F5484FF9D0B8F54C4F0FD1F5E760
S1139680B8F54C4FF2D08045F8E74CF640408045A1
S113969005D1074800780728F0E78045E6D0012087
S11396A0E5E70000307F00208476002098760020D3
S11396B07C660020E67F0020D867002080660020BA
S11396C0347A00209A660020E27F00206D61632DC9
S11396D0617262697465722E63000000DFF85805D8
S11396E0FFF78EB8DFF85405006800B10120C0B25E
S11396F0704780B5DFF8480501F093FCDFF84415A6
S11397000020488001BD2DE9F041044611F0FFFE20
S11397100546DFF834050688204600F028F808B925
S1139720932022E0DFF81C7500222146B81C0DF0BE
S113973098FDDFF80C85404601F076FB10F1010F2F
S113974003D03988A819461A04E03D8031464046C2
S113975001F017FCB2B201212046FFF722FD20469A
S1139760FFF7DFFA0321C1700020BDE8F08110B5D6
S1139770044612F064FEB0F5006F03D0B0F5406FFC
S113978012D018E0204612F070FE12F0E7FF082114
S1139790FF2810D0DFF8B424126832F810301943CF
S11397A022F81010012010BD204612F04FFE12F0D6
S11397B0F1FF1021ECE7002010BD70B5054612F052
S11397C027FE400900F00104284612F0EFFE064689
S11397D0284612F0E4FEB0F5004F03D0B0F5404F38
S11397E006D00BE03046FCF7BDF812F0B7FF02E0FC
S11397F0304612F0CFFF0146FF2901D1002070BD91
S1139800DFF838341D680122824015431D605CB1C5
S1139810DFF83844246834F811104FF456742142A8
S113982002D059681143596006F0DAFA012070BD7C
S113983070B500F0A1F901E000F013F805000ED0B6
S1139840FFF76FFAC6787006F6D52846FFF769FA6F
S113985006F0BF0141F08001C170284670BD0020B0
S113986070BD2946A01C0DF022BD70B5044612F04F
S1139870EDFD0546204612F0E2FDB0F5006F03D081
S1139880B0F5406F02D024E0012600E0002600225B
S11398902946304600F019F9C8B9002E284604D0EC
S11398A0FCF760F812F05AFF01E012F073FF05466E
S11398B0FF2D0ED0204600F0CAFE40B9DFF88C031D
S11398C0006830F815004FF45071084201D00120AF
S11398D070BD002070BD2DE9F84F81460D46D94E6C
S11398E00021B01C0DF0B6FC03E05946B01C0DF08D
S11398F0DEFC5FEA000B4CD0D945F6D10521484681
S1139900FFF73FFC00F00700012804D1484600F0AF
S11399109EFE804601E04FF00008002D16BF312D59
S11399200124002411F0D9FD824603215846FFF793
S11399300EFC14EA080F04D00327484600F0A5FEE5
S113994002E000F07F00471EFAB203215846FFF7F9
S113995004FC88F00100044201D1F8B2A0B911F06E
S1139960BCFD044600225946B01C0DF0C9FC00F0B1
S1139970F1F8204611F0ACFD504611F0A9FD29463E
S113998058460EF025FE02E0504611F0A1FD0120DC
S113999000E00020BDE8F28F10B582B011F0B7FDF1
S11399A0A8490A880880821A4FF6FF74ADF800406F
S11399B000A990B200F0E5F8BDF80010A048A1425B
S11399C002D101F02EFB13BD01F0DBFA13BD00211F
S11399D04FF6FF70D5E02DE9F84F984C2068002829
S11399E071D000250126DFF86892DFF8688200272D
S11399F0BB4611F072FD21680E4209D0F2431140BA
S1139A002160012761680E4202D01140BB466160AB
S1139A1011F05EFD002F4ED08C48016831F81520FE
S1139A20D00748D5D8F8003033F81570BBF1000FD3
S1139A3007D002F44673B3F5807F08BF4FF0010AE4
S1139A4001D04FF0000ABBF1000F0CD013070AD568
S1139A50380A8DF801008DF80070012200A9012058
S1139A6000F033F818E0BBF1000F0AD0D00608D597
S1139A70D9F8000000EBC5010122002000F025F810
S1139A800AE08AF001031BEA030F05D042F4806068
S1139A9021F8150002F0CAFD284612F096FFCDF811
S1139AA000A03B461A2263A10320FEF784FB514623
S1139AB0384611F072FF6D1CEDB27600202D02DAEB
S1139AC02068002893D1BDE8F18F2DE9F0470026E6
S1139AD00028894619BF02274FF4006808274FF46D
S1139AE04068584C15460021A01C0DF0B3FB03E060
S1139AF06DBB5146FFF7B6FE5FEA000A1AD012F0BA
S1139B009EFC4045F5D1504612F0A0FC01463A4671
S1139B104846FBF714FF0028EBD103215046FFF71A
S1139B2016FB0006E4D40DB9012011E0002EE0D1AB
S1139B305646DEE7002E18BF002D08D03046FFF74A
S1139B40F0F8C17841F04001C17002F06FFD0020CF
S1139B50BDE8F08738B500F00FF80546002118205D
S1139B6006F029F8002D05E02846FFF700FEFFF770
S1139B7078FE0500F8D131BD324C0021A01C0DF057
S1139B8069BB2DE9F04182B0044600200D46ADF8D2
S1139B90000011F0A2FC80462A4F08E00021B81C06
S1139BA00DF08FFB0022314600A80DF05AFBB81CC3
S1139BB00DF03AFB48B90021B81C0DF04BFB0646EA
S1139BC00121FFF7DEFA8442E8D2FFF7C3FF4046E3
S1139BD011F07EFC0021B81C0DF03CFB12E00121C9
S1139BE0FFF7CFFA061BB2B201214046FFF7D9FABC
S1139BF02888B6B2864288BF06462E804146B81CE5
S1139C000DF055FB5FEA0008E9D100A80DF00CFB4C
S1139C1070B9002100A80DF054FB04460321FFF79E
S1139C2096FA0006F1D4422120460EF0D1FCECE76E
S1139C30BDE8F381425742002E7F00203C7A002089
S1139C40486700202C7F0020966300207463002066
S1139C507C6300207863002070B50024944D954EF9
S1139C6004E02846FEF7CCFD641C08353078717892
S1139C70E4B251FA80F08442F3DB70BD2DE9F8437D
S1139C80814611F04EFC0546DFF82C82894C4F4684
S1139C90404601F0C5F820B16168E819471ABFB21F
S1139CA000E065606178824800EBC10620780025F9
S1139CB001E06D1C0836EDB285420AD2B1888F42AC
S1139CC0F7DA401BC20092B2314606F10800FBF7F6
S1139CD0CDFD2078401C2070B7801DB94946404610
S1139CE001F04FF93046BDE8F28370B50D460446E5
S1139CF0704910464A7809788918082901D100204A
S1139D0070BDFFF7BBFF0646681C3480B07011F0CD
S1139D10F7FBF080012070BD66480021017041709E
S1139D20654801F07EB910B5614C01E000F04CF8D3
S1139D306048407828B120460EF05EFB0028F5D13B
