:10400000A85D0020791E03006D19030071190300DB
:10401000A70A090100410000041809AC00208C0027
:104020000000000000000000000000000000000090
:104030000000000000000000000000000000000080
:104040000000000000000000FFFFFFFFFFFFFFFF78
:10405000FFFFFFFF00E00300000000000000000081
:10406000FFFFFFFFFFFFFFFF10FFFFFFFFFFFFFF4F
:10407000FFFFFFFFFFFFFFFFFFFFFFFFFFFFFFFF50
:10408000F07F002000000000EC7F0020EC7F00208B
:10409000A85D002020710300A8250300D04E002059
:0C40A000701700200000040000800020C9
:10410000A85D0020791E03006D19030071190300DA
:1041100079190300751903007D190300F9190300CB
:10412000F9190300F9190300F9190300F91903003B
:1041300081190300F9190300F9190300F9190300A3
:104140001D9002009949020099C10100A149020095
:10415000CD490200AB490200A9490200C54902004D
:1041600055B401003DB70100B19A02008F5A00001A
:10417000F9190300F9190300C51D0300F91903001B
:10418000F919030049B70100F9190300F9190300EF
:10419000F9190300F9190300F9190300F9190300CB
:1041A000F9190300F9190300F9190300B5490200D0
:1041B000BD490200038D0200F9190300F91903003B
:1041C000F9190300F9190300F9190300F91903009B
:1041D000F9190300F9190300F9190300F91903008B
:1041E00072B68A48006810F1010F04D08748006851
:1041F000401C86490860854800687047834800680D
:1042000038B182480068401E80490860086800D1C3
:1042100062B670477E4901E029B1491E7D4A1268A5
:10422000D207F9D401B9CFE07B49086001207B496E
:1042300008607848006810F0060F05D0410700D5E7
:10424000C5E0800700D5C5E000207047F8B50446FA
:104250000D460026002D39D0002A374612D1AF4234
:1042600034D200F035F87F1C08206C49086068489B
:1042700001E048B3401E67490968C907F9D400281E
:10428000EDD121E0FFF7ACFF11E06248006800F0DB
:104290001900102804BF614908605E4800680007E3
:1042A000F3D500F015F810205C4908607F1CAF4280
:1042B000F3D3FFF7A3FF564801E028B1401E55494C
:1042C0000968C907F9D408B96FF002063046F2BD93
:1042D00054F8040B5249086070472DE9F047044632
:1042E00088469A4600204F49096841F001014D4B2C
:1042F000196097080025C14602E0751909EB860987
:10430000BD4217D204EB8500FFF784FF010026D1E0
:1043100004EB8500C0F30A00C0F500608608781B36
:10432000B04238BF7E1B524631464846FFF78EFFEB
:104330000100E2D02168D8F80020914209D020463F
:10434000FFF768FF010004D1524601214046FFF704
:104350007DFF3449096849084900324A1160BDE8C7
:10436000F0872B492F4A126842F001022D4B1A6048
:10437000294A10600120294A106026480068400739
:1043800004D5186840084000186020E02148006803
:10439000800704D518684008400018601AE0022021
:1043A000106001E029B1491E1A480068C007F9D41D
:1043B00021B9186840084000186005E018684008F6
:1043C00040001860002070476FF0020070474FF007
:1043D000FF3070476FF00100704700237DE7114800
:1043E000006840F001000F49086046F21A300E499B
:1043F00008604FF480700949086006480068C007EB
:10440000FBD4002008490860704700004C6D002074
:10441000809698001C000E4010000E400C000E40CC
:1044200018000E4008000E4054000E40000000002E
:1044300038B5054640F2FF712DED028B6868C0F378
:104440000A50884243EC182B06D0012806DA284689
:1044500000F0EEF8012801DB002406E06A6840F273
:10446000FE3161F31E526A60441AD5E9000153EC33
:10447000182B00F0FFF8C5E90001BDEC028B21B25A
:104480002846BDE8344000F0CBB90000F8B52DED6A
:10449000028B140003B482B01F4600F09180DDE966
:1044A00002230020002100F045FA00F08980002C52
:1044B0009FED468B40D564420FF22C1508260CE088
:1044C000E00707D5D5E9000153EC182B00F0D2F82E
:1044D00041EC180B64080835761E002C18BF002E1E
:1044E000EED102A9684600F035FADDE9020153EC8D
:1044F000182B00F069FACDE90201BDF9001002A8FD
:1045000000F08EF905004CD5002C4AD002A968466F
:1045100000F020FADDE902012E4A2F4B00F0AAF844
:10452000CDE90201BDF9001002A800F079F90500FB
:1045300037D5641EEAD134E0012C32DB0FF2A80536
:104540000826E00707D5D5E9000153EC182B00F049
:1045500091F841EC180B64100835761E012C01DB34
:10456000002EEED153EC182B02A8FFF761FF0500D7
:1045700017D5012C15DB02A9684600F0EBF9DDE93F
:104580000201164A164B00F075F8CDE90201BDF99B
:10459000001002A800F044F9050002D5641E012CA9
:1045A000E9DA28B200281CBF2DB2012D08D100F095
:1045B00037FB222101601FB1386840F001003860EC
:1045C000DDE9020104B0BDEC028BF4BD0000000087
:1045D0000000F03F436FAC642806C80A3CBF737FFD
:1045E000DD4F1575000000000000000000002440B1
:1045F0000000000000005940000000000088C34097
:104600000000000084D797410080E03779C3414320
:10461000176E05B5B5B89346F5F93FE9034F384D28
:10462000321D30F94877825A3CBF737FDD4F1575D4
:1046300030B4436803F000420121C3F31303436025
:10464000002B04BF0368002B08D10DE00368DD0FC9
:1046500045EA440444605B000360491E4468E30289
:10466000F4D5C4F31303436043681A434260084619
:1046700030BC7047B0B581EA030C0CF0004C40F23E
:10468000FF7515EA11541DBF15EA1357AC42AF422E
:1046900039E0E41923EA455343F48013C90241F099
:1046A000004141EA505EC7021100A7FB0202002848
:1046B0004FF00000EEFB01204FF00001E3FB07216B
:1046C00018BF42F00102401800214941E3FB0E01EE
:1046D000A4F580640F0302D252004041494154F1D5
:1046E00001046CDD470872F1004250F1000051EB0B
:1046F0000451A1F580115CBF41EA0C01B0BD4CEA48
:1047000005510020B0BD05EA1357AC4214BFAF42BB
:1047100041E050EA410E1CBF52EA430E02E06146FE
:104720000020B0BD24423C441BD15FEA070EF6D006
:10473000090302BF01460020AEF1140EB1FA81F761
:10474000AEEB070401FA07FE0C37C7F1200100FAAF
:1047500007F7C8404EEA000E23EA455343F480139E
:10476000A2E733F00043B3FA83F704BFB2FA82FE44
:1047700077440B3FE41BB7F1200E2FBF02FA0EF374
:10478000BB40C7F1200E22FA0EFE38BF43EA0E03EB
:10479000BA40641C82E750EA410E14BF52EA430E4D
:1047A0006FF000014FF4001717EB430F8ABF194653
:1047B00017EB410FB5E74CEA05510020B0BDD4F12D
:1047C0000104B4F120070FDAC4F12007520828BF12
:1047D00042F0010210FA07F501FA07F7E1BF2A4398
:1047E000E0403843E1400FE0352C98DCC7F120046D
:1047F00052EA400220FA07F218BF42F0010231FAF1
:1048000007F0A1400A43002172F1004250F100007C
:1048100051EB0C01B0BD0268531C0360117070476E
:1048200070B504460D466068C0F30A5040F2FF714F
:10483000884207D16068000304BF2068002817D0B1
:10484000022070BD20B92046FFF7F2FE012866DA8B
:10485000012D0FDB40F2FF71091A8D420AD3606807
:1048600000284CBF9FED2F0B9FED300B84ED000B0C
:10487000012070BD4142A942616806DA6FF31E5102
:10488000401941EA0050606040E0401E63684519ED
:10489000012205F1350062F31F53352801F0004174
:1048A000636003D361600020206070BD002015F1BB
:1048B0001F0F04DA206823600022203562606A42FC
:1048C00012D0401E25688041C2F12003C0439D40A4
:1048D00045EAD07025686668D54006FA03F32B4395
:1048E00023606368D340636062680A43B0F1004F9D
:1048F000626003D80DD12078C0070AD52068401C1B
:104900002060206828B96068401C60604FF0FF306C
:1049100070BD6068884204BF20680028F6D100207E
:1049200070BD00BF000000000000F0FF00000000AC
:104930000000F07F90420CD141EA030C50EA4C0C8D
:1049400007D0994205D14FF4001C1CEB410F38BF32
:104950008942704738B50C4605466068C0F30A5076
:1049600040F2FF7188420BD100202880606800036C
:1049700004BF2068002801D0022032BD012032BDD2
:10498000012804DA2046FFF753FE01280ADA62689C
:1049900040F2FE3161F31E526260401A28804FF0EF
:1049A000FF3032BD0020288032BD03681AB95A1E7C
:1049B000026008467047197811B94FF0FF30704710
:1049C000591C0160187870472DE9F04140F2FF75DD
:1049D00081EA030C0CF0004C15EA11541DBF15EAD6
:1049E0001357AC42AF42E9E0BC41C1F31301C3F33A
:1049F0001303801A994143F4801304D2641E4000CB
:104A0000494180185941C90241EA5051B1FBF3F6BE
:104A100003FB1611A2FB0675D7EBC020A94102D2F9
:104A2000761E80185941C90241EA5051B1FBF3FE8C
:104A300003FB1E11A2FB0E75D7EBC020A94103D2C8
:104A4000AEF1010E80185941890241EA9051760574
:104A500046EA8E2EB1FBF3F603FB1611A2FB067598
:104A6000D7EB8020A94102D2761E80185941C90295
:104A700041EA50514EEA060EB1FBF3F603FB161164
:104A8000A2FB0675D7EBC020A94102D2761E801882
:104A90005941C90241EA5051B1FBF3F703FB171129
:104AA000A2FB0735D3EBC020A94167F100070CBF7B
:104AB000004247F0010766F3D5274FEA1E31B808D8
:104AC00014F5806414DDBD0775F1004250EB0E5003
:104AD00051EB045111F5801F5CBF41EA0C01BDE8A8
:104AE000F0814CF07F6141F0E0410020BDE8F081B1
:104AF000BD076D0840EA0E5041F48011D4F1010465
:104B0000B4F120060ADAC4F120060200E04001FAFE
:104B100006F3E1401843B24015430EE0342C14DC98
:104B2000C6F1200445EA40056D0820FA06F2154357
:104B300021FA06F0A1400D43002175F1004250F129
:104B4000000051EB0C01BDE8F08100205FEA0C0190
:104B5000BDE8F081CFB992185B41B3FA83F704BF87
:104B6000B2FA82F6BF190B3FB7F120062FBF02FA47
:104B700006F3BB40C7F1200622FA06F638BF3343DE
:104B8000BA401CB1E419641E2FE77F4231F00041A6
:104B9000B1FA81F404BFB0FA80F6A4190B3CB4F169
:104BA00020062FBF00FA06F1A140C4F1200620FA2A
:104BB00006F638BF3143A0403C1B16E7AC421ABF93
:104BC00005EA1357AF4214E050EA41061CBF52EA0F
:104BD0004306BFE750EA4107304661461CBF41EA41
:104BE0000551BDE8F08152EA430C08BFC143BDE85E
:104BF000F08100204FF4001616EB410F98BF16EB22
:104C0000430F08BF16EB410F24BFC14305E016EB6D
:104C1000430F0CBF61464CEA0551BDE8F08100002E
:104C2000014800F003B800005C65002070470000F8
:104C300010B584B01C4602F00F010291C2F30311BB
:104C40000191C2F303210091130B02461149012087
:104C500000F053F80698062806DA0F4951F820208C
:104C60000AA1012000F049F822460C49012000F079
:104C700044F8079A0A49012000F03FF804A10120F6
:104C800004B0BDE8104000F03EB8000020257300DD
:104C9000000000007C340300A03403008C340300C7
:104CA000983403001CB5059C0194049C0094FFF704
:104CB000BFFF13BD5E4908804FF6FF71884205D0E3
:104CC000010A05D159490978084002D001207047EE
:104CD0000020704770B50C4615461E46FFF7EAFFE8
:104CE00050B132462946012000F0FAF924B10120E2
:104CF000BDE8704000F0D7B970BD0CB480B502AB10
:104D00000A46002104E00CB480B502AB0A4601213A
:104D1000FFF7E0FF01BC5DF80CFB2DE9F84381468D
:104D20000E4617469846FFF7C5FFD8B10025089CE8
:104D300010E0325C41464846FFF7DFFFE81005EB24
:104D400010700011A5EB0010062804BF484600F0C3
:104D500071F86D1CBD4205DA20001ABF781B401E99
:104D60002846E6E7BDE8F18380B50023009328A339
:104D7000FFF7D3FF01BD10B582B0002B14BF25A3F0
:104D800025A3002400940EE010B500E010B582B019
:104D9000044622A100F00AF8012000901EA3082278
:104DA000214623480088FFF7B8FF13BD204800883C
:104DB000A3E700B58BB02822694600F099FB05E017
:104DC00000B58BB02C236A4600F098FB28B16A46E8
:104DD00013A117480088FFF790FF0BB000BD10B576
:104DE000044601230822214600F00FF80DA1FFF729
:104DF000DDFF0123082204F1080100F006F80AA1F2
:104E00000B480088BDE810407DE709480088B2E7FC
:104E10002563000025782000257800003E00000072
:104E2000257300002000000000000000BC6400208A
:104E3000EE7E002080B5FFF73DFF20B10120BDE8E8
:104E4000024000F085BC01BD70B51346104402E07D
:104E5000A4192C705B1EDCB24CB101F00F060909DD
:104E6000451E28460A2EB4BF30243724F0E71044EC
:104E700070BD70B5002341B1002806D52D211170F9
:104E80000123B0F1004F18BF40420021002400254B
:104E900004E0874E56F82460801B6D1C844E56F843
:104EA0002460B042F5D2EEB20EB90E0005D005F185
:104EB0003001DBB2D1545B1C0121641C092CE6DB00
:104EC0003030DBB2D054581CC0B270BD2DE9F24F67
:104ED00094B080461546994602AE12A8009000276D
:104EE00000240BE001246D1E0098864205D300F0DB
:104EF000D3F8002859D100F0CBF86D1C2878002891
:104F00000BD0252803D014B906F8010BECE7002CD0
:104F100014BF00246D1C2878002800F0AF802538CD
:104F200016D00B38092840F2898028380ED00A386C
:104F300010D0401E3FD0401E5DD008385BD0001F0F
:104F40003CD0C01E3AD0801E55D0C01E6DD0CBE7DD
:104F50002520D9E7D9F80000019009F10400D0F824
:104F600000A000F104094FF0000BD345BCD202228F
:104F7000019810F80B103046FFF766FF06460098C0
:104F8000864205D300F088F800280ED100F080F8A2
:104F9000AAF1010083453CBF202006F8010B0098D0
:104FA000864205D300F078F800286DD100F070F843
:104FB0000BF1010BD9E759F8040BA5E759F804AB3D
:104FC00000F06AF800285FD100F062F84FF0000BA3
:104FD00001E00BF1010B5FFA8BFB1AF80B000028C4
:104FE000F7D15A4651469DF85000C04700284BD192
:104FF0005F44FFB278E728786C280BD159F8040B8E
:10500000697875290FBF002101216A78642A07D1C8
:105010006D1C05E0752859F8040B0CBF0021012117
:105020003246FFF726FF36185EE759F8041B0222C6
:10503000C9B23046FFF708FF064655E701246878F5
:10504000782818BF5828F8D16D1C002415F8010CD9
:10505000322804D159F8040B042281B2E9E734283C
:105060007FF440AF59F804AB04224FEA1A413046AE
:10507000FFF7EAFE04221FFA8AF1DBE700F00CF8E2
:1050800010B9F019C0B200E0002015B0BDE8F08FF3
:10509000F719FFB202AE704702A8361AF2B202A99F
:1050A0009DF85000404701A112E000000D0A0000E9
:1050B000A43903000CB438B5044604AA00F010F873
:1050C00005462046FFF7EFFF284632BC5DF80CFB93
:1050D0000CB480B502AA00F003F802BC5DF80CFB2A
:1050E00080B501F059F8C0B202BD00008D4938E02A
:1050F00080B5014606220FF2D0501EE038B50446B6
:105100000D4606220FF2C051284601F03DF9214616
:10511000A81DBDE8344001F0C4B938B504460D46B9
:10512000FFF7E6FF28B11DB1A01D01F0B0F92880FE
:10513000012032BD80B508227A4901F08EF9401E67
:105140008041C00F02BD00B583B000A900F011F886
:105150000822754900A801F080F9401E8041C00F67
:105160000EBD10B500F00DF8207880F00200207020
:1051700010BD10B500F005F8E07980F00200E07194
:1051800010BD0C4601460822204601F0D0B938B5C2
:10519000044601F02EFD054600A92046FFF7BDFF9D
:1051A00000281CBF4FF6FE70854205D0BDF80000F8
:1051B000854201D1012032BD002032BD10B5044628
:1051C00000220F2101F0A4F910B1E07B012800D0EA
:1051D000002010BD10B50C4604F10801FFF78EFF4A
:1051E00014E038B504460D4602F022F828B12946ED
:1051F00004F10800BDE834408FE732BD10B5044625
:105200000822484904F1080001F0BEF82046BDE834
:10521000104002F001B810B5044602F009F817E09A
:1052200038B504460D4608220FF2A441284601F085
:10523000ABF805F108012046BDE8344091E780B5A0
:1052400008220FF28C4178E710B50446FFF7F7FF0C
:1052500038B104F10800FFF74BFF00F0010080F0C7
:10526000010010BD10B5044601F0C3FC4FF6FE71FD
:10527000884205DA01F0BDFC2146BDE81040A9E7EF
:105280002046BDE81040B9E710B5044602F0EFF93A
:1052900018B92046BDE8104090E7012010BD017804
:1052A000FF2904BF4178322907D1817829B9C17813
:1052B000402904BF001D01F0BBBF002070470178EA
:1052C000FF2904BF4178332907D1817829B9C178F2
:1052D000402904BF001D01F0ABBF002070470178DA
:1052E000FF2906BF40780128002070470178FF2978
:1052F00004BF4078022801D1012070470020704788
:1053000038B50446094D08222146281D01F03CF815
:10531000214605F11400BDE83840082201F034B8F8
:105320000000000060770020747B0020F462002001
:1053300010B581280B4601DB002010BD802814DA4F
:10534000C408C0F10800012200EBC400E15C02FACD
:1053500000F0401E21EA0000E054C4F10F02E01802
:1053600092B20021401C01F071F8012010BD2DE91E
:10537000F84708B40646180090B08846914611D008
:1053800001A8102102F0ECF926B11022314601A843
:1053900000F0FAFFB9F1000F06D001A94046FFF76F
:1053A000C7FF002800F09880FF260024FF27009602
:1053B0002546A24601A800EB4A0001F068F820B992
:1053C000FF2F08BF5746641C05E0FF2F03D000F0F5
:1053D00086F8FF2700240AF1010ABAF1080FE9DB79
:1053E000FF2F01D000F07BF8012D08BF0096009838
:1053F00005AE00272C180098874201DBA7422CDB62
:1054000001A800EB470001F042F817B13A2106F875
:10541000011B314600230022950000FA05F52D13EB
:1054200005F00F0C002B08BFBCF1000F01D1032ABF
:105430000CD10B46591CBCF10A0FB4BF4FF0300E13
:105440004FF0570EF44483F800C00123521C042A85
:10545000E2DB881BC0B2861904E0B84204BF3A20E0
:1054600006F8010B7F1C082FC5DB082C04BF3A206F
:1054700006F8010BB9F1000F1CD02F2006F8010B24
:10548000B8F1640F404605DB3121643806F8011B92
:10549000C0B201E00A280ADB0A2190FBF1F101F118
:1054A000300206F8012B0A2202FB1100C0B2303094
:1054B00006F8010B002006F8010B05A91A98711ACD
:1054C000884208D305A8321A109892B205A900F0B4
:1054D0005BFF012000E0002012B0BDE8F0870098DB
:1054E000FF2802D0E4B2A54201DA0097E5B2704786
:1054F00080B500920B460022002103E080B50093A6
:1055000013460122FFF733FF02BD2DE9FE4F05468A
:10551000080090B040D0180001D010003CD065B910
:1055200010981022002100F091FF9DF848000028FB
:1055300002D0119900200870BDE02C21284602F00D
:1055400012F904462C2C27D205A82C2102F008F9C8
:10555000A2B2294605A800F017FF9DF848000024D4
:10556000D8B12F2105A802F009F905001FBF04706A
:10557000451C287800280FD0287870B115F8010B49
:1055800001F047F80A2807DA0A2114FB01F151FA61
:1055900080F4A4B2812CEFDB84E001A8102102F09A
:1055A000DFF89DF8140000253A28A946AB46A84626
:1055B0000CBF01260026AA4619E082F0010001EA8C
:1055C0000902384082F0010210426BD0012E08BF60
:1055D000002967D029B10AF1010A4FF001098DF8BD
:1055E00000504FF0000BD84600260AF1010A05A82A
:1055F0001AF8000098B33A280CBF0127002701F0E1
:1056000008F805A9514449784A1E9241D20F3A2917
:105610000CBF012100210FB9102843DA102D41D011
:105620001EB1022EC9D0C8D3DFE7002F3AD1B8F19E
:10563000040F37D04FEA0B1353FA80FB08F1010037
:105640005FFA80F851EA0200CFD001A81FFA8BF16F
:10565000281800F026FFAD1CEDB20226C5E7B9F10F
:10566000000F15D0C5F110095FFA89F6002E19D088
:105670009DF8001001A80F186A1AD2B23946F01925
:1056800000F082FE32460021384600F0DFFE01E0E5
:10569000102D07D19DF8480040B101A9E0B2FFF7F5
:1056A00047FE08B9002007E01198047010221098F6
:1056B00001A900F069FE012013B0BDE8F08F0023BE
:1056C000002222E7012320E7000000FFFE00000087
:1056D000FE80000000000000F0B58BB004460F46CD
:1056E00015461E460120210003D10021002000F0B4
:1056F000BEFB012C0AD168462049242202F05AF848
:105700001020ADF82400ADF8260003E0022C18BFED
:10571000032C11D10197ADF80C50012E08BF4FF4A6
:10572000805003D0022E03D14FF44050ADF80A0050
:105730006946204600F09BFBC0B20BB0F0BD00F004
:105740005BBC80B500F066FCC0B202BD00F0E6BCF8
:1057500080B500F0CDFDC0B202BD0CB410B5002480
:1057600002AB0A4601460648FFF7B0FB00B9012428
:10577000204610BC5DF80CFB00000000C839030097
:10578000C5620000704700F0E3BD0000012100F099
:105790001F029140DFF8902905E0012100F01F026F
:1057A0009140DFF88829400942F820107047012114
:1057B00000F01F029140DFF87829F4E7890001EB3F
:1057C000401000F1844002607047DFF868190860FB
:1057D0007047DFF86419096821EA000003E0DFF888
:1057E000581909680843DFF850190860704710B568
:1057F0000122DFF848393024604318440C30BDE8FA
:105800001040DBE781647047C26C22EA0101C16489
:105810007047C26C1143C164704741637047826B2B
:1058200022EA010181637047826B114381637047F3
:1058300002F000BE72B6DFF82409006810F1010F13
:1058400006D0DFF818090068401CDFF8101908605E
:10585000DFF8080900687047DFF80009006848B100
:10586000DFF8F8080068401EDFF8F01808600868E4
:1058700000D162B6704700B583B0002001900120CE
:105880000090002301220121002003F093F807BDBE
:1058900080B50220FFF799FF0220BDE802409EE795
:1058A00080B50220FFF795FF0220BDE802408CE79B
:1058B00080B5DFF8D408006848B1DFF8CC0800688C
:1058C000DFF8C81808600020DFF8BC18086000F096
:1058D00028F80B20FFF75AFF0421DFF8B408FFF780
:1058E00098FFBDE80140D3E780B50421DFF8A008A8
:1058F000FFF788FF0421DFF89808FFF785FF00F025
:1059000010F80B20FFF749FFDFF88008006828B186
:10591000DFF878080068DFF870180860BDE801401B
:10592000BEE70B2043E7DFF86C2852F820205268CE
:105930009288DFF8603853F820004089401A82428C
:1059400001DA0120704700207047012801D80120AA
:1059500070470020704738B504460D46012C40D1F1
:1059600000F034FB90F83200E8B900F042F8FFF79D
:1059700049FFFFF7D6FF45B100F03BF8FFF749FFBD
:105980000B20FFF703FF052107E000F032F8FFF7D7
:105990003BFF0B20FFF701FF002100F023F8BDE8DB
:1059A000344003F0D5B800F024F8FFF736FFFFF7D6
:1059B000B8FF45B100F01DF8FFF736FF0B20FFF7E9
:1059C000E5FE052107E000F014F8FFF728FF0B20A3
:1059D000FFF7E3FE002100F005F8BDE8344003F0D6
:1059E00030B931BDDFF8AC0750F824008069006899
:1059F00070470421DFF89C0750F824008069006894
:105A0000704710B50446112909D1002100F038F87B
:105A100000F0D5FA08732046BDE810409BE1132939
:105A200006D1012100F02CF800F01BFA087310BD1C
:105A300000F0A5F80288104400F039F800F098F85A
:105A400000F04CFB00F03CFB9288891A89B240B907
:105A5000DFF8402752F82420D2898A42A8BF0121CA
:105A600007DA01280BD100F0F3F9008A814206DB46
:105A7000002100F0ABFABDE8104002F032BE10BDCC
:105A8000DFF8100750F82400806902F037BE80B5B7
:105A9000DFF82C080068000608D5DFF8F40603F0EC
:105AA000C1F801460120BDE80440AAE701BD01722A
:105AB000DFF8E00650F8240000680088401CDFF89A
:105AC000D41651F82410098990FBF1F201FB120061
:105AD000DFF8C01651F8241009680880DFF8B40612
:105AE00050F8240000688088401CDFF8A81651F8A0
:105AF000241009688880704710B584B000F020FB3E
:105B0000002834D0012C1CBF022C032C2FD1FFF70E
:105B100091FE01AB6A4600F058FA02F091FD00F0E8
:105B200097F90289009989B200F029F800F02DF860
:105B3000FFF792FE00F01CF8012818D100F035FAAA
:105B400009688988401A00F01CFA098A88420EDB2D
:105B500000F03CFA90F83100022803D100F0D2FAAC
:105B6000022802DA00F03FFA01D100F016FA1FBD58
:105B7000DFF8200650F82400806902F0D8BDDFF875
:105B8000140650F824000068704770B500F065F9FD
:105B9000FFF750FEE088A8420ED22088E188401A24
:105BA000401990FBF6F106FB11002080A088281810
:105BB000E188401AA080E580BDE870404CE610B551
:105BC00004460FF23903E2892068618A5143084490
:105BD00000F10801A06902F01DFEA06902F02EFD8F
:105BE000022803DB0021A06902F07BFD608A401CD3
:105BF000A18A00F0A8FA608210BD000070B50446CA
:105C00001D46002600F0A0F844D100F05DF802899E
:105C1000A9B200F059F80068FFF7B7FF002000F0C4
:105C200045F8C88003E000F04FF8FFF7C8FF2046B2
:105C300002F004FD03282DDA00F046F8408ADFF870
:105C4000541551F82610C989484380B200F02EF847
:105C500089880029E7D000F029F8498800F01EF86B
:105C600002DA00F029F811DB00F020F80988DFF8EB
:105C7000242552F82620126852889142D3D2114628
:105C800000F00CF802DB00F017F8CCDA0121204616
:105C900002F027FD761C042EB4DB70BDDFF8F4247F
:105CA00052F82620D289821891427047DFF8E41416
:105CB00051F8261009687047DFF8D81451F82610FB
:105CC0000968098888427047DFF8C80450F8260040
:105CD000704738B504460D46FFF7ACFD00F085F877
:105CE0004088281800F034FADFF8A82452F824205D
:105CF000526890FBF1F301FB1300508000F036FA7C
:105D0000491B8180BDE83140A6E570B504461D46BB
:105D1000002600F019F80DD100F010F88088A84294
:105D200003D200F00BF8818800E0294689B2F0B276
:105D3000FFF7CFFF761C042EEBDB70BDDFF85404B9
:105D400050F8260040687047DFF8480450F82600F5
:105D50008069A042704770B584B0044600F000FA34
:105D600035D100F042F84188084400F108056B463F
:105D700001AA00F02AF902F085FC00F036F88088CC
:105D80000099401A0199461A00F0F6F900F020F83F
:105D9000884213D2DFF8CC3500F021F800F018F873
:105DA000421A00F028F890B900F019F8301A00F003
:105DB0000FF80E1800F019F800F10805DFF8A43507
:105DC000F2B200F018F810B900F0DBF848737FBDAC
:105DD000DFF8C01351F82410496849887047DFF88C
:105DE000B40350F8240040897047DFF8A80350F846
:105DF0002400406870472946DFF8980350F82400D3
:105E0000806902F05DBD70B500F027F8012C1CBF61
:105E1000022C032C1BD100F01BF8007B18B100F002
:105E200020F8487370BD00F013F8407B18B120468D
:105E3000BDE870408FE7DFF82C35FFF7DDFF30B1AC
:105E4000DFF820353246FFF7D6FF0028F8D170BDC5
:105E5000DFF8400350F82400704704460D4616460C
:105E600070470120DFF82C1351F82410704738B523
:105E700000F0A9F908B9012032BD204600F068FA07
:105E8000002874D0DFF8E00400F080F80860DFF844
:105E9000DC0400F07BF84860DFF8D40400F06FF811
:105EA0000881DFF8D00400F06AF84881200003D1AF
:105EB000BDE8314002F0D4BE012C1CBF022C032CE3
:105EC00052D100F055F800F05CF88861DFF8A804C2
:105ED00050F82400A861DFF8A40450F82400E86119
:105EE000E88CA98C884203D200F076F8022032BDFB
:105EF000084600F046F8C881E88C00F042F80882B5
:105F0000294600F035F8FFF793FC00282FD1012334
:105F1000022200F02DF8017F00F02AF8007E02F046
:105F200091FD287C012806D101212046FFF713FDB1
:105F300000F033F80EE000F042F8488200F035F847
:105F4000C98990FBF1F000F01CF8888200F0E1F8BC
:105F500000F0DFF8012304220521002002F072FD89
:105F600005210020FFF743FCFFF785FC002032BD30
:105F7000DFF80C0400EB840050F8040C704730F894
:105F80001400DFF8101251F82410704750F8240064
:105F9000DFF8001251F8241070470021DFF8F401F7
:105FA00050F82400806902F09CBBDFF8E80150F84B
:105FB00024000089DFF8DC1151F82410704700201C
:105FC000DFF8D01151F82410704702A9DFF8C4019E
:105FD00050F82400806970471C21DFF8B80150F8A0
:105FE000240001F0BDBBDFF8AC0150F8240080694B
:105FF00090F831000128704710B50446FFF77CFD8A
:1060000000F001F810BDDFF88C0150F824000068A2
:106010008088704738B500F0D6F808B9012032BD45
:106020002046FFF769FDFFF7EEFF002846D0FFF797
:1060300001FCFFF7A4FD41880844007A2870FFF7AF
:106040009EFD4088401C00F049F800F07CF800F00C
:106050004BF84880FFF7D7FF401E00F045F88880D6
:10606000FFF7C1FF02D125E000F053F800F04AF835
:1060700002281FDAFFF7ECFE408AFFF782FFC9898A
:10608000484380B200F030F8498800F01FF802DA87
:1060900000F030F80EDB00F027F8098800F010F867
:1060A00052889142E0D2114600F010F802DB00F075
:1060B00021F8D9DAFFF7D0FB002032BD262032BD0F
:1060C000DFF8D02052F8242012687047DFF8C4208F
:1060D00052F82420D289821891427047DFF8B41018
:1060E00051F8241009897047DFF8A81051F82410DE
:1060F00009687047DFF89C1051F824100968098876
:1061000088427047DFF88C0050F82400806902F064
:1061100095BADFF8800050F8240050E51D4951F889
:10612000200040688088704700E100E080E100E0E6
:1061300080E200E024A4004028A4004000A0004029
:106140000446FFF702BC90FBF1F201FB120070471E
:10615000104951F824104989704700004C6D002007
:106160000C4850F82400007B00287047094850F87C
:106170002400406881887047064850F82400406831
:1061800000887047000000006C200E400C6B00205F
:106190000000014024610020F8B500F00FF808B9B4
:1061A0000120F2BD002733462A4621460FF2210086
:1061B000FEF78CFE00B901273846F2BD04460D46B5
:1061C0001646FFF7C2BB04460D46FFF7BEBB0000F4
:1061D0002DE9F047804689461646FFF7B6FB08B919
:1061E000012059E05FEA080004D13146484602F038
:1061F00036FE50E000F05DF800F1080A00240025AA
:1062000030E0FFF717FB00F054F819F8011B01729A
:1062100000F049F8401C5B4951F828104989FFF704
:1062200092FF584951F828104968088000F036F864
:106230008188491C818000F036F8471EBF41FF0F5E
:10624000FFF70AFB6FB1681C071BFFB23A465146C5
:106250004046FFF7D8FD3C19E4B200F01FF800F10A
:10626000080A6D1CE8B2B0420DD200214046FFF78B
:106270005AFB0028C5D1434850F82800007B00286D
:10628000F3D0222008E0B44205DA321B92B2514624
:106290004046FFF7B8FD0020BDE8F087394850F8C8
:1062A000280040687047374850F828004068008848
:1062B0007047344850F82800406801880844704707
:1062C0001000014070B5FFF779FF08B9012070BDDB
:1062D000200005D13146284602F0C1FD002070BDE6
:1062E00032462946FFF772FEBDE8704002F021BA3F
:1062F00010B5FFF725FF08B9012010BD200002D11D
:1063000000F019F8FCD1012C1CBF022C032C10D179
:1063100000F011F8FCD1FFF759FE02F0AFF90028A8
:10632000F6D100F00FF88006F2D500F00BF88004EB
:10633000EED5002010BD134850F824004068808836
:10634000002870470F4850F82400806902F04EB9C9
:106350000C4951F82000006808B90120704700205E
:10636000704700000B5D0000446100203461002094
:106370009C390300943903005461002064610020BB
:106380001861002024610020814233D21044401E55
:106390001144491E10E0121F11F8013900F80139AB
:1063A00011F8013900F8013911F8013900F8013903
:1063B00011F8013900F8013992B2042AEBDA93B2EC
:1063C000002B1EBF11F8013900F80139521EF6D119
:1063D0007047121F11F8013B00F8013B11F8013B17
:1063E00000F8013B11F8013B00F8013B11F8013BBB
:1063F00000F8013B92B2042AEBDA93B2002B1EBFE5
:1064000011F8013B00F8013B521EF6D1704710E035
:10641000121F11F8013B00F8013B11F8013B00F895
:10642000013B11F8013B00F8013B11F8013B00F87A
:10643000013B92B2042AEBDA93B2002B1EBF11F893
:10644000013B00F8013B521EF6D17047130003D008
:106450000A46194602F044BE704710B500E0521ECD
:1064600093B223B100F005F8F9D0181B10BD00203D
:1064700010BD10F8013B11F8014BA342704700001A
:1064800041780078090251FA80F080B270470178B3
:10649000407800EB012080B270470170090A41701A
:1064A00070470A0A02704170704710B50023002837
:1064B00014BF1C46C3F10304E4B25B1C6254120A0D
:1064C000042BF4DB10BD30B50024002814BF254692
:1064D000C4F10505EDB2641C6A54120A42EA036273
:1064E0001B0A062CF1DB30BD30B54A788B78CC78AE
:1064F000097818B120461D460C4602E015460846AC
:106500001A4645EA002044EA022141EA004030BD33
:1065100010B5002300E05B1CDBB28B4205D210F803
:10652000014B9442F7D0002010BD012010BD10B5E2
:10653000002304E0541EE41A645C1C545B1C934268
:10654000F8DB10BD10B5002480B14FF6FF7202E0F9
:10655000944206D0641CA4B2235C002BF8D1944270
:1065600004D176210FF2CC0002F0F0FD204610BDE0
:1065700010F8012B11F8013B0AB19A42F8D0D01A59
:1065800040B2704730B5994228BF1946002303E056
:106590000833401C521C9BB203F10804A14203DBE8
:1065A00004781578AC42F3D08B420DDA007812787B
:1065B0005040C0438024C0B202E05B1C64089BB220
:1065C0008B4201DA0442F8D1184630BDF8B55505C2
:1065D0002D0E02F0070704460E462A46FFF7D4FEAA
:1065E00047B1FF20295DAA5DF840014022EA000082
:1065F00008432855F1BD00210FF24C02002805E0A8
:1066000000F00F039B5C5918C9B20009F8D1084685
:1066100070476128A8BF572107DA4128A8BF372152
:1066200003DA3A28B4BF30210021401AC0B27047C3
:1066300000000000627974652D7574696C69746975
:1066400065732E63000000000001010201020203D5
:10665000010202030203030480B50FF2341002F0BA
:10666000E0FE03F0B3FC0FF2341002F0DAFE03F0A8
:1066700095FE0FF2381002F0D4FE04F04DF90FF23F
:10668000381002F0CEFE04F07BFAB9A002F0C9FE89
:1066900004F084FE0FF2341002F0C3FEDFF8D808D5
:1066A00002F00EFF0FF2341002F0BBFE05F01EF8F0
:1066B0000FF2301002F0B5FE05F0BEF80FF2301008
:1066C00002F0AFFEDFF8B40802F0FAFE0FF2341069
:1066D00002F0A7FEDFF8A80802F0F2FE0FF2341075
:1066E00002F09FFEDFF89C0802F0EAFE0FF23C1079
:1066F00002F097FEDFF8900802F0E2FE0FF244107D
:1067000002F08FFEDFF8840802F0DAFE0FF24C1080
:1067100002F087FE05F008F90FF2541002F081FE36
:10672000DFF86C0802F0CCFE0FF2581002F079FE90
:10673000DFF8600805F0CAF90FF25C1002F071FE94
:1067400005F096FD0FF2581002F06BFE06F013F9FB
:106750000FF2541002F065FE06F0F1F90FF2581036
:1067600002F05FFEDFF8680902F0AAFE0FF258108F
:1067700002F057FEDFF85C0902F0A2FE0FF268108B
:1067800002F04FFE06F00AFABDE8014002F04DBEED
:106790004D41432061726269746572004D4143202E
:1067A000696E6469726563740000000072657472DA
:1067B00079207461626C6500364C6F5750414E20F1
:1067C000667261676D656E74730000006D756C7440
:1067D0006963617374207461626C650077616B65D5
:1067E000757000006170706C69636174696F6E0030
:1067F000666F726D2D656E657267792D7363616E5C
:10680000000000006E6574776F726B2064617461C4
:1068100000000000736C656570792062726F6164BE
:10682000636173742068656164657200676C6F6290
:10683000616C2061646472657373207461626C655D
:106840000000000065787465726E616C20726F756F
:106850007465207461626C65000000004448435018
:106860002061646472657373207461626C650000FA
:106870006368696C64206164647265737320746119
:10688000626C6500737461636B206576656E74205D
:106890007175657565000000436F41500000000090
:1068A0004A50616B650000004D61726B2046756E49
:1068B0006374696F6E730000436F6D6D6973736904
:1068C0006F6E696E670000007363616E207265739E
:1068D000756C747320666F7220636F6D6D6973736E
:1068E000696F6E657200000044544C53204A6F6912
:1068F0006E00000070B5DFF87C460546E0882A0689
:1069000001D4062D04D140F0040005F07F0503E01A
:1069100011B94FF6FB7108402E46022E1CBF032E04
:10692000042EE08008D0052E0DD0062E18BF072EAD
:1069300002D0EA2100F052F9A570A07804280CBF1B
:106940000120002001E00325F6E706F019FDE088AC
:106950004FF6F4710840062E08BF40F0020004D044
:10696000022E14BF032E40F00800E08070BD00002E
:106970005544500010B5F2B006F02AFD04F02CF892
:1069800007F087F909F0D5F909F035FC09F044FE64
:1069900009F082FE0AF051FB00F05BFC00F062FCA3
:1069A0000AF03AFE0BF056FD01200CF0F6FC0CF05C
:1069B000DDFF03F011FC0CF0F4FFDFF8CC47002002
:1069C000A0704FF6FE700CF0B0FD0020E0800DF0DE
:1069D000EFF80DF021FB0FF0CEF810F0C3F905F041
:1069E00053FEBC237F22082142A811F02EF800F0AC
:1069F00012F901A80FF029FFBDF854014FF6FF71FD
:106A0000884236D0BDF8040098BB082342AA0E2164
:106A10000DF106000DF0AEFB102344AA03210DF08A
:106A2000A9FB082348AA02210DF0A4FB08234AAAC7
:106A300007210DF09FFB10234CAA05210DF09AFBB6
:106A40000FF006F9BDF8542101210DF06FFBDFF8BE
:106A5000402700210FF0EBF8032357AA00210DF087
:106A600089FB0DF10601401AADF8040001A80FF0F2
:106A700061FFBDF8040000281EBF9DF80200002839
:106A80000120002100F0D6F872B010BD38B5DFF853
:106A900004170020088002F05FFC02F0E1F8DFF844
:106AA000F8060FF220744168C90703D5006810F09A
:106AB000300F10D10FF2187529460020FEF74DFE59
:106AC00029460120FEF749FE2046BDE834404FF438
:106AD000D47102F03BBB10F095FF20B140F2AD1134
:106AE000204602F033FB02F0C1F9DFF89C460FF2BA
:106AF000FC6011F07FF8607004F1080004F023FFDF
:106B0000DFF8981600200860DFF89416086011F08E
:106B1000FFF804F090FEFFF72DFF0020BDE83240A3
:106B200004F076BE38B50446DFF85C560CF0BAFBCC
:106B300020B1A888002814BF01200220207003F093
:106B400015FB10B903F037FB58B103F024F940B13D
:106B500000F009F828B105F10800BDE8324004F062
:106B60007BBF002032BDDFF83C0611F0E3B810B562
:106B7000DFF83406007818B10FF22C0002F0DDFCCB
:106B800011F0E0FA11F049FB11F0E8FC03F083FD8D
:106B9000DFF8F44504F1080004F06AFF6078BDE80E
:106BA000104011F04EB800005966000000000000CF
:106BB000DFF8D405407811F044B880B503F0D6FA78
:106BC00018B940F22B2100F009F80CF091FA0020DE
:106BD0000CF060FEBDE8014003F0E3B80FF2E450B2
:106BE00002F0B4BA80B50CF088FBBDE802400CF0AE
:106BF000D4BB0CF092BCDFF890158979890758BF97
:106C00000CF07FBC70470CF08CBC0CF08EBC12F00A
:106C1000D1BC0068009004237F220C2100A810F052
:106C200014BF12F0B6BCDFF884057047DFF85805D2
:106C30000078704770B50446DFF84C05067804709C
:106C40000D46C188032C05D141F40041C1800BF0F1
:106C5000BFFB06E04904490CC18014B9012006F0CD
:106C60008FFB2A4631462046BDE8704012F0E8BC52
:106C7000F8B506464E220021FFF7E8FBDFF8F45294
:106C80002878012806F1280421D0DFF82475102285
:106C9000B91C3046FFF778FB06F1100000F0BCFA93
:106CA00006F1180000F0D2FA082207F1120106F1ED
:106CB0002000FFF769FB0CF034FC308512F069FC12
:106CC000A070A878E07012F067FC2071F1BD0EF0A2
:106CD0001DFF0746102207F114013046FFF754FB51
:106CE000082207F1240106F12000FFF74DFB0822DE
:106CF00007F12C0106F11000FFF746FBB7F858002A
:106D00003085042397F86200A0707F220FF2E440E0
:106D100000680090FFF781FF9DF8030020719DF847
:106D20000200E070A878032804D1A87900075CBFAE
:106D30000520E070F1BD2DE9F04104000D4604D1BD
:106D40002846BDE8F041FEF759BA012804D1DFF822
:106D50005C04FEF765FA20E0022820DBDFF82882D9
:106D600002260021404610F0FBFF04E0761C394665
:106D7000404611F022F8070011D002F032FE002840
:106D80001CBF41680029F1D0F6B2A642EED100F155
:106D90000D0110222846FFF7F7FA012000E000203D
:106DA000BDE8F0812DE9F04204460D46764E002103
:106DB000304610F0D5FF1EE002F013FE070016D09B
:106DC000B87A800613D5002C18BF002D08D02B46AA
:106DD0002246294607F10D00FFF7D4FBA84206D151
:106DE000BB7A7A68396807F10D0012F02BFC49462E
:106DF000304610F0E2FF5FEA0009DDD1BDE8F08225
:106E00003EB5614C0021204610F0AAFF16E002F0CA
:106E1000E8FD78B1817AC9070CD54168029100F18B
:106E20000D020168019100210091437F017BC07A2E
:106E300012F01BFC2946204610F0BFFF0500E6D1EA
:106E400037BDAA210170BB2100F8011FCC2100F839
:106E5000011FDD2100F8011F704710B5044612F034
:106E6000A8FD20B92046BDE8104009F013BF10BDB1
:106E700000B5F7B04FF48172002135A8FFF7E6FAAC
:106E800035A80FF057FD35A80FF056FDBC220021A4
:106E900006A8FFF7DBFA4FF6FF70ADF86400BC23DD
:106EA00006AA7F21082010F0E0FD0422002100A89E
:106EB000FFF7CCFA00F02BF80822002104A8FFF716
:106EC000C5FA082304AA7F21052010F0CEFD082270
:106ED000002102A8FFF7BAFA082302AA7F2107209F
:106EE00010F0C3FD08F07AFF00208DF804000423A1
:106EF00001AA7F21032010F0B8FD264804F030FDE0
:106F0000FFF738FD002013F0B5FD77B000BD042376
:106F100000AA7F210C2010F0A8BD0021DFF8940208
:106F200004F0E9BD38B5DFF88C52284604F033FE92
:106F3000DFF88402DFF8844200780C2810D0206843
:106F4000142804D1012013F095FD002006E04FF431
:106F5000FA71284604F0CFFD2068401C206031BD46
:106F6000002020600320BDE8324003F0DBB813F0BE
:106F700012BF000070740020047F0020787500208C
:106F800088770020127F002096740020FA7E00206F
:106F9000FC7E00207874002030B57B4C20780328DC
:106FA00087B065D0012803BF834800780C28702083
:106FB00078D108237F22052105A810F046FD05A8F9
:106FC000FEF794F808237F22072103A810F03DFD67
:106FD000082203A96D48FFF7D7F908237F2206216D
:106FE00001A810F032FD01A80CF0DCFC0EF0E8FD69
:106FF0000EF08CFD054695F8620003F05DF8B5F8DB
:1070000058000CF092FA05F11400FFF79BFAC1B298
:1070100005F114000BF004FA05F124000BF0D0F98F
:1070200005F12C0000F072FB0FF2CC10FFF7F1FD20
:10703000BDF80000FFF7DFFD9DF9030012F0BAFA7A
:107040009DF8020000F032F80AF041F808F0D0FE96
:107050000AF0B3FDA07806280BD100210320FFF72A
:10706000E9FD0AF0AFFD01220021002008F099F9A6
:1070700017E00CF052FA800502D10BF0B2FE10E0DE
:10708000A078032818BF042804D0022805D1A079CD
:10709000C00702D40BF0EAFE03E040F20151FFF713
:1070A0009DFD002013F091FA07B030BD0021FFF7DD
:1070B00021BC80B50FF0EEFE0CF0AEFF32488078B8
:1070C00006281CBFBDE8014006F0FCB901BD000068
:1070D000DC740020F474002000B59BB007A8502198
:1070E00000F03EFB07A8FFF7C3FD0FF21010006889
:1070F00000909DF848008DF803000CF00EFAADF8F2
:10710000000000AA20488078062818BF9DF8470094
:107110008DF8020004237F210C2010F0A6FC0FF252
:10712000E00005A9D0E90023CDE905232448FEF7B6
:1071300020F8082305AA7F21052010F096FC0FF205
:10714000C8001249D0E90023CDE9032303A808228F
:10715000FFF71AF9082303AA7F21072010F085FC06
:107160000FF2AC001149D0E90023CDE9012301A8B9
:107170000822FFF709F9082301AA7F21062010F051
:1071800074FC1BB000BD00007074002088750020E6
:1071900000F8FF073E740020E881E00F5C7B0020D0
:1071A00028740020247F0020BD640020747B002010
:1071B000087B00206C620020E062002088740020C0
:1071C0006077002069702D737461636B2E6300001B
:1071D000537461636B2F4861726477617265204DEF
:1071E00069736D617463680D0A000000000000009F
:1071F000000000000000000000000000000000008F
:10720000000000000000000000000000000000007E
:10721000000000000000000080B5DFF820150A7AA9
:1072200022B10822FFF7B0F8012002BD002002BD04
:1072300080B5DFF808150A7A32B10822FFF70DF998
:10724000401E8041C00F02BD002002BD70470020DB
:107250007047DFF8E80400210172418108220C30F8
:10726000FFF7F4B8DFF8D4140020488170471FB549
:10727000DFF8CC040078000710D4DFF8C844207889
:1072800001280BD100A9DFF8C004FDF7C9FF0121D7
:1072900000A808F0EAF908B1002020701FBDDFF84F
:1072A000A414012008706421DFF8A00404F023BCBA
:1072B0002DE9F84B08B404468B46DFF88084164667
:1072C0000127002108F10A0010F04AFD09E0A87A20
:1072D0003040B04221D07F1C494608F10A0010F02E
:1072E0006CFD5FEA00091AD002F07BFB002E054618
:1072F000EDD11CB9BFB25F45EDD10EE05B4605F1A3
:107300000D02594600F022F85845E4D19DF80000DE
:1073100000281CBF687F8345DDD1284600E000209F
:10732000BDE8F68BF8B500F02CF801E000F024F889
:10733000070006D002F055FB00F004F8A842F5D192
:1073400028E0F1BD00F10D022B4629462046FFF74B
:1073500019B9F8B500F015F801E000F00DF80700D4
:1073600009D002F03EFB817AC907F6D5FFF7EAFFA4
:10737000A842F2D10EE0F1BD394606F10A0010F044
:107380001CBD04460D46DFF8B463002106F10A0077
:1073900010F0E6BC394606F10A00BDE8F8400022CC
:1073A00010F034BD1346012282E780B5FFF7FAFFE3
:1073B00018B1C07A400800F0010002BD1346002257
:1073C00076E780B50022FFF7F9FF30B1807A00F050
:1073D0000300032801D1012002BD002002BD38B501
:1073E00004460D462846FDF72AFFD0B92846FFF788
:1073F0001FFF70B100212846FDF7F3FE28B1FFF70B
:10740000F8FB2146FDF7E6FE32E02046FDF7F6FEEA
:107410002EE02878FF2813D16878032801DB322872
:1074200005D12146DFF82803FDF7FAFE20E0062803
:1074300001DB332814D12046BDE83240FDF7DEBE23
:10744000002240212846FFF7B9FF10B1817A890652
:1074500008D40021002320220846FFF729FF08B99D
:10746000002032BD00F10D0110222046FEF78CFFF6
:10747000012032BD2DE9F84315461E4680460C46D4
:1074800001230022FFF714FF070023D1AB4F07F1C0
:107490000A0010F054FC082806DA0021282002F027
:1074A000A5FB5FEA000901D1002035E00022494632
:1074B00007F10A0010F05BFC484602F092FA07461A
:1074C00028220021FEF7C2FFBD777C77802C04BF05
:1074D000402078771022414607F10D00FEF754FF57
:1074E000002038810A9CBC720B98F8720C98387393
:1074F000099921B1082207F11F00FEF745FFA006F8
:1075000009D53E602346089A7A603146404613F01A
:107510004FFDFFF7C4FE3846BDE8F28370B50D4657
:1075200086B000F031F8060003D12A46214601203A
:1075300025E0802D05DA042106F1150011F0C6FFC3
:1075400005E01022214606F10D00FEF71DFF012087
:1075500004904021002003903020029000200190F0
:107560004FF4E16000900346B27F06F10D00FFF793
:1075700081FF00B101202A46214680F0010006B0BB
:10758000BDE8704013F04FBD04460022402115E7CE
:107590002DE9F043174689B004460D46984601226E
:1075A000FFF70CFF06460122294620460FF02CFE6D
:1075B0008146380900F001070822214605A8FEF798
:1075C000E3FEE6B94FF6FE7081450FD0FFF711FBE1
:1075D00081450BD000F037F8082000F02CF838B3C4
:1075E00001222946204613F041FD21E007B300F0B7
:1075F0002AF8102000F01FF8D0B1012214E0FFF7A4
:107600004EFEB07A00F03000302808BF002F0FD1B6
:10761000002030607060B07202460146002306F11F
:107620000D0013F0C5FC00222946204613F0E0FCB3
:1076300009B0BDE8F0830290019100910B464246EB
:10764000294605A816E707A80021002206C0012048
:1076500004900391704780B5002300228021FFF73A
:1076600027FE18B1807A400900F0010002BD30B554
:10767000044685B004F10805FDF7E1FD18B1284680
:10768000FDF761FD40E02046FFF7D2FD002838D02D
:107690002846FDF74FFDC8B92846FDF778FDA8B983
:1076A00000A92846FDF739FD48B32A48007820B1E3
:1076B000BDF80000B0F57C4F08D00DF05BFF38B18D
:1076C000BDF800004FF63041884201D101201BE097
:1076D000BDF800004FF6F0710840B0F57C4F0ED1B8
:1076E000BDF8000001A900F00F0013F031FD4028A3
:1076F00005DB0022402101A8FFF763FE04E0002023
:1077000002E02046FFF7A7FF05B030BD10B50B4CD7
:1077100038B9FD20207005220020E080601C0E4951
:1077200002E0014608222046FEF72EFE01202072CC
:107730002046BDE81040FDF7E3BD00008C7400203A
:1077400076740020CE7F00208875002078620020AB
:10775000747B0020857700201A7B00207047000092
:10776000002213F05FBD002200E0521C8A4203D2C7
:1077700010F8013B002BF8D110467047C9B2002227
:1077800003788B4208BF024610F8013B002BF7D16B
:107790001046704762B38B0708D0521E11F8013BA8
:1077A00000F8013B00F024808B07F6D1830740F0FE
:1077B000208000BF103A07D330B4B1E83810103A37
:1077C000A0E83810F9D230BC530724BFB1E8081044
:1077D000A0E8081044BF51F8043B40F8043BD2072E
:1077E00024BF31F8022B20F8022B44BF0B78037022
:1077F0007047083A07D3B1E80810083A40F8043B4C
:1078000040F804CBF7D25307E4E70000890001EB0E
:10781000401000F1844002607047890001EB401085
:1078200000F1844000687047DFF8702A3023584325
:1078300010441C30F1E710B5002201E010B5012220
:10784000DFF8583A3024604318440C30BDE810404B
:10785000DCE71CB5049C0194009313460A4601F032
:10786000A9F813BD72B6DFF8380A006810F1010FED
:1078700006D0DFF82C0A0068401CDFF8241A0860E4
:10788000DFF81C0A00687047DFF8140A006848B186
:10789000DFF80C0A0068401EDFF8041A0860086868
:1078A00000D162B67047816470470021DFF8F42987
:1078B00052F82120527F824204D1DFF8E80950F8C3
:1078C00021007047491C0429F0D30020704780B57F
:1078D00090F83110022905D1417F407EFFF7A4FFC7
:1078E000C0B202BD002002BD10B582B0FFF7DDFFBF
:1078F000040021D000F04DF81ED12046FFF7E7FF2D
:107900002075607D022817D100F07DFFA0B99DF899
:10791000000088B194F82E0070B9207D10B194F861
:107920002F0030B1002084F82F00606813F03EFD76
:1079300013BD606813F02CFD13BD10B582B0044672
:1079400000F027F80FD1607D18B1012806D0207D06
:1079500020B9A17FA07EFFF76EFF18E0A17FA07E77
:10796000FFF76CFF13E0012811D1207D00280CBF28
:10797000112013208DF80000204600F02AFF01227C
:107980006946204600F0D5FE204600F06DFF00203D
:1079900016BD94F831000228704770B504460E46B3
:1079A0001546FFF75FFFA088E188884206D30020D4
:1079B0002860FFF769FFDFF8F00870BD2088142207
:1079C0003146504320440830FFF7E4FE208800F0A1
:1079D0001FF8208800F022F82080A088401CA0809A
:1079E000FFF752FF002070BD38B504460D46FFF783
:1079F00039FFA08808B928602AE0608800F008F8FC
:107A0000608800F00BF86080A088401EA0801BE01A
:107A1000142148432044083028607047401CE18806
:107A200090FBF1F201FB1200704738B505460C4699
:107A3000FFF718FFA88808B9206009E068881421BA
:107A40004843284408302060FFF71EFF002032BD65
:107A5000FFF71AFFDFF8540832BD90F8321059B919
:107A600004210268D160016809698907FBD50168B2
:107A7000496F41F0020144E001290CD10421026860
:107A80005160016889688907FBD50168496D41F03B
:107A9000020100684165704790F8321039B90168F9
:107AA000496F21F0020102685167082143E0012972
:107AB00008D10168496D21F0020102685165082171
:107AC00000684160704790F8321059B9012102688E
:107AD000D16001680969C907FBD50168496F41F0A8
:107AE00001010EE001290BD102685160016889682B
:107AF000C907FBD50168496D41F001010068416586
:107B0000704700684167704790F8321039B90168D2
:107B1000496F490849000268516702210BE00129B9
:107B200008D10168496D4908490002685165022180
:107B30000068416070470068C160704700B585B05B
:107B4000012280F82C2090F832209AB9026802F1C4
:107B50001C0304900FF271020392002202924A6801
:107B60000192012200920A680169806813F0F5FB16
:107B700005B000BD012AE9D0002180F82C10F7E7FC
:107B800000B585B0012280F82D2090F8322092B9FE
:107B90000268343204900FF2191303930023029306
:107BA0004B680193012300930B68C168406813F090
:107BB000CEFB05B000BD012A02D102682832E9E7F8
:107BC000002180F82D10F4E738B5144600F052FD7E
:107BD00094F8320040B92068006C800504D500F0AC
:107BE0005EF84FF4007018E094F83200012807D1D5
:107BF0002068C06A000603D500F051F880201CE020
:107C000094F8320060B92068006CC00508D5DFF830
:107C1000200800F046F84FF480702168886411E075
:107C200094F8320001280BD12068C06A400607D5BD
:107C3000DFF8FC0700F035F840202168486301E0D8
:107C400000F05CF8FFF70EFE0098C06858B100988D
:107C5000406800998968431A0098026801692046C3
:107C6000009DED68A8476946606AFFF7BDFE606A3F
:107C7000808820B100F0FEFC00F0E8FD0EE001205D
:107C800020752046FFF759FE002084F82C0094F858
:107C9000310003281CBF2046FFF736FF2AE0DFF83B
:107CA000F40800990861002000998860704700007E
:107CB00038B5144600F096FC00F020F8FFF7D2FD2E
:107CC0000098C06838B100984368026800212046D7
:107CD000009DED68A8476946A06AFFF785FEA06A87
:107CE000808820B100F07EFC00F010FE01E084F8F6
:107CF0002D0000BFFFF7C8FD012032BD0020009914
:107D0000086100998860704708B900F054BB0029E9
:107D100018BF002A02D0B2F5006F00D9BBE20020E4
:107D200070470268DFF870389A4240F063810A7A3F
:107D3000002A45D0012A18BF022A04D0032A1CBFFA
:107D4000042A052A01D100223AE0062A18BF072A90
:107D500004D0082A1CBF092A0A2A01D101222FE0D7
:107D60000B2A18BF0C2A07D00D2A18BF0E2A03D0E1
:107D70000F2A18BF102A01D1022221E0112A18BFB0
:107D8000122A08D0132A18BF142A04D0152A1CBF9F
:107D9000162A172A01D1032212E0182A18BF192A1D
:107DA0000BD01A2A18BF1B2A07D01C2A18BF1D2A5D
:107DB00003D01E2A18BF1F2A01D1052200E0FF228E
:107DC000C2754A7A002A46D0012A18BF022A3FD03B
:107DD000032A18BF042A3BD0052A18BF062A04D05C
:107DE000072A1CBF082A092A01D1012233E00A2AE6
:107DF00018BF0B2A07D00C2A18BF0D2A03D00E2A51
:107E000018BF0F2A01D1022225E0102A18BF112A1B
:107E100008D0122A18BF132A04D0142A1CBF152A0E
:107E2000162A01D1032216E0172A18BF182A0BD0F0
:107E3000192A18BF1A2A07D01B2A18BF1C2A03D0D8
:107E40001D2A18BF1E2A01D1052204E01F2A01D1D4
:107E5000002200E0FF2202760A7A002A18BF012AD7
:107E60005CD0022A18BF032A58D0042A18BF052A5A
:107E700054D0062A1FD0072A21D0082A23D0092A45
:107E800025D00A2A27D00B2A41D00C2A43D00D2A0C
:107E900008BF082242D00E2A05D00F2A07D0102A88
:107EA00009D0112A01D1092238E0122A01D10A226F
:107EB00034E0132A01D10B2230E0142A01D10C2224
:107EC0002CE0152A01D10D2228E0162A01D10E221C
:107ED00024E0172A01D10F2220E0182A08BF00222F
:107EE0001CD0192A08BF012218D01A2A08BF022262
:107EF00014D01B2A08BF032210D01C2A08BF04225A
:107F00000CD01D2A08BF052208D01E2A01D1062246
:107F100004E01F2A01D1072200E0FF22C2764A7A3C
:107F2000002A3FD0012A41D0022A43D0032A45D05B
:107F3000042A47D0052A1FD0062A21D0072A23D099
:107F4000082A25D0092A27D00A2A3FD00B2A41D057
:107F50000C2A08BF082244D00D2A05D00E2A07D0CB
:107F60000F2A09D0102A01D109223AE0112A01D1A1
:107F70000A2236E0122A01D10B2232E0132A01D163
:107F80000C222EE0142A01D10D222AE0152A01D15B
:107F90000E2226E0162A01D10F2222E0172A1DD038
:107FA000182A01D101221CE0192A01D1022218E06D
:107FB0001A2A01D1032214E01B2A01D1042210E065
:107FC0001C2A01D105220CE01D2A01D1062208E05D
:107FD0001E2A01D1072204E01F2A01D1002200E05D
:107FE000FF2202774A7C42768A7C4277CA7C82767C
:107FF000097D5DE1DFF8E8359A4240F04C810A7A6C
:10800000002A45D0012A18BF022A04D0032A1CBF27
:10801000042A052A01D100223AE0062A18BF072ABD
:1080200004D0082A1CBF092A0A2A01D101222FE004
:108030000B2A18BF0C2A07D00D2A18BF0E2A03D00E
:108040000F2A18BF102A01D1022221E0112A18BFDD
:10805000122A08D0132A18BF142A04D0152A1CBFCC
:10806000162A172A01D1032212E0182A18BF192A4A
:108070000BD01A2A18BF1B2A07D01C2A18BF1D2A8A
:1080800003D01E2A18BF1F2A01D1052200E0FF22BB
:10809000C2754A7A002A46D0012A18BF022A3FD068
:1080A000032A18BF042A3BD0052A18BF062A04D089
:1080B000072A1CBF082A092A01D1012233E00A2A13
:1080C00018BF0B2A07D00C2A18BF0D2A03D00E2A7E
:1080D00018BF0F2A01D1022225E0102A18BF112A49
:1080E00008D0122A18BF132A04D0142A1CBF152A3C
:1080F000162A01D1032216E0172A18BF182A0BD01E
:10810000192A18BF1A2A07D01B2A18BF1C2A03D005
:108110001D2A18BF1E2A01D1052204E01F2A01D101
:10812000002200E0FF2202760A7A002A18BF012A04
:108130005CD0022A18BF032A58D0042A18BF052A87
:1081400054D0062A1FD0072A21D0082A23D0092A72
:1081500025D00A2A27D00B2A41D00C2A43D00D2A39
:1081600008BF082242D00E2A05D00F2A07D0102AB5
:1081700009D0112A01D1092238E0122A01D10A229C
:1081800034E0132A01D10B2230E0142A01D10C2251
:108190002CE0152A01D10D2228E0162A01D10E2249
:1081A00024E0172A01D10F2220E0182A08BF00225C
:1081B0001CD0192A08BF012218D01A2A08BF02228F
:1081C00014D01B2A08BF032210D01C2A08BF042287
:1081D0000CD01D2A08BF052208D01E2A01D1062274
:1081E00004E01F2A01D1072200E0FF22C2764A7A6A
:1081F000002A38D0012A39D0022A3AD0032A3BD0AB
:10820000042A3CD0052A1DD0062A1ED0072A1FD0DA
:10821000082A20D0092A21D00A2A33D00B2A34D0A8
:108220000C2A08BF08223FF4DCAE0D2A04D00E2A27
:1082300005D00F2A06D0102A3FF496AE112A3FF43B
:1082400097AE122A3FF498AE132A3FF499AE142A3F
:108250003FF49AAE152A3FF49BAE162A3FF49CAE2B
:10826000172A17D0182A3FF49DAE192A3FF49EAE64
:108270001A2A3FF49FAE1B2A3FF4A0AE1C2A3FF4FB
:10828000A1AE1D2A3FF4A2AE1E2A3FF4A3AE1F2AC0
:108290007FF4A6AEA2E6DFF81806704700A0004003
:1082A0004C6D00209C6F00200A7000F00B7000F0F5
:1082B00081770020704710B582B00446E9B10123F0
:1082C0000422E17EE07D00F0BDFB01230222217F3C
:1082D000207E00F0B7FBFFF75CFB07D100F039F818
:1082E0000023042200F031F801201CE003282AD1E9
:1082F00000F02FF80023042223E000230022E17E77
:10830000E07D00F09FFB00230022217F207E00F013
:1083100099FBFFF73EFB0ED100F021F8002300226D
:1083200000F013F80020009001230122617F607E9D
:10833000FFF78FFA07E0032805D100F010F80023BB
:10834000002200F002F8002016BDA17FA07E00F000
:1083500079BB00230122617F607E00F073BB0023A4
:108360000022617F607E00F06DBBDFF8B4150978F4
:1083700059B90022DFF8AC3543F82120491C042903
:10838000FAD30121DFF8982511700021DFF8942538
:1083900052F82120002A1EBFDFF8882552F821203C
:1083A000824205D1DFF87C2542F821000020704789
:1083B000491C0429EAD3DFF87005704741620021A7
:1083C000436A1980436A5980436A998080F82C1067
:1083D00082621180826A5180826A918080F82D10B9
:1083E00080F82F10704710B5044613F06CF9DFF8D1
:1083F0003C15607F13F075F90020A07520750220F0
:1084000060752046BDE81040FFF797BA10B50446E6
:1084100012F06EFF0021201D12F03FFF28B900214D
:1084200004F1080012F039FF08B1DFF8040510BDAF
:108430000C7000F070B586B004000D466846DFF899
:10844000F41491EC060B80EC060B08BFDFF8D8049F
:108450004CD0002D58D034212046FFF781F920461A
:10846000FFF783FF060041D1287C84F8310028689B
:108470002060002084F8320028684749884236D1BD
:10848000DFF8B4042062DFF8B404E0604FF4402069
:108490002061EA69A9692046FFF790FF68680290A9
:1084A0006889ADF81000A889ADF80E00A87B8DF89A
:1084B0000C00E87B8DF8120005208DF80D0000F00F
:1084C00079F800F072F800F06CF800F082F800F033
:1084D00046FB0320296848672868806F00F06FF822
:1084E000886729462046FFF71CFC80B14FE0DFF883
:1084F000F010884208D1DFF848042062DFF8440415
:10850000E0604FF45020C3E7DFF83C043FE000F0A8
:1085100045F800283BD1FFF7A5F9287C032814D1A2
:108520002868406F40F03000296848672868406E2E
:1085300040F004002968486695F8200095F821105D
:1085400040EA01202968C86704E0022804BF2046E9
:10855000FFF749FF4FF0FF312868FFF7A4F9287CA7
:1085600003280CBF05210421286800F0F1FA4FF41C
:1085700040602968C86012F0BBFE2046FFF746FF46
:108580000646FFF781F9002E14BF3046002006B0E2
:1085900070BD00000D7000F0000001400121204678
:1085A00089E60121206A13F0B9B90121DFF89C03A3
:1085B00013F0B4B90121DFF8980313F0AFB9DFF875
:1085C00094130840297A40EA0120697A084329680F
:1085D000704700208DF80000694628687047000049
:1085E000000401406946A06AFFF71FBA002190F815
:1085F000322012B9006801691EE0012A1CD100680E
:108600008068820748BF0221C20748BF41F00101CC
:10861000420748BF41F00801020748BF41F020016E
:10862000C20648BF41F04001820648BF41F08001C8
:10863000400648BF41F4005108467047406A1EE0BA
:108640002DE9FC4100F046F8606A808870B100F0C6
:1086500011F8804601A9A06812F0E8FE009828B140
:10866000B8F1000F02D100F02CF802E000203860D1
:10867000306020E06946606AFFF7D7B9806A808879
:10868000C0B270472DE9FC4100F024F8A06A808850
:1086900070B1FFF7A7FF804601A9606812F0C6FE1F
:1086A000009828B1B8F1000F02D100F00AF802E0FA
:1086B00000203860306028602046FFF797FFBDE853
:1086C000F68140680199401A30600198386000983E
:1086D0000068704704460D4616461F46002000906D
:1086E000704790F83120032A02D1DFF86C027047FE
:1086F0004175022918BF0175FFF71FB980B590F8C1
:108700003120012A01D1022902D1DFF84C0202BD39
:10871000827D8A4209D081750A0002D100F0A4F856
:1087200003E0012908BF00F054F8002002BD007DDD
:108730007047F8B500F08EF8002849D1A06A80880B
:1087400018B194F82E000028F8D094F8320090B9AF
:108750002068006910F0020702D12046FFF77DF97A
:10876000012084F8300094F8320098B194F8320077
:10877000012828D11FE0012802D120688068E9E79C
:108780000027EAE7206800694006FBD515F8010BD1
:10879000216848633046461E0028F3D120680069EE
:1087A0008006FBD50FE020688068C006FBD515F871
:1087B000010B216888623046461E0028F3D12068EC
:1087C00080680007FBD517B92046FFF765F9002040
:1087D000F2BD10B582B0040000D165E000F013F8DE
:1087E00080B99DF8000068B194F82E0030B9204699
:1087F000FFF76DF810B9606812F0CAFD94F82E000A
:10880000401C59E056E000208DF800006946606881
:1088100012F0EDBDF0B587B000F07CF8A0B900F023
:108820006CF8606AFFF7B9F870B994F82C0050B989
:108830002046FFF748F900F009F894F831000328C2
:1088400001D000F00CF8002007B0F0BD00992046E0
:10885000FFF774B904460D461646FFF755BA0020D7
:1088600020752046FFF769B810B582B0040000D12A
:108870001AE0FFF7C8FFB0B994F82E0000281CBF1B
:108880009DF8000000280ED094F82E00012806D193
:108890002046FFF71CF810B9606812F087FD94F8C5
:1088A0002E00401E08E005E01F4816BD0000000035
:1088B000037000F0284816BD84F82E00002016BD75
:1088C000F0B587B000F026F8A8B900F016F8A06A55
:1088D000FFF763F878B994F82D0058B9FEF7C2FF96
:1088E000A06A808820B100F011F8012084F83000DF
:1088F000FEF7CAFF002007B0F0BD0195029603966F
:108900000497164805906A4601A9704700992046C9
:10891000FFF736B904460D4616461F46FFF7F4B971
:10892000C07F00209C6F0020027000F0E9780000FA
:108930000E7000F0D84603000022040001000C0075
:108940000032040001000D00037000F00025080053
:1089500040410500E0E0FFFF057000F0017000F00D
:10896000890001EB401000F184400260704700F183
:10897000C0600160704700F180600160704738B5E9
:1089800004461546FFF7F7FF29462046BDE8344068
:10899000EDE710B5002201E010B5012200F005F866
:1089A0000C30BDE81040DBE770474A4B3024604391
:1089B0001844704770B50C4615461E46082C07D261
:1089C000A10000FA01F20F2000FA01F1424809E08B
:1089D000A4F108018A0000FA02F20F20890000FACF
:1089E00001F13E48FFF7CBFF082D09D204F0030048
:1089F000A90000FA01F2032000FA01F138480BE067
:108A0000A5F1080104F003008A0000FA02F2032035
:108A1000890000FA01F13348FFF7B1FF32462146E1
:108A20003148FFF79DFF049A21463048FFF798FF31
:108A30000120A04026490860059A21462C48BDE83F
:108A400070408DE7F8B504460D4616461F463000C7
:108A500007D0002F204602D0FFF79EFF01E0FFF76E
:108A600098FF082D1B480DD2302111FB04F108445A
:108A700040680F21AA0091408843A90000F01FF828
:108A8000486010E0302111FB04F1084480680F2198
:108A9000A5F10802920091408843A5F108018900E0
:108AA00000F00DF888604EB9002F2946204602D00C
:108AB000BDE8F44070E7BDE8F4406AE7F1BD06FAAE
:108AC00001F108430349302212FB04F211447047BC
:108AD00024A4004000A0004000A4004004A40040E2
:108AE00008A400400CA4004010A4004014A40040BE
:108AF00028A4004070B50446080015461E4604BF71
:108B0000414812F040FF310006D0202E1AD0402EEE
:108B10001AD0602E1AD070BD1021226822F0600297
:108B2000226022683243226005FB01F2520802EB08
:108B300040106943B0FBF1F02038344901EAC0002D
:108B4000606170BD0821E8E70621E6E70421E4E75B
:108B5000CA43520002F00A02C260C160704738B5D1
:108B600004460D4600F02EF8A87C18B1206840F0AD
:108B700080402060E87C18B1287D40F08000A0652E
:108B8000687BB5F910100843B5F90E100843606012
:108B90002B7BAA6869682046FFF7ACFFFFE7A87D3A
:108BA000000700F0E040E97D090501F4E001084319
:108BB0002066687D18B1206840F4803020602878F5
:108BC000E06031BD40F6AA61C1600021016041F260
:108BD00005014160002181604161C1640C498164EB
:108BE000002141678167C1670A49884202D100219B
:108BF000094A1160002181650849884202D100209C
:108C0000074908607047000040410500F8FF7F00F9
:108C1000F9FF010000000140500001400004014044
:108C20005C04014001690906FCD5FFE7C069C0B2D8
:108C300070470000026CD20702D4426C0A42FCD199
:108C4000704738B500F007F8E843400000F00A002C
:108C50002843606031BD04460D460221EAE700006A
:108C600038B513F0EEF9604D0446287860B95F48D6
:108C7000002141708170A5210170012000F01DF9D3
:108C800000F03AF901202870204613F0D5F90121AF
:108C9000574812F043FE5749012008600020FFF7B3
:108CA00083FE0123042202210520FFF7CBFE0122CF
:108CB0000121042013F040F8012000F0FEF800F03C
:108CC00004F800F019F9002032BD10B54D484B4CA6
:108CD000016841F0010101600022C16841F080712A
:108CE000C160002348494948086049480260424A37
:108CF0001360022323601523464C23600023036482
:108D0000454B0B65454911604FF480713C4A116039
:108D1000016841F48071016010BD3A48006800B1FB
:108D20000120C0B27047D12202704170090A8170DF
:108D30003B490A78C270501C0870042070472DE926
:108D4000F84F80464D1D002713F08EF982464FF6EE
:108D5000FF7B344C15E007EB0800594610F8026C15
:108D6000304613F0EFF983464F4623480068C007AA
:108D700007D527480068C00503D520680028FCD027
:108D80002670FFF7CAFF28B3FFB2EDB2AF4221D27F
:108D900013F06AF9A0EB0A0080B2B0F5FA7F1FDC8D
:108DA00017B95B260127E0E7012F07F1010908BF8A
:108DB0006E1FD9D0E81E874208BF5E46D4D0A81ED9
:108DC000874208BF4FEA1B26CED0681E8742C2D119
:108DD0005D26C9E7F8B2EDB2A84208BF002000D076
:108DE0000120BDE8F28F0000D07F0020F07F00203E
:108DF0000025080010881442800E00E0F00004E016
:108E0000040304E0F0ED00E0B00F00E055CEACC587
:108E1000000E00E0100004E0FF0300400D00010020
:108E2000D17F0020200000E010B50C4602462178DA
:108E300000200529A4BF1046FFF781FF04212170FF
:108E400010BD000003460A4699A10420FFE70CB4B8
:108E500080B502AA00F05CF801BC5DF80CFB21B102
:108E600003460A4693A11120F1E7704700B589B087
:108E700011F0BAFF00210791069105910491039129
:108E80000291019102468C49009100230FF23C218E
:108E90000120FFF7DCFF8948C1784378027803910D
:108EA00081680291818801918178009143200FF2BD
:108EB0002821FFF7CCFF09B000BD81490870704739
:108EC0000EB410B504467E480078A1B080B1FFF71B
:108ED00024FF68B1802200A9022000F0B0F823AB83
:108EE000224600210FF26D10FBF7F0FF00F0D5F8DD
:108EF00021B010BC5DF810FB0C2200217148FDF779
:108F0000A5BA704931F81020521C21F81020704782
:108F10002DE9F04107466A480078A2B00C46904619
:108F2000002690B9002F18BF012F0ED0042F18BFB4
:108F3000052F0AD0312F18BF332F06D0372F1EBF71
:108F40003B2F4FF6FF718F4276D1FFF7E6FE0028E8
:108F500072D0802202A9384600F071F8002C69D046
:108F600007E08DF80400012201A9002000F072F84A
:108F7000641C207800285DD0A0F130020A2A05D2B6
:108F80000A2101FB0600A0F13006F1E7422818BFD4
:108F900044280CD0462827D0572808D0622836D03D
:108FA000662821D06C281CD070281DD0D9E7422813
:108FB00007D158F8042B00A90120FDF776FA012209
:108FC0000DE0572858F8042B00A904D10120FDF723
:108FD0006CFA022203E00120FDF767FA042200A9DF
:108FE000C3E758F8046BC3E758F8041B462807D1B9
:108FF0000026705C00281EBF761CF6B2FF2EF8D14A
:10900000F2B2002000F026F8A0B90026B0E758F828
:10901000047BBFB2002FABD0384600F0F9FC054608
:10902000384600F0DEFC0146EAB2002000F012F8FB
:1090300000289DD000F031F822B0BDE8F08110B5D5
:10904000214C6160227001466068FFF76CFE607021
:1090500010BD0000F8B515000C461B4E1BD07078F3
:10906000317873680F1AFFB2BD42B8BF2F463A4637
:109070002146C018FDF788F970783818ED1B70701C
:109080003C19EDB23DB17068711CFFF7CDFE0028B0
:10909000E5D00120F2BD0020F2BD10B50A4C606899
:1090A000611CFFF7C1FE08B1012010BD607010BD4A
:1090B000574600006C700000747B00203C380300B1
:1090C000CF7F0020A4740020B0740020424238708A
:1090D000424242425742420042424257444200000A
:1090E00062F30F2262F31F42401810F0030308D00E
:1090F000C91A1FD3DB0748BF00F8012D28BF20F88D
:10910000022D130030B414461546103928BF20E94B
:109110003C00FAD8490728BF20E90C0048BF40F8B6
:10912000042D890028BF20F8022D48BF00F8012D2A
:1091300030BC7047C91818BF00F8012DCB0728BFF5
:1091400000F8012D7047000042DE704738B5044634
:109150000D4609F0CDFF13F043F812F072FF2946D7
:109160002046FFF76FFE2B4622466B490120FCF795
:10917000F4FA29462046BDE83440E5E700E0001D4A
:109180006649884203D20168B1F1CD3FF7D0644906
:10919000081A70472DE9F0414FF42066614C62488F
:1091A0000068A06561480068E06561480068206665
:1091B00060480068606660480068A0665F480068B4
:1091C000E0665F48006820675E48006860675E4848
:1091D0000068A06794F8380040074CBF276CE76B25
:1091E000B84613F0C2F860654C4D002121658742F6
:1091F00024BFA5F12001B9421DD3B8696064F869A4
:10920000A064A06DC0F30800062818D1606C4F4917
:10921000884214D34E49884211D200884DF64261EB
:1092200088420CD16068C4F89400A068C4F8980023
:1092300040F2017603E000216164A1648046606D24
:109240004449884238BF0846FFF798FFE064002091
:10925000002104EB8002D167401C0628F9DB0020C6
:1092600003E0C0B204EB8002D167A84527D255F8CD
:10927000041D364A9142F8D3354A9142F5D2CA07C5
:10928000F3D5002204EB8203DB6F8B4202D0521C29
:10929000062AF7DB062AE8D1020014BF401E05208B
:1092A000DFE7E16F002204EB8203D3F8803004EBA8
:1092B0008205EB67521C052AF5DBC4F890100146C5
:1092C000481EC9B20029ECD1A06DC0F308000328E4
:1092D00008D0042809D005280AD006280BD00C286D
:1092E0000FD011E040F6012613E040F6022610E010
:1092F00040F603260DE0B6F5206F0AD140F60426AD
:1093000007E040F6052604E018B1312838BF40F6E2
:1093100007263046BDE8F081503E0300A85D0020DE
:10932000A85D00200000002004ED00E024ED00E036
:1093300000E300E004E300E028ED00E02CED00E0B5
:1093400030ED00E034ED00E03CED00E030440000A2
:10935000A82503009C00002010B5DFF8504A13F048
:109360000BF8606113F004F8A0616069E06118B166
:1093700000F007F8652803DABDE8104095219BE06E
:1093800010BD10B5DFF8244AA069E169884202D215
:10939000A72100F0D4FBA069E169401A4FF6FE71E5
:1093A000084010BDDFF8041A4A69904203D3C96926
:1093B000884200F0F3BC00207047002818BFFFF778
:1093C000F1BF0120704730B1DFF8E0194969401A58
:1093D0004010401C80B2704728B1DFF8D0194969AD
:1093E00001EB4000801E70474088C004C00CC01CC8
:1093F0000004800C4000001D80B2704710B5044688
:10940000FFF7F2FF04EB4000DFF8A0194FF6FF73FF
:1094100000E0801CCA69904202D202889A42F8D0C9
:1094200010BDDFF88C1908607047DFF884190FF65B
:109430007C30086070472DE9F843DFF87059044626
:109440002889B8B36088000434D4DFF864790FF653
:10945000683838680FF6543112F0B4FF20B940F282
:1094600069114046FFF772FE002601E0701C86B2CB
:109470002889864204DB40F26B114046FFF766FE06
:10948000D5F82090396859F8360010B949F83610E7
:1094900003E012F097FF0028E8D109EBC605A88881
:1094A000401CA8802046FFF79FFFE988400010FA83
:1094B00081F0E880BDE8F1830FF6FC20FFF746BE9F
:1094C00070B50446DFF8E408807801281AD12088B6
:1094D000FFF782FF04002FD0022526463046FFF713
:1094E000AAFF708840F40040708036F81500FFF73E
:1094F00073FF060002D070880004EFD56D1C042DA8
:109500001ADAEAE7022817D112F09BFD05462088F7
:10951000FFF762FF06000AD07088800403D54FF47D
:109520000B7100F00CFB30884004400C2080284672
:10953000BDE8704012F080BD70BD00B5ADF2B44D15
:109540004FF4966200A900F071F80DF2B44D00BD21
:109550002DE9F84307468846FFF746FF450078881F
:109560008004800C7880800422D512F06AFD0446C5
:109570003846FFF728FF81464046FFF724FF06469E
:10958000AAB239464046FCF7FFFE0020DFF81C185F
:1095900006E001EB400293894B4508BF9681401CD1
:1095A0000A789042F5DB2046BDE8F24312F044BD54
:1095B000AAB239464046BDE8F843FCF7E5BE10B50F
:1095C0000C4601E0FFF71AFFA04202D241880904CD
:1095D000F8D510BD70B5DFF8D4570446A878012837
:1095E00004BF686A00281CD120460EF0A8FB0228A0
:1095F00017DB002120460EF0B3FB0DE0012100F047
:109600008EFA70B93046FFF7E7FE0088C00B08D12C
:10961000314620460EF0D1FB0600EFD16C620120EE
:1096200070BD2046FFF74CFF002070BD2DE9F74FBD
:10963000DFF87847002092B0E080606212F001FD10
:109640000121A170A188ADF802100021A180E1697B
:10965000019112F0F1FC00212089C200206A92B22F
:10966000FCF7F4FE0DF10200FFF72AFF12F0E9FC0F
:10967000217862785518EDB212F0DEFC4FF0000A46
:1096800006E004EB46000C30FFF71AFF06F1010A72
:109690005FFA8AF6AE42F4DB129848B1002501E089
:1096A00080476D1C1298EDB250F825000100F7D1EB
:1096B000D4F814904FF0000B01250DF1080A019821
:1096C000814502D3BBF1000F37D0BBF1000F06D0AC
:1096D000ABF101005FFA80FB5AF82B8004E0C8462A
:1096E0004846FFF78BFE8146B8F8020000F440417F
:1096F000B1F5004FE3D140F48040A8F80200022603
:1097000038F81600FFF768FE070012D078880104C9
:109710000FD440F4004078803846FFF78CFEBBF150
:10972000100FBDBF4AF82B700BF101005FFA80FBF0
:109730000025761C042EE3DBC1E7002DB8D0656A56
:1097400055B12888FFF748FE4088000447BF002035
:1097500060622846FFF7B4FE0020ADF800008246A4
:10976000606A002590B30088002100F0D8F9ADF8B8
:109770000000294600F0D3F90646BDF8000000F0CD
:1097800047F90546304600F043F98246BDF85000DF
:10979000504518DB304600F03BF90746304600F0F4
:1097A00020F9014613983A46FCF7EEFD3046FFF7E4
:1097B00013FE41888904890C41800022606A314689
:1097C0000EF024FB02E00020ADF800006669B3460D
:1097D000B0460BE03088C00B1EBFD6F80E00002844
:1097E00012F068FE3046FFF709FE064601988642F1
:1097F00023D23046FFF7F8FD81463046FFF7E3FD00
:10980000BDF80010884206D10AEB0500C01C80108C
:10981000400000F1040970880004DBD55846FFF7CA
:10982000D2FD318801F40041084330801FFA89F0ED
:109830000BEB400B06EB4008D4E70220A0700DF1C3
:109840000200FFF73DFE00A8FFF73AFE129860B154
:109850004FF0000902E0804709F1010912985FFA10
:1098600089F950F829000100F5D16769B94611E07E
:10987000022639F81600FFF7AFFD20B1008840043A
:10988000400C29F81600761C042EF2DB4846FFF740
:10989000B5FD8146C145EBD30BE00746FFF7AEFDB2
:1098A0004146FFF78CFE4845F7D30198814529D101
:1098B0003746474545D23846FFF7A0FD064678882B
:1098C0000004F5D500F083F8B84204D1788880040C
:1098D000800C7880ECE704D201463846FFF738FE6A
:1098E000E6E7019707E037463046FFF787FD414638
:1098F000FFF765FE0646464504D2308800F068F85A
:109900008642F0D300F063F801463846FFF720FEA8
:109910000198B946C7E73846FFF766FD0646584640
:10992000FFF751FD8146720092B239465846FCF766
:109930002BFD002249460DF102000EF018FA0BEB48
:10994000460B12F07EFB064616E021784018401EBA
:10995000C0B204EB40000021878981813846FFF7BF
:109960003BFD00F004FA002239460DF102000EF032
:10997000FEF96078401E607060780028E5D1002113
:10998000201D0EF024FAFFF727FD070006D1BDF8D1
:109990000200A080C4F81CB00020A070304612F075
:1099A0004BFB002FB7D1BDF8000068B10446FFF7AC
:1099B00013FD0AEB05014180204600F012F81399CF
:1099C00052462818FCF7E0FC15B0BDE8F08F388847
:1099D0004004400C00E580B5FFF7FEFCBDE8024006
:1099E000EBE410B5040001D1002010BDFFF7F3FF38
:1099F00018B940F2124100F0A2F82046FFF7ECFC43
:109A00000188C90B02D0D0F80A0010BD083010BD83
:109A100000B9704710B5FFF7DFFC0446FFF7CDFC37
:109A200018B94FF4856100F08AF82088C00B01D086
:109A3000208910BD6088C004C00C10BD2DE9F04124
:109A400004460D46FFF7C8FC00F097F818B940F23D
:109A5000364100F097F82046FFF7DAFF804630469F
:109A6000FFF7CCFC454504462DD0454503DB40F2CD
:109A70003E4100F087F83088C00B18BF358122D1F5
:109A800075803046FFF7B0FC06EB4005661B12F010
:109A9000D8FAC649CA69944204BFCD61002612F0C3
:109AA000CBFAB6B2082E06DA32462846BDE8F041B7
:109AB000FF21FCF7CBBC082200212846FCF7C6FC9E
:109AC000A6F108006880BDE8F081F8B507460C46AD
:109AD000FFF782FC06463846FFF79AFF051B8442D3
:109AE000ADB21BD0844203DB40F2674100F027F89F
:109AF0003088C00B06D0D6F80A002818C6F80A002D
:109B00003481F1BD3846FFF76CFF22462918FCF777
:109B10003BFC21463846BDE8F4408FE7F1BD38B53F
:109B20000C46FFF759FC0546FFF747FC18B940F211
